:020000040000fa
:020000040040ba
:10000000f0ff4520b9044000231240008312400055
:1000100011134000131340001513400000000000ae
:100020000000000000000000000000006309400024
:10003000bf12400000000000630940006309400057
:100040006309400063094000630940006309400000
:10005000630940006309400063094000f50e400059
:10006000630940000000000063094000630940008c
:1000700063094000630940006309400063094000d0
:1000800063094000630940006309400063094000c0
:1000900063094000630940006309400063094000b0
:1000a00063094000630940006309400063094000a0
:1000b0006309400063094000630940006309400090
:1000c0006309400063094000630940006309400080
:1000d0006309400063094000630940006309400070
:1000e0006309400063094000630940006309400060
:1000f00063094000a50e4000630940006309400009
:10010000630940006309400063094000630940003f
:100110006309400063094000000000000000000087
:10012000630940006309400063094000630940001f
:1001300063094000630940000000000063094000bb
:1001400063094000630940006309400063094000ff
:1001500063094000630940006309400063094000ef
:0801600063094000630940003f
:020000040000fa
:020000040040ba
:10016800f8b500bff8bc08bc9e4670474d1040006b
:10017800f8b500bff8bc08bc9e467047291040007f
:020000040000fa
:020000040040ba
:100188002de9f047aeb00746164605914ff0000836
:10019800059d2b78002b00f0e08000244ff0ff3302
:1001a800cde909430eab0c9380230b940d932b5d83
:1001b8000bb1252b30d134b1294622463846254487
:1001c80000f0edff0595059b1a78252a40f0bc80c4
:1001d80003f10109cdf814904a46002113782b2b1e
:1001e800104602f1010223d02ed8202b24d0232b35
:1001f80026d001b105902a2b2ed000f0edfe059aed
:100208000b900020114601320b78303b092b79d92d
:10021800002830d005912ee00134c8e7099b43f04f
:10022800010309930121d9e7099b43f00203f8e789
:10023800099b43f00403f4e7099b43f00803f0e744
:10024800099b43f01003ece72d2be7d0302bebd0c4
:100258000029d2d00590d0e733681a1d1b68326098
:100268000130002b05900b9305da099a5b4282f066
:10027800010209920b93099bda0744bf23f002039a
:100288000993059b1a782e2a0fd14ff0000acdf852
:1002980028a05a785d1c2a2a059535d10233059382
:1002a80033681a1d1b6832600a9305a800f014ff12
:1002b800059d0390287801f007f82528039900f098
:1002c800da806138172800f2e080172800f2dd8014
:1002d800dfe810f02b00db00b6004700a700a700fe
:1002e800a700db004700db00db00db00db009e0033
:1002f80065008300db00db00c700db005600db0085
:10030800db00740001207de7284600f065fe5346b7
:100318000a90294601350a78303a092a03d9002b70
:10032800c3d00591c1e70123f3e7324606a800f0e0
:1003380021ff002872d06b1c059306aa2b7809a907
:10034800384600f0ddff04444444a04540f3a7804c
:10035800544b4f221a604ff0ff3840462eb0bde88c
:10036800f0873346012206a800f095fa002855d0f8
:10037800013506aa09a93846059500f0bfffe2e74e
:100388003346002206a800f086fa002846d0013538
:1003980006aa09a93846059500f0b0ffd3e7334609
:1003a800002206a800f077fa002837d0013506aaff
:1003b80009a93846059500f0a1ffc4e73346002295
:1003c80006a800f068fa48b36b1c05932b7806aab8
:1003d80009a9384600f0cef9b5e733460022f021e6
:1003e80006a800f058fac8b1dde906320135134312
:1003f80005950bd12c4800f029ff099b00932a4949
:100408000b9b0246384600f007fb9ce77823dee7a3
:10041800334608eb040206a800f03cfb01350595bd
:1004280092e7324606a800f0a5fe0028f6d06b1c1d
:10043800059306aa2b7809a9384600f061ff82e7e0
:100448008029ebd1336801351a1d1b6832608df89d
:1004580018300595012306aa09a9384600f052ff6d
:1004680071e78029dad13268131d336001351268cb
:1004780005950023f0e78029d0d1099b0093013529
:100488000b9b059509490122bce700234ff0ff3279
:10049800cdf8149009930b930a920093f2e7a046c3
:1004a80076e600bf48014020f8124000fe124000e6
:020000040000fa
:020000040040ba
:1004b80008b5514b9847514b9847eff3108172b6e6
:1004c8004f4ad2f8883043f47003c2f88830bff33b
:1004d8004f8fbff36f8f01b962b64a4b4a4a5a60d1
:1004e8001a46936813f0010ffbd0464bdb6813f4f0
:1004f800c07f15d0454b0c221a60424b444a5a60c3
:100508001a46936813f0010ffbd03e4b414a5a60dc
:100518001a46936813f0010ffbd03f4b3f4a1a600d
:10052800bff34f8fbff36f8f354cd4f8903223f061
:100538000103c4f89032d4f8943223f00103c4f8cc
:100548009432bff34f8fbff36f8f00f0e1fd344b50
:1005580023f07f03a360334b9847636913f4003f8c
:1005680012d1bff34f8fbff36f8f0022c4f8502210
:10057800bff34f8fbff36f8f626942f4003262613d
:10058800bff34f8fbff36f8f1d4b5b6913f4803f31
:100598002bd11b4b0022c3f88420bff34f8fd3f815
:1005a8008030c3f3c904c3f34e334fea431c43f608
:1005b800e07e13480cea0e01234641ea8372c0f834
:1005c8006022013bb3f1ff3ff7d1acf1200c1cf1e5
:1005d800200fefd1bff34f8f094a536943f480339b
:1005e8005361bff34f8fbff36f8f0f4b98470f4b7c
:1005f800984700f01df8fee7171340001713400056
:1006080000ed00e0000c0e400d00005a2c014020c7
:100618000c08005a0c07005a00180e40010000a5eb
:1006280000004000490e4000171340001713400017
:020000040000fa
:020000040040ba
:100638002de98848002000f085fddff82491dff8d7
:10064800248140241027c9f80080dff81ca13d4d03
:10065800234642465146284600f0d2fd2146284608
:1006680000f094fc384600f0d9fdd9f800305a69fa
:100678009b691a44a2f58072334e32602346514674
:10068800284600f0bdfd2146284600f07ffc38468c
:1006980000f0c4fd3268234652692c49284600f010
:1006a800affd2146284600f071fc384600f0b6fd43
:1006b80033685b691a68dff8b4b0cbf800202346ca
:1006c8002349284600f09cfd2146284600f05efca0
:1006d800384600f0a3fd33685b695a68dff890a0dc
:1006e800caf8002023461b49284600f089fd214608
:1006f800284600f04bfc384600f090fd72b6c9f869
:100708000080154b3360bff34f8fbff36f8f336893
:100718005b6923f07f03114a9360bff34f8fbff3e8
:100728006f8f62b633685b691a68cbf8002082f372
:1007380008885b68caf800309847204600f06efdcc
:1007480081e700bf7000402038014020080c4000bd
:10075800180c4000340c400000ff5f0000ed00e082
:100768003c01402000bf4000e80b4000340140201d
:0407780030014020ec
:020000040000fa
:020000040040ba
:10077c002de9f04f8bb00d460493d1e901132f688e
:10078c00d5f80c9003900029a8bf27f002079246d9
:10079c00b8bf012117f010020592dae9006232d0dd
:1007ac0056ea02002fd0a3f1020b2c69029617f027
:1007bc00080004f1ff3418bf0bf1ff3b90460022f8
:1007cc0009f8042006905a46012c1edc059a002ad2
:1007dc0051d1069a1ab1013c202209f804202a6949
:1007ec0003980097013a121b09eb040100f012f96f
:1007fc00039b5b68db0503d56b689842b8bf184652
:10080c000bb0bde8f08f9b46cfe7029850ea08008a
:10081c0008d1a1eb0b001044002803dc002ad5dd25
:10082c00b807d3d50298049e00f00f000928a6f152
:10083c00410cd4bf30305730bcf1190f04f1ff34e8
:10084c000ed840f0200cacf1610cbcf1190f07d89c
:10085c00cde90813079200f03cfddde90813079a77
:10086c0009f804000298060946ea0870013a029059
:10087c004fea1818a8e7dae900210a43a9d009ebd6
:10088c000402049902f8011c023c302209f80420ed
:02089c009fe7d4
:020000040000fa
:020000040040ba
:10089e00902910b50fdc7f2913dd8039102910d86f
:1008ae00dfe801f02b2b360f110f0f0f200f0f0f5c
:1008be000f0f0f0f3600c02944d0f02942d0a029c7
:1008ce0021d000200de019682ab10a1d1a60b1f975
:1008de000030da1702e00c1d1c600b88c0e90032f4
:1008ee00012010bd196822b10a1d1a6091f900305d
:1008fe00efe70c1d1c600b78f0e71968f2b10a1dca
:10090e001a600b68e5e71a68111d19601368e0e7b5
:10091e00196852b1073121f0070101f108021a607e
:10092e00d1e90023c0e90023dae7ca1d22f007024d
:10093e0002f108011960d2e90023f3e70c1d1c60d7
:10094e000b68cbe71a68111d19601368036000234a
:04095e004360c5e746
:020000040000fa
:020000040040ba
:02096200fee7ae
:020000040000fa
:020000040040ba
:1009640000222c4bc3f814212b494ff4c0634b6075
:100974006ff4c0630b604ff0ff334b650b66c1f837
:100984009030c1f8a0304ff4000008616ff400000b
:1009940048618a63c1f8182101f500710b604b6549
:1009a4000b66c1f89030c1f8a0300a614b618a63cc
:1009b400c1f8182101f500710b604b650b66c1f895
:1009c4009030c1f8a0300a614b618a63c1f81821e4
:1009d40001f500714ff0a04048606ff0a04008603e
:1009e4004b650b66c1f89030c1f8a0300a614b61c9
:1009f4008a63c1f8182101f500710b604b650b6621
:100a0400c1f89030c1f8a0300a614b618a63c1f823
:0c0a14001821704700800840000e0e40c2
:020000040000fa
:020000040040ba
:100a20002de9ff471d460c9b13f0010806460f46b3
:100a3000144601d195420bd822463946304600f083
:100a4000b2fba54204d82546284604b0bde8f0878d
:100a5000a5eb04094a46102a28bf10222021684627
:100a6000ca4600f019fc00bfbaf10f0f0ed809f00a
:100a70000f026946304600f096fbb8f1000fe3d153
:100a800022463946304600f08efbdde710226946eb
:0c0a9000304600f088fbaaf1100ae5e7f0
:020000040000fa
:020000040040ba
:100a9c00902910b50fdc7f2911dd803910290ed873
:100aac00dfe801f00f0f250d170d0d0d1e0d0d0daf
:100abc000d0d0d0d2500a02903d0c02901d000205b
:100acc0006e019680c1d1c600b6803601a6001209d
:100adc0010bd19680c1d1c600b6803601a80f6e7ca
:100aec0019680c1d1c600b6803601a70efe719681d
:100afc000c1d1c600b680360d117c3e90021e6e7ed
:020000040000fa
:020000040040ba
:100b0c00100140201c00000000000000b00040203c
:100b1c0030000000000000002c01402014000000f8
:100b2c0000000000700040204000000000000000a9
:100b3c00e000402030000000000000004001402098
:100b4c0004000000000000002000402050000000c5
:100b5c0000000000440140200800000000000000dc
:100b6c000000000000000000666666666666666649
:020000040000fa
:020000040040ba
:100b7c00174b184a9a621a46936e13f0020ffbd069
:100b8c00134a136b23f070031363936e13f0080f67
:100b9c00fbd00f4a136b23f4407343f4807313633d
:100bac00936e13f0080ffbd0094a136b23f0030369
:100bbc0043f002031363936e13f0080ffbd0044b46
:100bcc00054a1a614ff40052c3f80021704700bf68
:0c0bdc0000060e40013f1820801c0300a2
:020000040000fa
:020000040040ba
:100be8007043757272656e744170706c696361747c
:100bf800696f6e446174613a2025580a000000004c
:100c08005343422d3e56544f523a2025580a00006d
:100c1800753332537461636b506f696e74657256c5
:100c2800616c75653a2025580a00000066704170ad
:100c3800706c69636174696f6e526573657448613d
:0b0c48006e646c65723a2025580a00ab
:020000040000fa
:020000040040ba
:100c540038b5174b1b7d4bb3154b5c689b68154a25
:100c6400526912f0020f0fd09c420dd9104d114958
:100c74002a68c869d25c0243ca6101334a6912f026
:100c8400020f01d09c42f3d8094a93609368a342af
:100c94000cd3134600221a75064a4ff40071d16032
:100ca400db681bb1024b1869db68984738bd00bf8d
:080cb400b0004020001c0e40be
:020000040000fa
:020000040040ba
:100cbc0038b5174b1b7d4bb3154b5c689b68154abd
:100ccc00526912f0020f0fd09c420dd9104d1149f0
:100cdc002a68c869d25c0243ca6101334a6912f0be
:100cec00020f01d09c42f3d8094a93609368a34247
:100cfc000cd3134600221a75064a4ff40071d160ca
:100d0c00db681bb1024b1869db68984738bd00bf24
:080d1c00e000402000080e4039
:020000040000fa
:020000040040ba
:100d240038b5164b93f82c303bb3144bdc691b6a73
:100d3400134a526912f0010f0dd09c420bd9104a8c
:100d44000e4d9069a969c8540133516911f0010f1e
:100d540001d09c42f5d8094a1362136aa3420cd30a
:100d64001346002283f82c20054ae121d1605b6af6
:100d74001bb1024b986a5b6a984738bdb0004020ab
:040d8400001c0e4001
:020000040000fa
:020000040040ba
:100d880038b5164b93f82c303bb3144bdc691b6a0f
:100d9800134a526912f0010f0dd09c420bd9104a28
:100da8000e4d9069a969c8540133516911f0010fba
:100db80001d09c42f5d8094a1362136aa3420cd3a6
:100dc8001346002283f82c20054ae121d1605b6a92
:100dd8001bb1024b986a5b6a984738bde000402017
:040de80000080e40b1
:020000040000fa
:020000040040ba
:100dec00134bd96821f4e0610904090c114a0a4338
:100dfc00da60bff35f8f62b60f4ae02182f8071307
:100e0c008020106082f82d134ff4005151605a6a03
:100e1c0042f480225a625a6942f010025a615a6aac
:100e2c0042f400325a625a6a42f480325a62704773
:0c0e3c0000ed00e00000fa0500e100e01d
:020000040000fa
:020000040040ba
:100e48000e4a38b5002313600d4a0e4c13600e4a43
:100e58000e4d13600e4a13600e4a13600e4a536219
:100e680013610123936000f055fa00f053faac4285
:100e780000d338bd54f8043b9847f8e744014020b4
:100e88002c004020740140002800402078014000d8
:0c0e9800200040202400402030004020ba
:020000040000fa
:020000040040ba
:100ea40008b5114b5b6913f0e00f0cd00e4be12237
:100eb400da600e4b002283f82c205b6a1bb10b4bcb
:100ec400986a5b6a9847084b5b6913f0010f05d178
:100ed400054b5b6913f0020f03d108bdfff720ff38
:100ee400f6e7fff7b5fef8e7001c0e40b00040201f
:020000040000fa
:020000040040ba
:100ef40008b5114b5b6913f0e00f0cd00e4be122e7
:100f0400da600e4b002283f82c205b6a1bb10b4b7a
:100f1400986a5b6a9847084b5b6913f0010f05d127
:100f2400054b5b6913f0020f03d108bdfff72affdd
:100f3400f6e7fff7c1fef8e700080e40e0004020a6
:020000040000fa
:020000040040ba
:100f440010b54ff0ff3c88b00c4611461a464ff4da
:100f54008173cde901c300b96846cde9030454b1f6
:100f6400631e002c059308da084b4f221a604ff0d9
:100f7400ff3008b010bd2346f3e70023cde9060097
:100f8400037001a800f030f9f3e700bf48014020e6
:020000040000fa
:020000040040ba
:100f9400d8b1104b1b7dd3b90e4b1860596000219a
:100fa4009960012119750c4b5b6913f0020f06d08f
:100fb4000278094bda61074a93680b449360064b45
:100fc4004ff400729a60012070470020704700209f
:0c0fd400704700bfb0004020001c0e4021
:020000040000fa
:020000040040ba
:100fe0000278202a034600f10100f9d0a2f109019c
:100ff0000429f5d92b2a06d02d2a13d1012101333a
:10100000013b002006e00021f9e700bf00eb800073
:10101000c2eb400013f8012f303a092af6d901b982
:08102000404270470021ebe79c
:020000040000fa
:020000040040ba
:1010280010b5054c237833b9044b13b10448aff31a
:1010380000800123237010bd100140200000000033
:101048000000000008b5034b1bb103490348aff388
:10105800008008bd000000001401402000000000ce
:020000040000fa
:020000040040ba
:101068000c4b4ff486721a6050221a604ff40062db
:101078005a6051221a62084b00229a61da611a6298
:1010880083f82c205a621a605a609a601a75da60de
:0c109800704700bf001c0e40b00040205c
:020000040000fa
:020000040040ba
:1010a4000c4b4ff486721a6050221a604ff400629f
:1010b4005a6051221a62084b00229a61da611a625c
:1010c40083f82c205a621a605a609a601a75da60a2
:0c10d400704700bf00080e40e000402004
:020000040000fa
:020000040040ba
:1010e00030b50c4a0146002012f810301bb902eb53
:1010f0004002507830bd0c6825789d4209bf02eb54
:101100004003431c5878013414bfd8b20c600a283d
:08111000ead9efe76c12400080
:020000040000fa
:020000040040ba
:1011180038b50a480a4d016821b9436813b900f087
:10112800f8f838bd0389426855f8233000f10c04fb
:101138002046984704eb8000ede700bf0c0b400009
:0411480084124000cd
:020000040000fa
:020000040040ba
:10114c0008b500f0b7f8fff713fdfff705fcfff744
:10115c0085fffff7a1ff4ff40043044a5360a2f54b
:10116c0080725365fff73cfe08bd00bf00190e40ae
:020000040000fa
:020000040040ba
:10117c00812903dc7f2903dc002070478329fbd104
:10118c001368073323f0070303f108011160d3e957
:0a119c000023c0e900230120704782
:020000040000fa
:020000040040ba
:1011a60038b503699a4228bf1a460446154652b115
:1011b600406900f040f8636922692b44521b2261a2
:0811c600002263611a7038bdbc
:020000040000fa
:020000040040ba
:1011ce0010b50023934206d113f0030018bf01207f
:0e11de0000eb930010bdc45ccc540133f2e76b
:020000040000fa
:020000040040ba
:1011ec0013b50446019201aafef7c8ff636813f019
:0c11fc00100f18bf4ff0ff3002b010bd04
:020000040000fa
:020000040040ba
:101208000eb403b503aa52f8041b019200f06af861
:0a12180002b05df804eb03b070476c
:020000040000fa
:020000040040ba
:02122200fee7e5
:020000040000fa
:020000040040ba
:10122400044b03fb00f0002300bf01338342fbddca
:08123400704700bf40420f00ab
:020000040000fa
:020000040040ba
:10123c004ab1431e84460a4411f8010b03f8010f0e
:08124c009142f9d160467047a0
:020000040000fa
:020000040040ba
:1012540003783bb1034600bf13f8012f002afbd1ea
:08126400181a70471846704784
:020000040000fa
:020000040040ba
:10126c0068076c094c836a9074a07ac00080688807
:06127c0000846c82008179
:020000040000fa
:020000040040ba
:02128200fee785
:020000040000fa
:020000040040ba
:10128400ad124000cf114000011340000113400093
:041294000113400002
:020000040000fa
:020000040040ba
:1012980032b1c9b20244034603f8011b9a42fbd19a
:0412a800704700bfcc
:020000040000fa
:020000040040ba
:1012ac000a440023914201d10020704701f8013b10
:0212bc00f8e751
:020000040000fa
:020000040040ba
:0212be00fee749
:020000040000fa
:020000040040ba
:1012c000014b024a1a607047000c0e4000060004f1
:020000040000fa
:020000040040ba
:0e12d000a0f14103192b98bf40f02000704799
:020000040000fa
:020000040040ba
:0e12de00a0f16103192b98bf00f05f0070476c
:020000040000fa
:020000040040ba
:0c12ec0013460a466ff00041fff726bed3
:020000040000fa
:020000040040ba
:0812f800286e696c2900250035
:020000040000fa
:020000040040ba
:041300000020704712
:020000040000fa
:020000040040ba
:04130400002070470e
:020000040000fa
:020000040040ba
:04130800002070470a
:020000040000fa
:020000040040ba
:04130c000020704706
:020000040000fa
:020000040040ba
:02131000fee7f6
:020000040000fa
:020000040040ba
:02131200fee7f4
:020000040000fa
:020000040040ba
:02131400fee7f2
:020000040000fa
:020000040040ba
:0213160070471e
:020000040000fa
:020000040040ba
:0213180070471c
:020000040000fa
:020000040040ba
:02131a0070471a
:020000040000fa
:020000040040ba
:02131c00704718
:020000040000fa
:020000040040ba
:10bf00000100000001000000191340000000400083
:10bf100000c0000000c0400000401f000000000002
:10bf20000000000000000000000000000000000011
:10bf30000000000000000000000000000000000001
:10bf400000000000000000000000000000000000f1
:10bf500000000000000000000000000000000000e1
:10bf600000000000000000000000000000000000d1
:10bf700000000000000000000000000000000000c1
:10bf800000000000000000000000000000000000b1
:10bf900000000000000000000000000000000000a1
:10bfa0000000000000000000000000000000000091
:10bfb0000000000000000000000000000000000081
:10bfc0000000000000000000000000000000000071
:10bfd0000000000000000000000000000000000061
:10bfe0000000000000000000000000000000000051
:10bff0000000000000000000000000000000000041
:020000040000fa
:02000004d0002a
:0400000002000000fa
:00000001FF
