:020000040000fa
:020000040040ba
:10000000f0ff4520050d4000f71d40003f1f400058
:10001000ef1f40008b204000df2040000000000068
:100020000000000000000000000000005f1c400015
:10003000771f4000000000005f1c40005f1c400074
:100040005f1c40005f1c40005f1c40005f1c4000c4
:100050005f1c40005f1c40005f1c40005f1c4000b4
:100060005f1c4000000000005f1c40005f1c40005f
:100070005f1c40005f1c40005f1c40005f1c400094
:100080005f1c40005f1c40005f1c40005f1c400084
:100090005f1c40005f1c40005f1c40005f1c400074
:1000a0005f1c40005f1c40005f1c40005f1c400064
:1000b0005f1c40005f1c40005f1c40005f1c400054
:1000c0005f1c40005f1c40005f1c40005f1c400044
:1000d0005f1c40005f1c40005f1c40005f1c400034
:1000e0005f1c40005f1c40005f1c40005f1c400024
:1000f000bd1840005f1c40005f1c40005f1c4000ba
:100100005f1c40005f1c40005f1c40005f1c400003
:100110005f1c40005f1c4000000000000000000069
:100120005f1c40005f1c40005f1c40005f1c4000e3
:100130005f1c40005f1c4000000000005f1c40008e
:100140005f1c40005f1c40005f1c40005f1c4000c3
:100150005f1c40005f1c40005f1c40005f1c4000b3
:080160005f1c40005f1c400021
:020000040000fa
:020000040040ba
:10016800f8b500bff8bc08bc9e467047191b400094
:10017800f8b500bff8bc08bc9e467047f51a4000a9
:020000040000fa
:020000040040ba
:0801880038070000010000002f
:020000040000fa
:020000040040ba
:1001900000000000b71dc1046e3b8209d926430d43
:1001a000dc7604136b6bc517b24d861a0550471edb
:1001b000b8ed08260ff0c922d6d68a2f61cb4b2b7b
:1001c000649b0c35d386cd310aa08e3cbdbd4f3823
:1001d00070db114cc7c6d0481ee09345a9fd5241c3
:1001e000acad155f1bb0d45bc2969756758b56525b
:1001f000c836196a7f2bd86ea60d9b6311105a67fb
:1002000014401d79a35ddc7d7a7b9f70cd665e74a2
:10021000e0b6239857abe29c8e8da1913990609502
:100220003cc0278b8bdde68f52fba582e5e664861a
:10023000585b2bbeef46eaba3660a9b7817d68b33a
:10024000842d2fad3330eea9ea16ada45d0b6ca062
:10025000906d32d42770f3d0fe56b0dd494b71d982
:100260004c1b36c7fb06f7c32220b4ce953d75ca9a
:1002700028803af29f9dfbf646bbb8fbf1a679ffba
:10028000f4f63ee143ebffe59acdbce82dd07dece2
:1002900077708634c06d4730194b043dae56c53972
:1002a000ab0682271c1b4323c53d002e7220c12aaa
:1002b000cf9d8e1278804f16a1a60c1b16bbcd1faa
:1002c00013eb8a01a4f64b057dd00808cacdc90cf2
:1002d00007ab9778b0b6567c69901571de8dd475f2
:1002e000dbdd936b6cc0526fb5e6116202fbd0662a
:1002f000bf469f5e085b5e5ad17d1d576660dc532a
:1003000063309b4dd42d5a490d0b1944ba16d84071
:1003100097c6a5ac20db64a8f9fd27a54ee0e6a1b1
:100320004bb0a1bffcad60bb258b23b69296e2b269
:100330002f2bad8a98366c8e41102f83f60dee87e9
:10034000f35da9994440689d9d662b902a7bea94b1
:10035000e71db4e0500075e4892636e93e3bf7ed31
:100360003b6bb0f38c7671f7555032fae24df3fee9
:100370005ff0bcc6e8ed7dc231cb3ecf86d6ffcb69
:100380008386b8d5349b79d1edbd3adc5aa0fbd831
:10039000eee00c6959fdcd6d80db8e6037c64f6491
:1003a0003296087a858bc97e5cad8a73ebb04b7749
:1003b000560d044fe110c54b383686468f2b474209
:1003c0008a7b005c3d66c158e4408255535d4351d1
:1003d0009e3b1d252926dc21f0009f2c471d5e2811
:1003e000424d1936f550d8322c769b3f9b6b5a3bc9
:1003f00026d6150391cbd40748ed970afff0560e89
:10040000faa011104dbdd014949b93192386521d50
:100410000e562ff1b94beef5606dadf8d7706cfc50
:10042000d2202be2653deae6bc1ba9eb0b0668ef88
:10043000b6bb27d701a6e6d3d880a5de6f9d64dac8
:100440006acd23c4ddd0e2c004f6a1cdb3eb60c910
:100450007e8d3ebdc990ffb910b6bcb4a7ab7db0d0
:10046000a2fb3aae15e6fbaaccc0b8a77bdd79a308
:10047000c660369b717df79fa85bb4921f46759648
:100480001a163288ad0bf38c742db081c330718590
:1004900099908a5d2e8d4b59f7ab085440b6c950e0
:1004a00045e68e4ef2fb4f4a2bdd0c479cc0cd43f8
:1004b000217d827b9660437f4f460072f85bc17658
:1004c000fd0b86684a16476c93300461242dc56580
:1004d000e94b9b115e565a1587701918306dd81c60
:1004e000353d9f0282205e065b061d0bec1bdc0f78
:1004f00051a69337e6bb52333f9d113e8880d03ad8
:100500008dd097243acd5620e3eb152d54f6d429ff
:100510007926a9c5ce3b68c1171d2bcca000eac81f
:10052000a550add6124d6cd2cb6b2fdf7c76eedbb7
:10053000c1cba1e376d660e7aff023ea18ede2ee97
:100540001dbda5f0aaa064f4738627f9c49be6fd3f
:1005500009fdb889bee0798d67c63a80d0dbfb849f
:10056000d58bbc9a62967d9ebbb03e930cadff9737
:10057000b110b0af060d71abdf2b32a66836f3a217
:100580006d66b4bcda7b75b8035d36b5b440f7b1bf
:020000040000fa
:020000040040ba
:100590002de9f047aeb00746164605914ff000082a
:1005a000059d2b78002b00f0e08000244ff0ff33f6
:1005b000cde909430eab0c9380230b940d932b5d77
:1005c0000bb1252b30d134b129462246384625447b
:1005d00001f053fc0595059b1a78252a40f0bc8054
:1005e00003f10109cdf814904a46002113782b2b12
:1005f000104602f1010223d02ed8202b24d0232b29
:1006000026d001b105902a2b2ed001f04ffa059a81
:100610000b900020114601320b78303b092b79d921
:10062000002830d005912ee00134c8e7099b43f043
:10063000010309930121d9e7099b43f00203f8e77d
:10064000099b43f00403f4e7099b43f00803f0e738
:10065000099b43f01003ece72d2be7d0302bebd0b8
:100660000029d2d00590d0e733681a1d1b6832608c
:100670000130002b05900b9305da099a5b4282f05a
:10068000010209920b93099bda0744bf23f002038e
:100690000993059b1a782e2a0fd14ff0000acdf846
:1006a00028a05a785d1c2a2a059535d10233059376
:1006b00033681a1d1b6832600a9305a801f0d0fa4e
:1006c000059d0390287801f0d9fc2528039900f0b6
:1006d000da806138172800f2e080172800f2dd8008
:1006e000dfe810f02b00db00b6004700a700a700f2
:1006f000a700db004700db00db00db00db009e0027
:1007000065008300db00db00c700db005600db0078
:10071000db00740001207de7284601f0c7f953464d
:100720000a90294601350a78303a092a03d9002b64
:10073000c3d00591c1e70123f3e7324606a801f0d3
:1007400087fb002872d06b1c059306aa2b7809a999
:10075000384601f0c0fc04444444a04540f3a7805f
:10076000544b4f221a604ff0ff3840462eb0bde880
:10077000f0873346012206a800f0ecfc002855d093
:10078000013506aa09a93846059500f0a5fde2e75e
:100790003346002206a800f0ddfc002846d00135d3
:1007a00006aa09a93846059501f093fcd3e733461c
:1007b000002206a800f0cefc002837d0013506aa9a
:1007c00009a93846059501f084fcc4e733460022a8
:1007d00006a800f0bffc48b36b1c05932b7806aa53
:1007e00009a9384601f077fcb5e733460022f0212d
:1007f00006a800f0affcc8b1dde9063201351343ad
:1008000005950bd12c4801f0dbfb099b00932a498d
:100810000b9b0246384600f0f1fd9ce77823dee7ab
:10082000334608eb040206a800f012ff01350595d7
:1008300092e7324606a801f00bfb0028f6d06b1cad
:10084000059306aa2b7809a9384601f044fc82e7f3
:100850008029ebd1336801351a1d1b6832608df891
:1008600018300595012306aa09a9384601f035fc80
:1008700071e78029dad13268131d336001351268bf
:1008800005950023f0e78029d0d1099b009301351d
:100890000b9b059509490122bce700234ff0ff326d
:1008a000cdf8149009930b930a920093f2e7a046b7
:1008b00076e600bfe4094020c6204000cc2040007e
:020000040000fa
:020000040040ba
:1008c0002de9f04786468c460846089e1546744634
:1008d0001946002b40f0c2808242b2fa82f245d91a
:1008e0004ab1c2f1200300fa02fc2efa03f395404c
:1008f00043ea0c0c94404fea154ea8b2bcfbfef83c
:10090000230c0efb18cc08fb00f943ea0c43994575
:1009100028d9eb1808f1ff3704d2994502d9a8f17c
:1009200002072b44a3eb0903a4b2b3fbfefc0efbae
:100930001c330cfb00f044ea0344a04214d92c19e8
:100940000cf1ff3304d2a04202d9acf102032c44d3
:10095000241a43ea07401eb1d44000233460736078
:10096000bde8f0874746dde76346f1e792bb431bee
:1009700001214fea154eafb2b3fbfefc200c0efb7b
:100980001c330cfb07f840ea0343984562d9eb1887
:100990000cf1ff3004d2984502d9acf102002b448f
:1009a000a3eb0803a4b2b3fbfefc0efb1c330cfb51
:1009b00007f744ea0344a7424ed92c190cf1ff3340
:1009c00004d2a74202d9acf102032c44e41b43ea4f
:1009d0000040c0e7c2f1200320fa03f195409040a7
:1009e0002efa03f303434fea154eafb2b1fbfefc00
:1009f0000efb1c10190c0cfb07f841ea004188455e
:100a000004fa02f422d969180cf1ff3004d28845a7
:100a100002d9acf102002944a1eb08019bb2b1fb61
:100a2000fefc0efb1c110cfb07f743ea01439f423f
:100a30000ed9eb180cf1ff3104d29f4202d9acf170
:100a400002012b44db1b41ea004192e76046e3e7e9
:100a50006146f7e76046a3e76346b7e7834206d9f6
:100a600016b9002108467be7c6e900e0f9e7b3faca
:100a700083f78fb9834201d3724508d8beeb0204d5
:100a800060eb030301209c461eb9002168e738464d
:100a9000fae7c6e9004cf8e7c7f1200cbb4022faa0
:100aa0000cf41c432efa0cf120fa0cf3b84001436d
:100ab0004fea14490efa07f5b3fbf9f81ffa84fe62
:100ac00009fb18300b0c08fb0efa43ea00439a4569
:100ad00002fa07f240d9e31808f1ff3004d29a4530
:100ae00002d9a8f102002344a3eb0a0389b2b3fba5
:100af000f9f809fb183308fb0efe41ea03418e4565
:100b00002cd9611808f1ff3304d28e4502d9a8f11f
:100b10000203214443ea0040a0fb0298a1eb0e012e
:100b20004145ce46434602d306d14d4504d2b9ebea
:100b3000020e68eb04030138002ea6d0b5eb0e02be
:100b400061eb030101fa0cfc22fa07f34cea030300
:100b5000f940c6e9003198e74046c5e74346d9e782
:020000040000fa
:020000040040ba
:100b600030b587b00446051d284600f055fb002827
:100b700000f08180574b1b78002b7ad0564b002217
:100b8000564813f8011b0a448342fad1002400940a
:100b9000cdf8034007235249684601f0dff90721e9
:100ba000684601f0e9f9202001f0f2f972b64ff041
:100bb000e0231c6123464b484ff0ff3100eb8302da
:100bc000c2f88010c2f880110133082bf6d1464bd1
:100bd000464a1a60464b474a13605b691968464aa1
:100be00011605968454a116023f07f03444a9360bd
:100bf000bff34f8fbff36f8f0023c2f88430bff372
:100c00004f8fd2f88030c3f3c90ec3f34e334fea8f
:100c1000431c43f6e07410460cea0401734641eab3
:100c20008372c0f87422013bb3f1ff3ff7d1acf1fe
:100c3000200c1cf1200fefd1bff34f8fbff36f8f4c
:100c4000bff34f8fbff36f8f00242d4bc3f850427b
:100c5000bff34f8fbff36f8fbff34f8fbff36f8f14
:100c6000254b1b6883f30888244b1b689847194b56
:100c70001c7007b030bd02a9284601f0d7f9002842
:100c80007ff478af012384f81c31029800f0e4fd72
:100c9000a8b1029904f5867000f084f938b9792377
:100ca0008df80c30012103a801f066f90ee01f2336
:100cb0008df81030012104a801f05ef906e01f2331
:100cc0008df81430012105a801f056f9284601f0ed
:100cd000cef94fe7e809402000c040008ad1430028
:100ce000581f400000e100e0d809402000bf40004c
:100cf00000ff5f00d4094020d0094020cc094020eb
:040d000000ed00e022
:020000040000fa
:020000040040ba
:100d040008b5514b9847514b9847eff3108172b691
:100d14004f4ad2f8883043f47003c2f88830bff3e6
:100d24004f8fbff36f8f01b962b64a4b4a4a5a607c
:100d34001a46936813f0010ffbd0464bdb6813f49b
:100d4400c07f15d0454b0c221a60424b444a5a606e
:100d54001a46936813f0010ffbd03e4b414a5a6088
:100d64001a46936813f0010ffbd03f4b3f4a1a60b9
:100d7400bff34f8fbff36f8f354cd4f8903223f00d
:100d84000103c4f89032d4f8943223f00103c4f878
:100d94009432bff34f8fbff36f8f00f0b1ff344b2a
:100da40023f07f03a360334b9847636913f4003f38
:100db40012d1bff34f8fbff36f8f0022c4f85022bc
:100dc400bff34f8fbff36f8f626942f400326261e9
:100dd400bff34f8fbff36f8f1d4b5b6913f4803fdd
:100de4002bd11b4b0022c3f88420bff34f8fd3f8c1
:100df4008030c3f3c904c3f34e334fea431c43f6b4
:100e0400e07e13480cea0e01234641ea8372c0f8df
:100e14006022013bb3f1ff3ff7d1acf1200c1cf190
:100e2400200fefd1bff34f8f094a536943f4803346
:100e34005361bff34f8fbff36f8f0f4b98470f4b27
:100e4400984700f042fffee7e5204000e52040001f
:100e540000ed00e0000c0e400d00005ac8094020cf
:100e64000c08005a0c07005a00180e40010000a597
:100e7400000040001d194000e5204000e52040002e
:020000040000fa
:020000040040ba
:100e8400980940201c00000000000000c409402014
:100e94000400000000000000680940203000000049
:100ea40000000000c8094020040000000000000009
:100eb400ec0940208000000001000000001a0e40f0
:100ec400000000000000000000000000000000001e
:100ed400000000000000000000000000000000000e
:100ee40000000000000000000000000000000000fe
:100ef40000000000000000000000000000000000ee
:100f040000000000000000000000000000000000dd
:100f140000000000000000000000000000000000cd
:100f240020044020200040200004000000040000b1
:100f3400000000000000000000000000200040202d
:100f4400f808000000000000e8094020010000004b
:100f540000000000b4094020100000000000000060
:100f6400cc0940201000000000000000dc094020f3
:100f74000400000000000000180940205000000098
:100f840000000000e009402008000000000000000c
:100f9400000000000000000066666666666666661d
:020000040000fa
:020000040040ba
:100fa40070b582b0002859d00b460546002955d0ab
:100fb4000a78013a042a55d8dfe802f00330051113
:100fc4004b0000244be0fa212d4800f0fbfe0446c0
:100fd400002849d100236b6001232b703fe0027885
:100fe400013ad2b2012a41d85a78032a40d9d3f817
:100ff4000200043a96b2224a90423bd33218b2f528
:10100400c00f39d83246991d00f0b6f90446a8bb82
:101014006b6833446b6002232b7020e05a78032af8
:1010240001d803241be0f8221649d3f8020000f08b
:1010340017fd044608b1012411e079238df804302a
:10104400012101a800f096fff8210e4800f092ff5c
:1010540005e00d4b01221a70002400e00324204611
:1010640002b070bd0124fae70124f8e70124f6e791
:101074000324f4e70324f2e70324f0e70124eee772
:0c10840000c0400020084020e809402087
:020000040000fa
:020000040040ba
:1010900000222e4bc3f814212d494ff4c0634b603e
:1010a0006ff4c0630b604ff0ff334b650b66c1f804
:1010b0009030c1f8a0304ff4000008616ff40000d8
:1010c00048618a63c1f8182101f500710b604b6516
:1010d0000b66c1f89030c1f8a0300a614b618a6399
:1010e000c1f8182101f500710b604b650b66c1f862
:1010f0009030c1f8a0300a614b618a63c1f81821b1
:1011000001f500710a674ff0c06048674ff0ac40ce
:1011100048606ff0ac4008604b650b66c1f89030da
:10112000c1f8a0300a614b618a63c1f8182101f54a
:1011300000710b604b650b66c1f89030c1f8a030b0
:101140000a614b618a63c1f818217047008008402a
:04115000000e0e403f
:020000040000fa
:020000040040ba
:10115400902910b50fdc7f2913dd8039102910d8b0
:10116400dfe801f02b2b360f110f0f0f200f0f0f9d
:101174000f0f0f0f3600c02944d0f02942d0a02908
:1011840021d000200de019682ab10a1d1a60b1f9b6
:101194000030da1702e00c1d1c600b88c0e9003235
:1011a400012010bd196822b10a1d1a6091f900309e
:1011b400efe70c1d1c600b78f0e71968f2b10a1d0b
:1011c4001a600b68e5e71a68111d19601368e0e7f7
:1011d400196852b1073121f0070101f108021a60c0
:1011e400d1e90023c0e90023dae7ca1d22f007028f
:1011f40002f108011960d2e90023f3e70c1d1c6019
:101204000b68cbe71a68111d19601368036000238b
:041214004360c5e787
:020000040000fa
:020000040040ba
:1012180010b582b004460df1070000f05ffe0246eb
:10122800002851d12378042b46d8dfe803f0030abd
:10123800102134009df80730aa2becd1012323702c
:10124800e9e79df80730237102232370e3e79df84f
:101258000730f42b02d906232370dce763710022e0
:10126800a4f80021934214bf032304232370d2e778
:10127800b4f80021531c9bb2a4f8003122449df815
:101288000710917162799a42c5d80023a4f80031f9
:1012980004232370bfe7b4f80031591ca4f80011e7
:1012a80023449df8071083f8fc10b4f80031032b91
:1012b800b1d90523237008e000232370a4f8003176
:1012c800c4f80431012200e00422104602b010bd27
:020000040000fa
:020000040040ba
:1012d8002de9f041d2e900230c4686b005465feac5
:1012e800d378d1e901060968e76805913fd05242f1
:1012f80063eb4303002808db21f002010591b8f1f4
:10130800000f02d10599480722d5711e05a8029041
:101318000a20cde90010204600f022f9b8f1000fac
:101328001ad001382d233b542269059b0093013aba
:101338003346121a3918284600f05cf86b68db054a
:1013480003d563689842b8bf184606b0bde8f08177
:101358000807dad43146d9e7059b590702d5013881
:101368002b23e0e71a07dfd501382023dbe7002825
:04137800c2dac7e727
:020000040000fa
:020000040040ba
:10137c00a2b32de9f047074689469046dff86ca0ea
:10138c0027f00f0607f00f00c0f11004444528bfea
:10139c004446bff34f8fcaf85c62bff34f8fbff365
:1013ac006f8f3368104d2b6073686b60b368ab60e4
:1013bc00f368eb6022464946284400f0effd3146c5
:1013cc00284600f053f858b100f076fd0028fbd108
:1013dc002744a144b8eb0408d2d102e000207047a6
:1013ec000120bde8f08700bfb409402000ed00e00b
:020000040000fa
:020000040040ba
:1013fc002de9ff471d460c9b13f0010806460f46ce
:10140c00144601d195420bd822463946304600f09d
:10141c002efda54204d82546284604b0bde8f08729
:10142c00a5eb04094a46102a28bf10222021684641
:10143c00ca4600f0ebfd00bfbaf10f0f0ed809f051
:10144c000f026946304600f012fdb8f1000fe3d1ef
:10145c0022463946304600f00afddde71022694687
:0c146c00304600f004fdaaf1100ae5e78c
:020000040000fa
:020000040040ba
:1014780000b5a1f5800e4fea5e2e00f1100c034670
:10148800081a1a681a5004336345fad1114b5b697c
:1014980013f4803f11d001f01f02bff34f8f0b46aa
:1014a8000c4810310a44c0f868322033d11a002998
:1014b800f9dcbff34f8fbff36f8f074a02ea0e22a2
:1014c800064b1343064a5360064b00221a6001205c
:1014d8005df804fb00ed00e000ffff000100005a8a
:0814e800000c0e40c409402075
:020000040000fa
:020000040040ba
:1014f00030b583b004460268536913f0e00f04d19d
:1015000013f0010f1dd0051d22e0012380f8753076
:10151000c36f0133c3674ff480731360026853696c
:1015200013f0010f09d09369dbb28df807309df8f5
:101530000730536913f0010ff5d1e023d36022681f
:10154000936003b030bd23685b6913f0010ff8d0de
:1015500023689969c9b2284600f09efb0028f2d1a1
:08156000a36f0133a367eee75e
:020000040000fa
:020000040040ba
:101568002de9f84f0446dde90a9a6668d4f80c803c
:1015780024690c9f013c1946002e4ff00003d7f850
:1015880000b008f804301046b8bf01264d460123c4
:10159800002c03dcdbb12046bde8f88f50ea0102dd
:1015a80009d1a6eb09022a44002a04dc002df1dd4a
:1015b8001bf0020feed052464feaea7300f0e8fb48
:1015c800013c1346303208f80420013de0e73b684f
:0815d80023f010033b60dee785
:020000040000fa
:020000040040ba
:1015e00030b583b0144cb4f86c300093636e134a7a
:1015f0000121201d00f0a0fbb4f870300093a36e11
:101600000f4a022104f1340000f096fb002584f813
:10161000745084f87550a567e5672146094800f0c5
:101620003bfd2146084800f031fd084be1229a605d
:10163000284603b030bd00bfec094020401f4000e9
:101640004c1f4000f1144000271c4000001a0e40bf
:020000040000fa
:020000040040ba
:10165000902910b50fdc7f2911dd803910290ed8b3
:10166000dfe801f00f0f250d170d0d0d1e0d0d0def
:101670000d0d0d0d2500a02903d0c02901d000209b
:1016800006e019680c1d1c600b6803601a600120dd
:1016900010bd19680c1d1c600b6803601a80f6e70a
:1016a00019680c1d1c600b6803601a70efe719685d
:1016b0000c1d1c600b680360d117c3e90021e6e72d
:020000040000fa
:020000040040ba
:1016c000174b184a9a621a46936e13f0020ffbd01a
:1016d000134a136b23f070031363936e13f0080f18
:1016e000fbd00f4a136b23f4407343f480731363ee
:1016f000936e13f0080ffbd0094a136b23f003031a
:1017000043f002031363936e13f0080ffbd0044bf6
:101710004ff447321a614ff48052c3f800217047ea
:0817200000060e40013f1820f5
:020000040000fa
:020000040040ba
:1017280038b5174b1b7d4bb3154b5c689b68154a46
:10173800526912f0020f0fd09c420dd9104d114979
:101748002a68c869d25c0243ca6101334a6912f047
:10175800020f01d09c42f3d8094a93609368a342d0
:101768000cd3134600221a75064a4ff40071d16053
:10177800db681bb1024b1869db68984738bd00bfae
:0817880068094020001a0e4020
:020000040000fa
:020000040040ba
:1017900010b4144b5b6913f4803f12d000f01f02a9
:1017a000bff34f8f03460f4c00f500511144c4f8ae
:1017b0005c322033ca1a002af9dcbff34f8fbff323
:1017c0006f8fa0f58000c0f34f200002064b03434b
:1017d000064a5360064b00221a6001205df8044b54
:1017e000704700bf00ed00e00702005a000c0e40f9
:0417f000c4094020c8
:020000040000fa
:020000040040ba
:1017f40038b5164b93f82c303bb3144bdc691b6a99
:10180400134a526912f0010f0dd09c420bd9104ab1
:101814000e4d9069a969c8540133516911f0010f43
:1018240001d09c42f5d8094a1362136aa3420cd32f
:101834001346002283f82c20054ae121d1605b6a1b
:101844001bb1024b986a5b6a984738bd680940200f
:04185400001a0e4028
:020000040000fa
:020000040040ba
:1018580070b582b0451e034613f8016f1e444ff061
:10186800ff314ff0000e0df1080c114c01e0b542ac
:1018780015d015f8013f8df804e08df805e08df8d6
:1018880006e08df8073001aa12f8013b83ea1163dc
:1018980054f8233083ea01216245f5d1e7e7d0f80f
:1018a800f800884214bf0020012002b070bd00bfbc
:0418b800900140005b
:020000040000fa
:020000040040ba
:1018bc0008b5154b5b6913f0e00f0cd0124be1220d
:1018cc00da60124b002283f82c205b6a1bb10f4ba1
:1018dc00986a5b6a98470c4b5b6913f0010f05d152
:1018ec00094b5b6913f0020f07d108bdfff77cffb2
:1018fc00064b986a5b6a9847f2e7fff70fff034bba
:10190c001869db689847f0e7001a0e406809402018
:020000040000fa
:020000040040ba
:10191c000e4a38b5002313600d4a0e4c13600e4a64
:10192c000e4d13600e4a13600e4a13600e4a53623a
:10193c0013610123936000f0d2fb00f0d0fbac42aa
:10194c0000d338bd54f8043b9847f8e7e009402031
:10195c0024094020740140002009402078014000f7
:0c196c00180940201c09402028094020d8
:020000040000fa
:020000040040ba
:10197800114bd96821f4e0610904090c0f4a0a43a4
:10198800da60bff35f8f62b60d4ae02182f82c134c
:101998004ff4805151605a6a42f480225a625a695f
:1019a80042f010025a615a6a42f400325a625a6a84
:1019b80042f480325a62704700ed00e00000fa05f8
:0419c80000e100e05a
:020000040000fa
:020000040040ba
:1019cc0010b54ff0ff3c88b00c4611461a464ff448
:1019dc008173cde901c300b96846cde9030454b164
:1019ec00631e002c059308da084b4f221a604ff047
:1019fc00ff3008b010bd2346f3e70023cde9060005
:101a0c00037001a800f087faf3e700bfe409402057
:020000040000fa
:020000040040ba
:101a1c002de9f041e1b116460d46cab100f0e2faeb
:101a2c008046b8b1013d002400f1340715f8011fc0
:101a3c00384600f02bf930b10134a642f6d84046b6
:101a4c0000f0cef801e0002cf9d12046bde8f08181
:081a5c000024fae70024f8e77a
:020000040000fa
:020000040040ba
:101a640038b505460846002a13dd05f01f0e9644d6
:101a7400bff34f8f2b460b4cae44c4f85c3220337b
:101a8400aeeb030cbcf1000ff7dcbff34f8fbff3d9
:101a94006f8fbff34f8fbff36f8f294600f082fa29
:081aa400002038bd00ed00e058
:020000040000fa
:020000040040ba
:101aac000278202a034600f10100f9d0a2f10901c5
:101abc000429f5d92b2a06d02d2a13d10121013363
:101acc00013b002006e00021f9e700bf00eb80009d
:101adc00c2eb400013f8012f303a092af6d901b9ac
:081aec00404270470021ebe7c6
:020000040000fa
:020000040040ba
:101af40010b5054c237833b9044b13b10448aff344
:101b040000800123237010bd9809402000000000cc
:101b14000000000008b5034b1bb103490348aff3b1
:101b2400008008bd000000009c0940200000000067
:020000040000fa
:020000040040ba
:101b340030b40446481e07e010f8011f03f8011be7
:101b4400551e39b12a461c462346002af4d12046a4
:101b540030bc7047a0183db103f8011b8342fbd190
:101b6400002cf4d130bc70471846002cefd1f9e7b3
:020000040000fa
:020000040040ba
:101b74000c4b4ff486721a6050221a604ff40062c4
:101b84005a6051221a62084b00229a61da611a6281
:101b940083f82c205a621a605a609a601a75da60c7
:0c1ba400704700bf001a0e406809402086
:020000040000fa
:020000040040ba
:101bb000f0b5002503462e46954207d313f00302e5
:101bc00018bf0122181a02eb9000f0bd1c7834b146
:101bd00001f8014b01330135eee70e5501345f7812
:0c1be000a742fadc214425440233e5e76b
:020000040000fa
:020000040040ba
:101bec0090f8743003b1704710b582b004460df113
:101bfc000701343000f0b2f868b1012384f8743076
:101c0c0023685a6912f0020f02d09df80720da619e
:0a1c1c00236802229a6002b010bd96
:020000040000fa
:020000040040ba
:101c260003685b6913f0020f00d1704710b582b0ec
:101c360004460df10701343000f093f828b123680b
:101c46009df80720da6102b010bd23680222da602f
:081c5600002384f87430f6e766
:020000040000fa
:020000040040ba
:021c5e00fee79f
:020000040000fa
:020000040040ba
:101c600030b50c4a0146002012f810301bb902ebc7
:101c70004002507830bd0c6825789d4209bf02ebc8
:101c80004003431c5878013414bfd8b20c600a28b2
:081c9000ead9efe7d81f40007c
:020000040000fa
:020000040040ba
:101c9800438d01339bb2028d9a4208bf0023828d87
:101ca800bff35b8f92b29a4201d10020704710b403
:101cb800428d92b2446aa154bff35b8f43850120e1
:061cc8005df8044b7047bb
:020000040000fa
:020000040040ba
:101cce0000b5cbb0002000f090f84ff490720021d8
:101cde0002a800f09af94ff4fa630193fff779fc2a
:101cee0001a902a800f0d6f802a8fef732ff2020c4
:061cfe0000f047f9f8e7d1
:020000040000fa
:020000040040ba
:101d040038b50a480a4d016821b9436813b900f08f
:101d1400e9f938bd0389426855f8233000f10c0411
:101d24002046984704eb8000ede700bf840e400096
:041d34000420400047
:020000040000fa
:020000040040ba
:101d380070b504460e4611461d4640f8046b1f2236
:101d480000f0acf9002284f823206562bdf8103059
:101d58002385bff35b8f6285bff35b8fa28570bd60
:020000040000fa
:020000040040ba
:101d6800838d9bb2428dbff35b8f92b293420dd0ad
:101d7800426ad25c0a7001339bb2028d9a4208bf54
:101d88000023bff35b8f83850120704700207047d5
:020000040000fa
:020000040040ba
:101d980053b94ab9002908bf00281cbf4ff0ff31ca
:101da8004ff0ff3000f098b9adf1080c6de904cea2
:101db800fef782fdddf804e0dde9022304b0704798
:020000040000fa
:020000040040ba
:101dc80089b170b504460e4600252046fff7dcfcb5
:101dd80058b100f073f80028fbd104f50054013520
:0e1de800ae42f2d102e000207047012070bd33
:020000040000fa
:020000040040ba
:021df600fee706
:020000040000fa
:020000040040ba
:101df80008b500f029f9fff75ffcfff745f9fff791
:101e0800b5fe4ff40043044a5360a2f5807253654f
:0c1e1800fff7aefd08bd00bf00190e4032
:020000040000fa
:020000040040ba
:101e240000b583b000f0e2f850b10df107010430c1
:101e3400fff798ff38b19df8070003b05df804fb85
:0c1e44004ff0ff30f9e74ff0ff30f6e7f9
:020000040000fa
:020000040040ba
:101e5000812903dc7f2903dc002070478329fbd123
:101e60001368073323f0070303f108011160d3e976
:0a1e70000023c0e9002301207047a1
:020000040000fa
:020000040040ba
:101e7a0038b503699a4228bf1a460446154652b134
:101e8a00406900f08cf8636922692b44521b226175
:081e9a00002263611a7038bddb
:020000040000fa
:020000040040ba
:101ea20010b504460b6840f8043b00f0d8f804f57e
:101eb200867000f002f90023c4f8183184f81c314e
:021ec20010bd51
:020000040000fa
:020000040040ba
:101ec400054b9868054b1a681043186080f00100b0
:101ed40000f00100704700bf000c0e40c409402010
:020000040000fa
:020000040040ba
:101ee40010b504460548fff79bffb0f1ff3f02d051
:101ef4002070002010bd0120fce700bf001a0e4036
:020000040000fa
:020000040040ba
:101f040010b50023934206d113f0030018bf01203b
:0e1f140000eb930010bdc45ccc540133f2e727
:020000040000fa
:020000040040ba
:101f220013b50446019201aafef731fb636813f070
:0c1f3200100f18bf4ff0ff3002b010bdc0
:020000040000fa
:020000040040ba
:021f3e00fee7bc
:020000040000fa
:020000040040ba
:101f400055415254325f52580000000055415254de
:0b1f5000325f545800000000256400c0
:020000040000fa
:020000040040ba
:101f5c000eb403b503aa52f8041b019200f0a2f8c8
:0a1f6c0002b05df804eb03b070470b
:020000040000fa
:020000040040ba
:021f7600fee784
:020000040000fa
:020000040040ba
:101f780008b50a4601460348fff74cfdb0fa80f061
:081f8800400908bd001a0e40db
:020000040000fa
:020000040040ba
:101f9000044b03fb00f0002300bf01338342fbdd51
:081fa000704700bf40420f0032
:020000040000fa
:020000040040ba
:101fa8004ab1431e84460a4411f8010b03f8010f95
:081fb8009142f9d16046704727
:020000040000fa
:020000040040ba
:101fc00003783bb1034600bf13f8012f002afbd171
:081fd000181a7047184670470b
:020000040000fa
:020000040040ba
:101fd80068076c094c836a9074a07ac0008068888e
:061fe80000846c82008100
:020000040000fa
:020000040040ba
:021fee00fee70c
:020000040000fa
:020000040040ba
:101ff000034b1a6882420cbf18460020704700bf8e
:04200000ec09402087
:020000040000fa
:020000040040ba
:102004003f204000051f4000cf204000cf2040006b
:04201400b11b4000bc
:020000040000fa
:020000040040ba
:1020180032b1c9b20244034603f8011b9a42fbd10c
:04202800704700bf3e
:020000040000fa
:020000040040ba
:10202c000378052b01d00120704704300860002094
:02203c007047eb
:020000040000fa
:020000040040ba
:10203e000a440023914201d10020704701f8013b70
:02204e00f8e7b1
:020000040000fa
:020000040040ba
:10205000024b4ff470621a60704700bf000c0e40d4
:020000040000fa
:020000040040ba
:0e20600000230370a0f80031c0f8043170476f
:020000040000fa
:020000040040ba
:0e206e0000230370a0f80031c0f80431704761
:020000040000fa
:020000040040ba
:0e207c00a0f14103192b98bf40f020007047df
:020000040000fa
:020000040040ba
:02208a00fee76f
:020000040000fa
:020000040040ba
:0c208c00014bd8601961704768094020c2
:020000040000fa
:020000040040ba
:0c209800014b58629962704768094020b3
:020000040000fa
:020000040040ba
:0c20a40010b50446fff744fd204610bdb7
:020000040000fa
:020000040040ba
:0c20b00013460a466ff00041fff788bca1
:020000040000fa
:020000040040ba
:0a20bc000023037043608360704747
:020000040000fa
:020000040040ba
:0820c600286e696c2900250059
:020000040000fa
:020000040040ba
:0420ce000020704737
:020000040000fa
:020000040040ba
:0420d2000020704733
:020000040000fa
:020000040040ba
:0420d600002070472f
:020000040000fa
:020000040040ba
:0420da00002070472b
:020000040000fa
:020000040040ba
:0220de00fee71b
:020000040000fa
:020000040040ba
:0420e000704700bf86
:020000040000fa
:020000040040ba
:0220e400704743
:020000040000fa
:020000040040ba
:0220e600704741
:020000040000fa
:020000040040ba
:0220e80070473f
:020000040000fa
:020000040040ba
:0220ea0070473d
:020000040000fa
:020000040040ba
:10bf00000100000001000000e720400000004000a8
:10bf100000c0000000c0400000401f000000000002
:10bf20000000000000000000000000000000000011
:10bf30000000000000000000000000000000000001
:10bf400000000000000000000000000000000000f1
:10bf500000000000000000000000000000000000e1
:10bf600000000000000000000000000000000000d1
:10bf700000000000000000000000000000000000c1
:10bf800000000000000000000000000000000000b1
:10bf900000000000000000000000000000000000a1
:10bfa0000000000000000000000000000000000091
:10bfb0000000000000000000000000000000000081
:10bfc0000000000000000000000000000000000071
:10bfd0000000000000000000000000000000000061
:10bfe0000000000000000000000000000000000051
:10bff0000000000000000000000000000000000041
:020000040000fa
:02000004d0002a
:0400000002000000fa
:00000001FF
