:020000040000fa
:020000040040ba
:10000000f8ff452089014000cb0940005f0a40000d
:100010008b0d4000bb0d40007f0e40000000000033
:10002000000000000000000000000000e3054000a8
:100030004b0d400000000000e3054000e3054000d8
:10004000e3054000e3054000e3054000e305400010
:10005000e3054000e3054000e3054000cd09400012
:10006000e305400000000000e3054000e305400018
:10007000e3054000e3054000e3054000e3054000e0
:10008000e3054000e3054000e3054000e3054000d0
:10009000e3054000e3054000e3054000e3054000c0
:1000a000e3054000e3054000e3054000e3054000b0
:1000b000e3054000e3054000e3054000e3054000a0
:1000c000e3054000e3054000e3054000e305400090
:1000d000e3054000e3054000e3054000e305400080
:1000e000e3054000e3054000e3054000e305400070
:1000f000e305400059084000e3054000e3054000e7
:10010000e3054000e3054000e3054000e30540004f
:10011000e3054000e305400000000000000000008f
:10012000e3054000e3054000e3054000e30540002f
:10013000e3054000e305400000000000e305400047
:10014000e3054000e3054000e3054000e30540000f
:10015000e3054000e3054000e3054000e3054000ff
:08016000e3054000e305400047
:020000040000fa
:020000040040ba
:10016800f8b500bff8bc08bc9e467047850a400039
:10017800f8b500bff8bc08bc9e467047610a40004d
:020000040000fa
:020000040040ba
:1001880008b5514b9847514b9847eff3108172b619
:100198004f4ad2f8883043f47003c2f88830bff36e
:1001a8004f8fbff36f8f01b962b64a4b4a4a5a6004
:1001b8001a46936813f0010ffbd0464bdb6813f423
:1001c800c07f15d0454b0c221a60424b444a5a60f6
:1001d8001a46936813f0010ffbd03e4b414a5a6010
:1001e8001a46936813f0010ffbd03f4b3f4a1a6041
:1001f800bff34f8fbff36f8f354cd4f8903223f095
:100208000103c4f89032d4f8943223f00103c4f8ff
:100218009432bff34f8fbff36f8f00f009fd344b5b
:1002280023f07f03a360334b9847636913f4003fbf
:1002380012d1bff34f8fbff36f8f0022c4f8502243
:10024800bff34f8fbff36f8f626942f40032626170
:10025800bff34f8fbff36f8f1d4b5b6913f4803f64
:100268002bd11b4b0022c3f88420bff34f8fd3f848
:100278008030c3f3c904c3f34e334fea431c43f63b
:10028800e07e13480cea0e01234641ea8372c0f867
:100298006022013bb3f1ff3ff7d1acf1200c1cf118
:1002a800200fefd1bff34f8f094a536943f48033ce
:1002b8005361bff34f8fbff36f8f0f4b98470f4baf
:1002c800984700f09afcfee7810e4000810e40003e
:1002d80000ed00e0000c0e400d00005aec08402034
:1002e8000c08005a0c07005a00180e40010000a51f
:1002f8000000400015094000810e4000810e4000ba
:020000040000fa
:020000040040ba
:10030800d00840201c0000000000000070084020b9
:100318006000000000000000ec084020040000001d
:1003280000000000f80840208000000001000000e4
:10033800001c0e400000000000000000000000004b
:1003480000000000000000000000000000000000a5
:100358000000000000000000000000000000000095
:100368000000000000000000000000000000000085
:100378000000000000000000000000000000000075
:100388000000000000000000000000000000000065
:10039800000000002004402020004020000400004d
:1003a8000004000000000000000000000000000041
:1003b800200040200008000000000000f008402055
:1003c8000400000000000000200840205000000049
:1003d80000000000f40840200400000000000000b5
:1003e80000000000000000006666666666666666d5
:020000040000fa
:020000040040ba
:1003f80000222c4bc3f814212b494ff4c0634b60e7
:100408006ff4c0630b604ff0ff334b650b66c1f8a8
:100418009030c1f8a0304ff4000008616ff400007c
:1004280048618a63c1f8182101f500710b604b65ba
:100438000b66c1f89030c1f8a0300a614b618a633d
:10044800c1f8182101f500710b604b650b66c1f806
:100458009030c1f8a0300a614b618a63c1f8182155
:1004680001f500714ff0a04048606ff0a0400860af
:100478004b650b66c1f89030c1f8a0300a614b613a
:100488008a63c1f8182101f500710b604b650b6692
:10049800c1f89030c1f8a0300a614b618a63c1f895
:0c04a8001821704700800840000e0e4034
:020000040000fa
:020000040040ba
:1004b40010b582b004460df1070000f045fc024679
:1004c40000284cd12378042b41d8dfe803f0030a39
:1004d400101c2f009df80730aa2becd101232370a8
:1004e400e9e79df80730237102232370e3e79df8c1
:1004f400073063710022a4f80c21934214bf032334
:1005040004232370d7e7b4f80c21531c9bb2a4f83e
:100514000c3122449df80710917162799a42cad82d
:100524000023a4f80c3104232370c4e7b4f80c317d
:10053400591ca4f80c1123449df8071083f80811e2
:10054400b4f80c31032bb6d90523237008e000233b
:100554002370a4f80c31c4f81031012200e0042205
:06056400104602b010bdbc
:020000040000fa
:020000040040ba
:10056a0030b583b004460268536913f0e00f04d132
:10057a0013f0010f1dd0051d22e0012380f875300c
:10058a00c36f0133c3674ff4807313600268536902
:10059a0013f0010f09d09369dbb28df807309df88b
:1005aa000730536913f0010ff5d1e023d3602268b5
:1005ba00936003b030bd23685b6913f0010ff8d074
:1005ca0023689969c9b2284600f0fbfa0028f2d1db
:0805da00a36f0133a367eee7f4
:020000040000fa
:020000040040ba
:0205e200fee732
:020000040000fa
:020000040040ba
:1005e40030b583b0144cb4f86c300093636e134a86
:1005f4000121201d00f050fbb4f870300093a36e6d
:100604000f4a022104f1340000f046fb002584f86f
:10061400745084f87550a567e5672146094800f0d1
:1006240017fc2146084800f00dfc084be1229a60b3
:10063400284603b030bd00bff8084020a40d400098
:10064400b00d40006b054000950b4000001c0e40af
:020000040000fa
:020000040040ba
:10065400174b184a9a621a46936e13f0020ffbd096
:10066400134a136b23f070031363936e13f0080f94
:10067400fbd00f4a136b23f4407343f4807313636a
:10068400936e13f0080ffbd0094a136b23f0030396
:1006940043f002031363936e13f0080ffbd0044b73
:1006a400054a1a614ff40052c3f80021704700bf95
:0c06b40000060e40013f1820801c0300cf
:020000040000fa
:020000040040ba
:1006c00038b5174b1b7d4bb3154b5c689b68154abf
:1006d000526912f0020f0fd09c420dd9104d1149f2
:1006e0002a68c869d25c0243ca6101334a6912f0c0
:1006f000020f01d09c42f3d8094a93609368a34249
:100700000cd3134600221a75064a4ff40071d160cb
:10071000db681bb1024b1869db68984738bd00bf26
:0807200070084020001c0e408f
:020000040000fa
:020000040040ba
:1007280038b5174b1b7d4bb3154b5c689b68154a56
:10073800526912f0020f0fd09c420dd9104d114989
:100748002a68c869d25c0243ca6101334a6912f057
:10075800020f01d09c42f3d8094a93609368a342e0
:100768000cd3134600221a75064a4ff40071d16063
:10077800db681bb1024b1869db68984738bd00bfbe
:08078800a008402000080e400b
:020000040000fa
:020000040040ba
:1007900038b5164b93f82c303bb3144bdc691b6a0d
:1007a000134a526912f0010f0dd09c420bd9104a26
:1007b0000e4d9069a969c8540133516911f0010fb8
:1007c00001d09c42f5d8094a1362136aa3420cd3a4
:1007d0001346002283f82c20054ae121d1605b6a90
:1007e0001bb1024b986a5b6a984738bd700840207d
:0407f000001c0e409b
:020000040000fa
:020000040040ba
:1007f40038b5164b93f82c303bb3144bdc691b6aa9
:10080400134a526912f0010f0dd09c420bd9104ac1
:100814000e4d9069a969c8540133516911f0010f53
:1008240001d09c42f5d8094a1362136aa3420cd33f
:100834001346002283f82c20054ae121d1605b6a2b
:100844001bb1024b986a5b6a984738bda0084020e8
:0408540000080e404a
:020000040000fa
:020000040040ba
:1008580008b5154b5b6913f0e00f0cd0124be12281
:10086800da60124b002283f82c205b6a1bb10f4b15
:10087800986a5b6a98470c4b5b6913f0010f05d1c6
:10088800094b5b6913f0020f07d108bdfff77cff26
:10089800064b986a5b6a9847f2e7fff70dff034b30
:1008a8001869db689847f0e7001c0e407008402084
:020000040000fa
:020000040040ba
:1008b800134bd96821f4e0610904090c114a0a4371
:1008c800da60bff35f8f62b60f4ae02182f8071340
:1008d8008020106082f82d134ff4005151605a6a3d
:1008e80042f480225a625a6942f010025a615a6ae6
:1008f80042f400325a625a6a42f480325a627047ad
:0c09080000ed00e00000fa0500e100e056
:020000040000fa
:020000040040ba
:100914000e4a38b5002313600d4a0e4c13600e4a7c
:100924000e4d13600e4a13600e4a13600e4a536252
:1009340013610123936000f0a4fa00f0a2faac4220
:1009440000d338bd54f8043b9847f8e7f408402036
:100954002c08402074014000280840207801400001
:0c096400200840202408402030084020db
:020000040000fa
:020000040040ba
:10097000024620b319b30b78013b042b21d8dfe8e2
:1009800003f00303050d0300002070474ff48203ba
:100990005360002090600123137070471378013b6f
:1009a000dbb2012b0fd84878536803445360497871
:1009b00093680b4493600223137000207047032058
:0a09c00070470120704701207047c6
:020000040000fa
:020000040040ba
:0209ca00fee746
:020000040000fa
:020000040040ba
:1009cc0008b5114b5b6913f0e00f0cd00e4be12214
:1009dc00da600e4b002283f82c205b6a1bb10b4ba8
:1009ec00986a5b6a9847084b5b6913f0010f05d155
:1009fc00054b5b6913f0020f03d108bdfff7f4fe42
:100a0c00f6e7fff78bfef8e700080e40a008402041
:020000040000fa
:020000040040ba
:100a1c0030b583b00446051d2846fff745fd08b1e7
:100a2c0003b030bd01a9284600f0e0f90028f7d149
:100a3c00012384f82c31019800f017fa18b92846d4
:100a4c0000f0f5f9ece7019904f58c70fff78affdb
:020a5c00f5e7bc
:020000040000fa
:020000040040ba
:020a5e00fee7b1
:020000040000fa
:020000040040ba
:100a600010b5054c237833b9044b13b10448aff3e8
:100a700000800123237010bdd0084020000000003a
:100a80000000000008b5034b1bb103490348aff356
:100a9000008008bd00000000d408402000000000d5
:020000040000fa
:020000040040ba
:100aa00030b40446481e07e010f8011f03f8011b8c
:100ab000551e39b12a461c462346002af4d1204649
:100ac00030bc7047a0183db103f8011b8342fbd135
:100ad000002cf4d130bc70471846002cefd1f9e758
:020000040000fa
:020000040040ba
:100ae0000c4b4ff486721a6050221a604ff4006269
:100af0005a6051221a62084b00229a61da611a6226
:100b000083f82c205a621a605a609a601a75da606b
:0c0b1000704700bf001c0e407008402021
:020000040000fa
:020000040040ba
:100b1c000c4b4ff486721a6050221a604ff400622c
:100b2c005a6051221a62084b00229a61da611a62e9
:100b3c0083f82c205a621a605a609a601a75da602f
:0c0b4c00704700bf00080e40a0084020c9
:020000040000fa
:020000040040ba
:100b5800f0b5002503462e46954207d313f003024d
:100b680018bf0122181a02eb9000f0bd1c7834b1ae
:100b780001f8014b01330135eee70e5501345f787a
:0c0b8800a742fadc214425440233e5e7d3
:020000040000fa
:020000040040ba
:100b940003685b6913f0020f00d1704710b582b08f
:100ba40004460df10701343000f08ef828b12368b3
:100bb4009df80720da6102b010bd23680222da60d2
:080bc400002384f87430f6e709
:020000040000fa
:020000040040ba
:100bcc00438d01339bb2028d9a4208bf0023828d64
:100bdc00bff35b8f92b29a4201d10020704710b4e0
:100bec00428d92b2446aa154bff35b8f43850120be
:060bfc005df8044b704798
:020000040000fa
:020000040040ba
:100c020000b5cfb0002000f030f84ff49872002108
:100c120002a800f0e6f84ff4fa630193fff7e1fc53
:100c220001a902a800f07ff802a8fff7f6fe202033
:060c320000f0abf8f8e74a
:020000040000fa
:020000040040ba
:100c380038b50a480a4d016821b9436813b900f06c
:100c48001df938bd0389426855f8233000f10c04ba
:100c58002046984704eb8000ede700bf08034000fa
:040c6800d00d40006b
:020000040000fa
:020000040040ba
:100c6c0008b500f0d5f8fff7effcfff7bffbfff777
:100c7c0031fffff74dff4ff40043044a5360a2f5d8
:100c8c0080725365fff712fe08bd00bf00190e40bd
:020000040000fa
:020000040040ba
:100c9c0070b504460e4611461d4640f8046b1f22e3
:100cac0000f0d8f8002284f823206562bdf81030db
:100cbc002385bff35b8f6285bff35b8fa28570bd0d
:020000040000fa
:020000040040ba
:100ccc00838d9bb2428dbff35b8f92b293420dd05a
:100cdc00426ad25c0a7001339bb2028d9a4208bf01
:100cec000023bff35b8f8385012070470020704782
:020000040000fa
:020000040040ba
:100cfc0000b583b000f05cf850b10df10701043081
:100d0c00fff7deff38b19df8070003b05df804fb78
:0c0d1c004ff0ff30f9e74ff0ff30f6e732
:020000040000fa
:020000040040ba
:100d280010b504460b6840f8043b00f07bf804f566
:100d38008c7000f097f80023c4f8283184f82c311f
:020d480010bddc
:020000040000fa
:020000040040ba
:020d4a00fee7c2
:020000040000fa
:020000040040ba
:100d4c0010b504460548fff7d3ffb0f1ff3f02d0c2
:100d5c002070002010bd0120fce700bf001c0e40dd
:020000040000fa
:020000040040ba
:100d6c0010b50023934206d113f0030018bf0120e5
:0e0d7c0000eb930010bdc45ccc540133f2e7d1
:020000040000fa
:020000040040ba
:020d8a00fee782
:020000040000fa
:020000040040ba
:100d8c00044b03fb00f0002300bf01338342fbdd67
:080d9c00704700bf40420f0048
:020000040000fa
:020000040040ba
:100da40055415254335f525800000000554152548b
:050db400335f545800fc
:020000040000fa
:020000040040ba
:020dba00fee752
:020000040000fa
:020000040040ba
:100dbc00034b1a6882420cbf18460020704700bfd4
:040dcc00f8084020c3
:020000040000fa
:020000040040ba
:100dd0000b0e40006d0d40007b0e40007b0e40006e
:040de000590b40006b
:020000040000fa
:020000040040ba
:100de40032b1c9b20244034603f8011b9a42fbd153
:040df400704700bf85
:020000040000fa
:020000040040ba
:100df8000378052b01d001207047043008600020db
:020e0800704731
:020000040000fa
:020000040040ba
:100e0a000a440023914201d10020704701f8013bb6
:020e1a00f8e7f7
:020000040000fa
:020000040040ba
:100e1c00014b024a1a607047000c0e400006000499
:020000040000fa
:020000040040ba
:0e0e2c0000230370a0f80c31c0f8103170479d
:020000040000fa
:020000040040ba
:0e0e3a0000230370a0f80c31c0f8103170478f
:020000040000fa
:020000040040ba
:0c0e4800014bd860196170477008402011
:020000040000fa
:020000040040ba
:0c0e5400014b5862996270477008402002
:020000040000fa
:020000040040ba
:0c0e600010b50446fff71cfe204610bd34
:020000040000fa
:020000040040ba
:0a0e6c00002303708360c360704729
:020000040000fa
:020000040040ba
:040e760001207047a0
:020000040000fa
:020000040040ba
:040e7a00002070479d
:020000040000fa
:020000040040ba
:020e7e00fee78d
:020000040000fa
:020000040040ba
:020e80007047b9
:020000040000fa
:020000040040ba
:020e82007047b7
:020000040000fa
:020000040040ba
:020e84007047b5
:020000040000fa
:020000040040ba
:020e86007047b3
:020000040000fa
:020000040040ba
:10bf00000100000001000000830e4000000040001e
:10bf100000c0000000c0400000401f000000000002
:10bf20000000000000000000000000000000000011
:10bf30000000000000000000000000000000000001
:10bf400000000000000000000000000000000000f1
:10bf500000000000000000000000000000000000e1
:10bf600000000000000000000000000000000000d1
:10bf700000000000000000000000000000000000c1
:10bf800000000000000000000000000000000000b1
:10bf900000000000000000000000000000000000a1
:10bfa0000000000000000000000000000000000091
:10bfb0000000000000000000000000000000000081
:10bfc0000000000000000000000000000000000071
:10bfd0000000000000000000000000000000000061
:10bfe0000000000000000000000000000000000051
:10bff0000000000000000000000000000000000041
:020000040000fa
:02000004d0002a
:0400000002000000fa
:00000001FF
