:020000040000fa
:020000040040ba
:10000000f0ff4520610a4000871b4000bf1d4000f3
:10001000d71f4000d91f4000db1f40000000000038
:10002000000000000000000000000000030d400080
:10003000cb1e400000000000030d4000030d4000f7
:10004000030d4000030d4000030d4000030d400070
:10005000030d4000030d4000030d400065184000f3
:10006000030d400000000000030d4000030d4000a0
:10007000030d4000030d4000030d4000030d400040
:10008000030d4000030d4000030d4000030d400030
:10009000030d4000030d4000030d4000030d400020
:1000a000030d4000030d4000030d4000030d400010
:1000b000030d4000030d4000030d4000030d400000
:1000c000030d4000030d4000030d4000030d4000f0
:1000d000030d4000030d4000030d4000030d4000e0
:1000e000030d4000030d4000030d4000030d4000d0
:1000f000030d4000ed164000030d4000030d4000cd
:10010000030d4000030d4000030d4000030d4000af
:10011000030d4000030d400000000000000000003f
:10012000030d4000030d4000030d4000030d40008f
:10013000030d4000030d400000000000030d4000cf
:10014000030d4000030d4000030d4000030d40006f
:10015000030d4000030d4000030d4000030d40005f
:08016000030d4000030d4000f7
:020000040000fa
:020000040040ba
:10016800f8b500bff8bc08bc9e467047051a4000a9
:10017800f8b500bff8bc08bc9e467047e1194000be
:020000040000fa
:020000040040ba
:1001880000000000b71dc1046e3b8209d926430d4b
:10019800dc7604136b6bc517b24d861a0550471ee3
:1001a800b8ed08260ff0c922d6d68a2f61cb4b2b83
:1001b800649b0c35d386cd310aa08e3cbdbd4f382b
:1001c80070db114cc7c6d0481ee09345a9fd5241cb
:1001d800acad155f1bb0d45bc2969756758b565263
:1001e800c836196a7f2bd86ea60d9b6311105a6703
:1001f80014401d79a35ddc7d7a7b9f70cd665e74ab
:10020800e0b6239857abe29c8e8da191399060950a
:100218003cc0278b8bdde68f52fba582e5e6648622
:10022800585b2bbeef46eaba3660a9b7817d68b342
:10023800842d2fad3330eea9ea16ada45d0b6ca06a
:10024800906d32d42770f3d0fe56b0dd494b71d98a
:100258004c1b36c7fb06f7c32220b4ce953d75caa2
:1002680028803af29f9dfbf646bbb8fbf1a679ffc2
:10027800f4f63ee143ebffe59acdbce82dd07decea
:1002880077708634c06d4730194b043dae56c5397a
:10029800ab0682271c1b4323c53d002e7220c12ab2
:1002a800cf9d8e1278804f16a1a60c1b16bbcd1fb2
:1002b80013eb8a01a4f64b057dd00808cacdc90cfa
:1002c80007ab9778b0b6567c69901571de8dd475fa
:1002d800dbdd936b6cc0526fb5e6116202fbd06632
:1002e800bf469f5e085b5e5ad17d1d576660dc5332
:1002f80063309b4dd42d5a490d0b1944ba16d8407a
:1003080097c6a5ac20db64a8f9fd27a54ee0e6a1b9
:100318004bb0a1bffcad60bb258b23b69296e2b271
:100328002f2bad8a98366c8e41102f83f60dee87f1
:10033800f35da9994440689d9d662b902a7bea94b9
:10034800e71db4e0500075e4892636e93e3bf7ed39
:100358003b6bb0f38c7671f7555032fae24df3fef1
:100368005ff0bcc6e8ed7dc231cb3ecf86d6ffcb71
:100378008386b8d5349b79d1edbd3adc5aa0fbd839
:10038800eee00c6959fdcd6d80db8e6037c64f6499
:100398003296087a858bc97e5cad8a73ebb04b7751
:1003a800560d044fe110c54b383686468f2b474211
:1003b8008a7b005c3d66c158e4408255535d4351d9
:1003c8009e3b1d252926dc21f0009f2c471d5e2819
:1003d800424d1936f550d8322c769b3f9b6b5a3bd1
:1003e80026d6150391cbd40748ed970afff0560e91
:1003f800faa011104dbdd014949b93192386521d59
:100408000e562ff1b94beef5606dadf8d7706cfc58
:10041800d2202be2653deae6bc1ba9eb0b0668ef90
:10042800b6bb27d701a6e6d3d880a5de6f9d64dad0
:100438006acd23c4ddd0e2c004f6a1cdb3eb60c918
:100448007e8d3ebdc990ffb910b6bcb4a7ab7db0d8
:10045800a2fb3aae15e6fbaaccc0b8a77bdd79a310
:10046800c660369b717df79fa85bb4921f46759650
:100478001a163288ad0bf38c742db081c330718598
:1004880099908a5d2e8d4b59f7ab085440b6c950e8
:1004980045e68e4ef2fb4f4a2bdd0c479cc0cd4300
:1004a800217d827b9660437f4f460072f85bc17660
:1004b800fd0b86684a16476c93300461242dc56588
:1004c800e94b9b115e565a1587701918306dd81c68
:1004d800353d9f0282205e065b061d0bec1bdc0f80
:1004e80051a69337e6bb52333f9d113e8880d03ae0
:1004f8008dd097243acd5620e3eb152d54f6d42908
:100508007926a9c5ce3b68c1171d2bcca000eac827
:10051800a550add6124d6cd2cb6b2fdf7c76eedbbf
:10052800c1cba1e376d660e7aff023ea18ede2ee9f
:100538001dbda5f0aaa064f4738627f9c49be6fd47
:1005480009fdb889bee0798d67c63a80d0dbfb84a7
:10055800d58bbc9a62967d9ebbb03e930cadff973f
:10056800b110b0af060d71abdf2b32a66836f3a21f
:100578006d66b4bcda7b75b8035d36b5b440f7b1c7
:020000040000fa
:020000040040ba
:100588002de9f047aeb00746164605914ff0000832
:10059800059d2b78002b00f0e08000244ff0ff33fe
:1005a800cde909430eab0c9380230b940d932b5d7f
:1005b8000bb1252b30d134b1294622463846254483
:1005c80001f0d4fb0595059b1a78252a40f0bc80dc
:1005d80003f10109cdf814904a46002113782b2b1a
:1005e800104602f1010223d02ed8202b24d0232b31
:1005f80026d001b105902a2b2ed001f0c9f9059a11
:100608000b900020114601320b78303b092b79d929
:10061800002830d005912ee00134c8e7099b43f04b
:10062800010309930121d9e7099b43f00203f8e785
:10063800099b43f00403f4e7099b43f00803f0e740
:10064800099b43f01003ece72d2be7d0302bebd0c0
:100658000029d2d00590d0e733681a1d1b68326094
:100668000130002b05900b9305da099a5b4282f062
:10067800010209920b93099bda0744bf23f0020396
:100688000993059b1a782e2a0fd14ff0000acdf84e
:1006980028a05a785d1c2a2a059535d1023305937e
:1006a80033681a1d1b6832600a9305a801f068fabe
:1006b800059d0390287801f053fc2528039900f044
:1006c800da806138172800f2e080172800f2dd8010
:1006d800dfe810f02b00db00b6004700a700a700fa
:1006e800a700db004700db00db00db00db009e002f
:1006f80065008300db00db00c700db005600db0081
:10070800db00740001207de7284601f041f95346db
:100718000a90294601350a78303a092a03d9002b6c
:10072800c3d00591c1e70123f3e7324606a801f0db
:1007380008fb002872d06b1c059306aa2b7809a920
:10074800384601f040fc04444444a04540f3a780e7
:10075800544b4f221a604ff0ff3840462eb0bde888
:10076800f0873346012206a800f0cefb002855d0ba
:10077800013506aa09a93846059501f022fce2e7e9
:100788003346002206a800f0bffb002846d00135fa
:1007980006aa09a93846059501f013fcd3e73346a4
:1007a800002206a800f0b0fb002837d0013506aac1
:1007b80009a93846059501f004fcc4e73346002230
:1007c80006a800f0a1fb48b36b1c05932b7806aa7a
:1007d80009a9384600f000fab5e733460022f021af
:1007e80006a800f091fbc8b1dde9063201351343d4
:1007f80005950bd12c4801f04dfb099b00932a4924
:100808000b9b0246384600f0e1fc9ce77823dee7c4
:10081800334608eb040206a800f0c6fd013505952d
:1008280092e7324606a801f08cfa0028f6d06b1c35
:10083800059306aa2b7809a9384601f0c4fb82e77c
:100848008029ebd1336801351a1d1b6832608df899
:1008580018300595012306aa09a9384601f0b5fb09
:1008680071e78029dad13268131d336001351268c7
:1008780005950023f0e78029d0d1099b0093013525
:100888000b9b059509490122bce700234ff0ff3275
:10089800cdf8149009930b930a920093f2e7a046bf
:1008a80076e600bf040b4020be1f4000c41f400076
:020000040000fa
:020000040040ba
:1008b8002de9f04385b00446051d284600f086fb67
:1008c80028b1584b1b7883bb05b0bde8f083694657
:1008d800284601f015fb0028f3d1012384f82431c0
:1008e800009800f0cdfea8b1009904f58a7000f0d8
:1008f80095fa38b979238df80430012101a801f05f
:10090800a5fa0ee01f238df80830012102a801f096
:100918009dfa06e01f238df80c30012103a801f091
:1009280095fa284601f015fbcbe73f4e3f4f37605d
:10093800dff818813e4c40233a464146204601f0f4
:1009480078fa4021204600f0d9ff102001f08afaf9
:1009580033685a699b691a44a2f58072354d2a603a
:1009680040234146204601f064fa4021204600f029
:10097800c5ff102001f076fa2a68402352692e49f3
:10098800204601f056fa4021204600f0b7ff10201b
:1009980001f068fa2b685b691a68dff8b490c9f847
:1009a800002040232549204601f043fa40212046f3
:1009b80000f0a4ff102001f055fa2b685b695a6813
:1009c800dff89080c8f8002040231d49204601f038
:1009d80030fa4021204600f091ff102001f042fa41
:1009e80072b63760174b2b60bff34f8fbff36f8f13
:1009f8002b685b6923f07f03134a9360bff34f8f23
:100a0800bff36f8f62b62b685b691a68c9f800205c
:100a180082f308885b68c8f800309847014b0022c9
:100a28001a7051e7080b4020f80a402000bf400028
:100a380020084020f40a4020881140009811400006
:100a4800b411400000ff5f0000ed00e068114000b5
:080a5800f00a4020ec0a4020e6
:020000040000fa
:020000040040ba
:100a600008b5514b9847514b9847eff3108172b638
:100a70004f4ad2f8883043f47003c2f88830bff38d
:100a80004f8fbff36f8f01b962b64a4b4a4a5a6023
:100a90001a46936813f0010ffbd0464bdb6813f442
:100aa000c07f15d0454b0c221a60424b444a5a6015
:100ab0001a46936813f0010ffbd03e4b414a5a602f
:100ac0001a46936813f0010ffbd03f4b3f4a1a6060
:100ad000bff34f8fbff36f8f354cd4f8903223f0b4
:100ae0000103c4f89032d4f8943223f00103c4f81f
:100af0009432bff34f8fbff36f8f01f097f8344bf1
:100b000023f07f03a360334b9847636913f4003fde
:100b100012d1bff34f8fbff36f8f0022c4f8502262
:100b2000bff34f8fbff36f8f626942f4003262618f
:100b3000bff34f8fbff36f8f1d4b5b6913f4803f83
:100b40002bd11b4b0022c3f88420bff34f8fd3f867
:100b50008030c3f3c904c3f34e334fea431c43f65a
:100b6000e07e13480cea0e01234641ea8372c0f886
:100b70006022013bb3f1ff3ff7d1acf1200c1cf137
:100b8000200fefd1bff34f8f094a536943f48033ed
:100b90005361bff34f8fbff36f8f0f4b98470f4bce
:100ba000984701f028f8fee7dd1f4000dd1f4000f8
:100bb00000ed00e0000c0e400d00005ae80a402055
:100bc0000c08005a0c07005a00180e40010000a53e
:100bd0000000400009184000dd1f4000dd1f4000fc
:020000040000fa
:020000040040ba
:100be0002de9f04f8bb00d460493d1e901132f6826
:100bf000d5f80c9003900029a8bf27f00207924671
:100c0000b8bf012117f010020592dae9006232d074
:100c100056ea02002fd0a3f1020b2c69029617f0be
:100c2000080004f1ff3418bf0bf1ff3b904600228f
:100c300009f8042006905a46012c1edc059a002a69
:100c400051d1069a1ab1013c202209f804202a69e0
:100c500003980097013a121b09eb040100f0bafa5d
:100c6000039b5b68db0503d56b689842b8bf1846e9
:100c70000bb0bde8f08f9b46cfe7029850ea080022
:100c800008d1a1eb0b001044002803dc002ad5ddbd
:100c9000b807d3d50298049e00f00f000928a6f1ea
:100ca000410cd4bf30305730bcf1190f04f1ff3480
:100cb0000ed840f0200cacf1610cbcf1190f07d834
:100cc000cde90813079201f056f9dde90813079af8
:100cd00009f804000298060946ea0870013a0290f1
:100ce0004fea1818a8e7dae900210a43a9d009eb6e
:100cf0000402049902f8011c023c302209f8042085
:020d00009fe76b
:020000040000fa
:020000040040ba
:020d0200fee70a
:020000040000fa
:020000040040ba
:100d0400c80a40202000000000000000680a4020bb
:100d14006000000000000000e80a40200400000019
:100d2400000000000c0b40208000000001000000c7
:100d3400001c0e4000000000000000000000000045
:100d4400000000000000000000000000000000009f
:100d5400000000000000000000000000000000008f
:100d6400000000000000000000000000000000007f
:100d7400000000000000000000000000000000006f
:100d8400000000000000000000000000000000005f
:100d94000000000020044020200040200004000047
:100da400000400000000000000000000000000003b
:100db400200040200008000000000000200940201e
:100dc400f800000000000000080b402001000000b3
:100dd4000000000020084020000100000000000086
:100de400ec0a40201000000000000000fc0a402033
:100df4000400000000000000180a40205000000019
:100e040000000000000b402008000000000000006b
:100e1400000000000000000066666666666666669e
:020000040000fa
:020000040040ba
:100e240070b582b0002859d00b460546002955d02c
:100e34000a78013a042a55d8dfe802f00330051194
:100e44004b0000244be0fa212d4800f04fff0446ec
:100e5400002849d100236b6001232b703fe0027806
:100e6400013ad2b2012a41d85a78032a40d9d3f898
:100e74000200043a96b2224a90423bd33218b2f5a9
:100e8400c00f39d83246991d00f05efc0446a8bb59
:100e94006b6833446b6002232b7020e05a78032a7a
:100ea40001d803241be0f8221649d3f8020001f00c
:100eb40043f8044608b1012411e079238df8043085
:100ec400012101a800f0c4fff8210e4800f0c0ff82
:100ed40005e00d4b01221a70002400e00324204693
:100ee40002b070bd0124fae70124f8e70124f6e713
:100ef4000324f4e70324f2e70324f0e70124eee7f4
:0c0f040000c0400020094020080b4020e5
:020000040000fa
:020000040040ba
:100f1000902910b50fdc7f2913dd8039102910d8f6
:100f2000dfe801f02b2b360f110f0f0f200f0f0fe3
:100f30000f0f0f0f3600c02944d0f02942d0a0294e
:100f400021d000200de019682ab10a1d1a60b1f9fc
:100f50000030da1702e00c1d1c600b88c0e900327b
:100f6000012010bd196822b10a1d1a6091f90030e4
:100f7000efe70c1d1c600b78f0e71968f2b10a1d51
:100f80001a600b68e5e71a68111d19601368e0e73d
:100f9000196852b1073121f0070101f108021a6006
:100fa000d1e90023c0e90023dae7ca1d22f00702d5
:100fb00002f108011960d2e90023f3e70c1d1c605f
:100fc0000b68cbe71a68111d1960136803600023d2
:040fd0004360c5e7ce
:020000040000fa
:020000040040ba
:100fd40010b582b004460df1070000f0fffe024692
:100fe400002851d12378042b46d8dfe803f0030a04
:100ff400102134009df80730aa2becd10123237073
:10100400e9e79df80730237102232370e3e79df895
:101014000730fc2b02d906232370dce7637100221e
:10102400a4f80821934214bf032304232370d2e7b6
:10103400b4f80821531c9bb2a4f8083122449df84b
:101044000710917162799a42c5d80023a4f8083137
:1010540004232370bfe7b4f80831591ca4f808111d
:1010640023449df8071083f80411b4f80831032bc6
:10107400b1d90523237008e000232370a4f80831b4
:10108400c4f80c31012200e00422104602b010bd65
:020000040000fa
:020000040040ba
:1010940000222c4bc3f814212b494ff4c0634b603e
:1010a4006ff4c0630b604ff0ff334b650b66c1f800
:1010b4009030c1f8a0304ff4000008616ff40000d4
:1010c40048618a63c1f8182101f500710b604b6512
:1010d4000b66c1f89030c1f8a0300a614b618a6395
:1010e400c1f8182101f500710b604b650b66c1f85e
:1010f4009030c1f8a0300a614b618a63c1f81821ad
:1011040001f500714ff0a04048606ff0a040086006
:101114004b650b66c1f89030c1f8a0300a614b6191
:101124008a63c1f8182101f500710b604b650b66e9
:10113400c1f89030c1f8a0300a614b618a63c1f8ec
:0c1144001821704700800840000e0e408b
:020000040000fa
:020000040040ba
:1011500055415254335f52580000000055415254db
:10116000335f5458000000007043757272656e74ee
:101170004170706c69636174696f6e446174613a47
:101180002025580a000000005343422d3e56544f7c
:10119000523a2025580a0000753332537461636b4c
:1011a000506f696e74657256616c75653a2025588a
:1011b0000a00000066704170706c69636174696f49
:1011c0006e526573657448616e646c65723a202571
:0311d000580a00ba
:020000040000fa
:020000040040ba
:1011d4002de9ff471d460c9b13f0010806460f46f8
:1011e400144601d195420bd822463946304600f0c8
:1011f400bffda54204d82546284604b0bde8f087c3
:10120400a5eb04094a46102a28bf1022202168466b
:10121400ca4600f06dfe00bfbaf10f0f0ed809f0f8
:101224000f026946304600f0a3fdb8f1000fe3d188
:1012340022463946304600f09bfddde71022694620
:0c124400304600f095fdaaf1100ae5e725
:020000040000fa
:020000040040ba
:1012500000b5a1f5800e4fea5e2e00f1100c03469a
:10126000081a1a681a5004336345fad1114b5b69a6
:1012700013f4803f11d001f01f02bff34f8f0b46d4
:101280000c4810310a44c0f868322033d11a0029c2
:10129000f9dcbff34f8fbff36f8f074a02ea0e22cc
:1012a000064b1343064a5360064b00221a60012086
:1012b0005df804fb00ed00e000ffff000100005ab4
:0812c000000c0e40e40a40207e
:020000040000fa
:020000040040ba
:1012c80030b583b004460268536913f0e00f04d1c7
:1012d80013f0010f1dd0051d22e0012380f87530a1
:1012e800c36f0133c3674ff4807313600268536997
:1012f80013f0010f09d09369dbb28df807309df820
:101308000730536913f0010ff5d1e023d360226849
:10131800936003b030bd23685b6913f0010ff8d008
:1013280023689969c9b2284600f046fc0028f2d122
:08133800a36f0133a367eee788
:020000040000fa
:020000040040ba
:1013400030b583b0144cb4f86c300093636e134a1c
:101350000121201d00f09cfcb4f870300093a36eb6
:101360000f4a022104f1340000f092fc002584f8b9
:10137000745084f87550a567e5672146094800f068
:1013800007fe2146084800f0fdfd084be1229a6067
:10139000284603b030bd00bf0c0b40205011400068
:1013a0005c114000c91240004f1b4000001c0e4061
:020000040000fa
:020000040040ba
:1013b000902910b50fdc7f2911dd803910290ed856
:1013c000dfe801f00f0f250d170d0d0d1e0d0d0d92
:1013d0000d0d0d0d2500a02903d0c02901d000203e
:1013e00006e019680c1d1c600b6803601a60012080
:1013f00010bd19680c1d1c600b6803601a80f6e7ad
:1014000019680c1d1c600b6803601a70efe71968ff
:101410000c1d1c600b680360d117c3e90021e6e7cf
:020000040000fa
:020000040040ba
:10142000174b184a9a621a46936e13f0020ffbd0bc
:10143000134a136b23f070031363936e13f0080fba
:10144000fbd00f4a136b23f4407343f48073136390
:10145000936e13f0080ffbd0094a136b23f00303bc
:1014600043f002031363936e13f0080ffbd0044b99
:10147000054a1a614ff40052c3f80021704700bfbb
:0c14800000060e40013f1820801c0300f5
:020000040000fa
:020000040040ba
:10148c0038b5174b1b7d4bb3154b5c689b68154ae5
:10149c00526912f0020f0fd09c420dd9104d114918
:1014ac002a68c869d25c0243ca6101334a6912f0e6
:1014bc00020f01d09c42f3d8094a93609368a3426f
:1014cc000cd3134600221a75064a4ff40071d160f2
:1014dc00db681bb1024b1869db68984738bd00bf4d
:0814ec00680a4020001c0e40bc
:020000040000fa
:020000040040ba
:1014f40038b5174b1b7d4bb3154b5c689b68154a7d
:10150400526912f0020f0fd09c420dd9104d1149af
:101514002a68c869d25c0243ca6101334a6912f07d
:10152400020f01d09c42f3d8094a93609368a34206
:101534000cd3134600221a75064a4ff40071d16089
:10154400db681bb1024b1869db68984738bd00bfe4
:08155400980a402000080e4037
:020000040000fa
:020000040040ba
:10155c0010b4144b5b6913f4803f12d000f01f02df
:10156c00bff34f8f03460f4c00f500511144c4f8e4
:10157c005c322033ca1a002af9dcbff34f8fbff359
:10158c006f8fa0f58000c0f34f200002064b034381
:10159c00064a5360064b00221a6001205df8044b8a
:1015ac00704700bf00ed00e00702005a000c0e402f
:0415bc00e40a4020dd
:020000040000fa
:020000040040ba
:1015c00038b5164b93f82c303bb3144bdc691b6acf
:1015d000134a526912f0010f0dd09c420bd9104ae8
:1015e0000e4d9069a969c8540133516911f0010f7a
:1015f00001d09c42f5d8094a1362136aa3420cd366
:101600001346002283f82c20054ae121d1605b6a51
:101610001bb1024b986a5b6a984738bd680a402044
:04162000001c0e405c
:020000040000fa
:020000040040ba
:1016240038b5164b93f82c303bb3144bdc691b6a6a
:10163400134a526912f0010f0dd09c420bd9104a83
:101644000e4d9069a969c8540133516911f0010f15
:1016540001d09c42f5d8094a1362136aa3420cd301
:101664001346002283f82c20054ae121d1605b6aed
:101674001bb1024b986a5b6a984738bd980a4020b0
:0416840000080e400c
:020000040000fa
:020000040040ba
:1016880070b582b0451e034613f8016f1e444ff033
:10169800ff314ff0000e0df1080c114c01e0b5427e
:1016a80015d015f8013f8df804e08df805e08df8a8
:1016b80006e08df8073001aa12f8013b83ea1163ae
:1016c80054f8233083ea01216245f5d1e7e7d0f8e1
:1016d8000001884214bf0020012002b070bd00bf85
:0416e8008801400035
:020000040000fa
:020000040040ba
:1016ec0008b5154b5b6913f0e00f0cd0124be122df
:1016fc00da60124b002283f82c205b6a1bb10f4b73
:10170c00986a5b6a98470c4b5b6913f0010f05d123
:10171c00094b5b6913f0020f07d108bdfff74affb5
:10172c00064b986a5b6a9847f2e7fff7a9fe034bf2
:10173c001869db689847f0e7001c0e40680a4020e7
:020000040000fa
:020000040040ba
:10174c0062b32de9f04385b00746894690466e4654
:10175c0027f00f0407f00f0594e80f0086e80f0040
:10176c002846c5f11005454528bf45462a46494639
:10177c00304400f081fb21463046fff763fd48b151
:10178c0000f018fb0028fbd12f44a944b8eb050846
:10179c00ded100e0012005b0bde8f08300207047e9
:020000040000fa
:020000040040ba
:1017ac00134bd96821f4e0610904090c114a0a436e
:1017bc00da60bff35f8f62b60f4ae02182f807133d
:1017cc008020106082f82d134ff4005151605a6a3a
:1017dc0042f480225a625a6942f010025a615a6ae3
:1017ec0042f400325a625a6a42f480325a627047aa
:0c17fc0000ed00e00000fa0500e100e054
:020000040000fa
:020000040040ba
:101808000e4a38b5002313600d4a0e4c13600e4a79
:101818000e4d13600e4a13600e4a13600e4a53624f
:1018280013610123936000f0d8fb00f0d6fbac42b3
:1018380000d338bd54f8043b9847f8e7000b402024
:10184800240a402074014000200a4020780140000a
:0c185800180a40201c0a4020280a4020ea
:020000040000fa
:020000040040ba
:1018640008b5114b5b6913f0e00f0cd00e4be1226d
:10187400da600e4b002283f82c205b6a1bb10b4b01
:10188400986a5b6a9847084b5b6913f0010f05d1ae
:10189400054b5b6913f0020f03d108bdfff7c0fecf
:1018a400f6e7fff725fef8e700080e40980a402007
:020000040000fa
:020000040040ba
:1018b40010b54ff0ff3c88b00c4611461a464ff461
:1018c4008173cde901c300b96846cde9030454b17d
:1018d400631e002c059308da084b4f221a604ff060
:1018e400ff3008b010bd2346f3e70023cde906001e
:1018f400037001a800f091faf3e700bf040b402045
:020000040000fa
:020000040040ba
:10190400d8b1104b1b7dd3b90e4b18605960002120
:101914009960012119750c4b5b6913f0020f06d015
:101924000278094bda61074a93680b449360064bcb
:101934004ff400729a600120704700207047002025
:0c194400704700bf680a4020001c0e40e5
:020000040000fa
:020000040040ba
:101950002de9f041e1b116460d46cab100f0b6fae4
:101960008046b8b1013d002400f1340715f8011f8d
:10197000384600f025f930b10134a642f6d8404689
:1019800000f0c8f801e0002cf9d12046bde8f08154
:081990000024fae70024f8e747
:020000040000fa
:020000040040ba
:101998000278202a034600f10100f9d0a2f10901da
:1019a8000429f5d92b2a06d02d2a13d10121013378
:1019b800013b002006e00021f9e700bf00eb8000b2
:1019c800c2eb400013f8012f303a092af6d901b9c1
:0819d800404270470021ebe7db
:020000040000fa
:020000040040ba
:1019e00010b5054c237833b9044b13b10448aff359
:1019f00000800123237010bdc80a402000000000b1
:101a00000000000008b5034b1bb103490348aff3c6
:101a1000008008bd00000000cc0a4020000000004b
:020000040000fa
:020000040040ba
:101a200030b40446481e07e010f8011f03f8011bfc
:101a3000551e39b12a461c462346002af4d12046b9
:101a400030bc7047a0183db103f8011b8342fbd1a5
:101a5000002cf4d130bc70471846002cefd1f9e7c8
:020000040000fa
:020000040040ba
:101a60000c4b4ff486721a6050221a604ff40062d9
:101a70005a6051221a62084b00229a61da611a6296
:101a800083f82c205a621a605a609a601a75da60dc
:0c1a9000704700bf001c0e40680a402098
:020000040000fa
:020000040040ba
:101a9c000c4b4ff486721a6050221a604ff400629d
:101aac005a6051221a62084b00229a61da611a625a
:101abc0083f82c205a621a605a609a601a75da60a0
:0c1acc00704700bf00080e40980a402040
:020000040000fa
:020000040040ba
:101ad800f0b5002503462e46954207d313f00302be
:101ae80018bf0122181a02eb9000f0bd1c7834b11f
:101af80001f8014b01330135eee70e5501345f78eb
:0c1b0800a742fadc214425440233e5e743
:020000040000fa
:020000040040ba
:101b140090f8743003b1704710b582b004460df1eb
:101b24000701343000f0caf868b1012384f8743036
:101b340023685a6912f0020f02d09df80720da6177
:0a1b4400236802229a6002b010bd6f
:020000040000fa
:020000040040ba
:101b4e0003685b6913f0020f00d1704710b582b0c5
:101b5e0004460df10701343000f0abf828b12368cc
:101b6e009df80720da6102b010bd23680222da6008
:081b7e00002384f87430f6e73f
:020000040000fa
:020000040040ba
:021b8600fee778
:020000040000fa
:020000040040ba
:101b880030b50c4a0146002012f810301bb902eba0
:101b98004002507830bd0c6825789d4209bf02eba1
:101ba8004003431c5878013414bfd8b20c600a288b
:081bb800ead9efe7b41e40007a
:020000040000fa
:020000040040ba
:101bc000438d01339bb2028d9a4208bf0023828d60
:101bd000bff35b8f92b29a4201d10020704710b4dc
:101be000428d92b2446aa154bff35b8f43850120ba
:061bf0005df8044b704794
:020000040000fa
:020000040040ba
:101bf60000b5cdb0002000f030f84ff4947200210b
:101c060002a800f074f94ff4fa630193fff795fb0d
:101c160001a902a800f0bff802a8fef74afe20209c
:061c260000f021f9f8e7cf
:020000040000fa
:020000040040ba
:101c2c0038b50a480a4d016821b9436813b900f068
:101c3c00d1f938bd0389426855f8233000f10c0402
:101c4c002046984704eb8000ede700bf040d4000f0
:041c5c00e01e400046
:020000040000fa
:020000040040ba
:101c600008b500f063f9fff7dbfbfff713fafff7a6
:101c7000f7fefff713ff4ff40043044a5360a2f549
:101c800080725365fff792fd08bd00bf00190e403a
:020000040000fa
:020000040040ba
:101c900070b504460e4611461d4640f8046b1f22df
:101ca00000f07cf9002284f823206562bdf8103032
:101cb0002385bff35b8f6285bff35b8fa28570bd09
:020000040000fa
:020000040040ba
:101cc000838d9bb2428dbff35b8f92b293420dd056
:101cd000426ad25c0a7001339bb2028d9a4208bffd
:101ce0000023bff35b8f838501207047002070477e
:020000040000fa
:020000040040ba
:101cf00089b170b504460e4600252046fff72efc3c
:101d000058b100f05df80028fbd104f5005401350e
:0e1d1000ae42f2d102e000207047012070bd0b
:020000040000fa
:020000040040ba
:101d1e0000b583b000f0d3f850b10df107010430d7
:101d2e00fff7c7ff38b19df8070003b05df804fb5d
:0c1d3e004ff0ff30f9e74ff0ff30f6e700
:020000040000fa
:020000040040ba
:101d4a00812903dc7f2903dc002070478329fbd12a
:101d5a001368073323f0070303f108011160d3e97d
:0a1d6a000023c0e9002301207047a8
:020000040000fa
:020000040040ba
:101d740038b503699a4228bf1a460446154652b13b
:101d8400406900f07df8636922692b44521b22618b
:081d9400002263611a7038bde2
:020000040000fa
:020000040040ba
:101d9c0010b504460b6840f8043b00f0d1f804f58c
:101dac008a7000f001f90023c4f8203184f8243142
:021dbc0010bd58
:020000040000fa
:020000040040ba
:021dbe00fee73e
:020000040000fa
:020000040040ba
:101dc000054b9868054b1a681043186080f00100b5
:101dd00000f00100704700bf000c0e40e40a4020f4
:020000040000fa
:020000040040ba
:101de00010b504460548fff79affb0f1ff3f02d057
:101df0002070002010bd0120fce700bf001c0e4039
:020000040000fa
:020000040040ba
:101e000010b50023934206d113f0030018bf012040
:0e1e100000eb930010bdc45ccc540133f2e72c
:020000040000fa
:020000040040ba
:101e1e0013b50446019201aafef7affb636813f0f7
:0c1e2e00100f18bf4ff0ff3002b010bdc5
:020000040000fa
:020000040040ba
:101e3a000eb403b503aa52f8041b019200f0aff8de
:0a1e4a0002b05df804eb03b070472e
:020000040000fa
:020000040040ba
:101e540008b50a4601460348fff778fdb0fa80f05a
:081e6400400908bd001c0e40fe
:020000040000fa
:020000040040ba
:101e6c00044b03fb00f0002300bf01338342fbdd76
:081e7c00704700bf40420f0057
:020000040000fa
:020000040040ba
:101e84004ab1431e84460a4411f8010b03f8010fba
:081e94009142f9d1604670474c
:020000040000fa
:020000040040ba
:101e9c0003783bb1034600bf13f8012f002afbd196
:081eac00181a70471846704730
:020000040000fa
:020000040040ba
:101eb40068076c094c836a9074a07ac000806888b3
:061ec40000846c82008125
:020000040000fa
:020000040040ba
:021eca00fee731
:020000040000fa
:020000040040ba
:101ecc00034b1a6882420cbf18460020704700bfb3
:041edc000c0b40208b
:020000040000fa
:020000040040ba
:101ee0001b1f4000011e4000c71f4000c71f4000cd
:041ef000d91a4000bb
:020000040000fa
:020000040040ba
:101ef40032b1c9b20244034603f8011b9a42fbd132
:041f0400704700bf63
:020000040000fa
:020000040040ba
:101f08000378052b01d001207047043008600020b9
:021f1800704710
:020000040000fa
:020000040040ba
:101f1a000a440023914201d10020704701f8013b95
:021f2a00f8e7d6
:020000040000fa
:020000040040ba
:101f2c00014b024a1a607047000c0e400006000478
:020000040000fa
:020000040040ba
:101f3c0008b50b4601461846fff79eff002008bd6a
:020000040000fa
:020000040040ba
:0e1f4c0000230370a0f80831c0f80c31704774
:020000040000fa
:020000040040ba
:0e1f5a0000230370a0f80831c0f80c31704766
:020000040000fa
:020000040040ba
:0e1f6800a0f14103192b98bf40f020007047f4
:020000040000fa
:020000040040ba
:0e1f7600a0f16103192b98bf00f05f007047c7
:020000040000fa
:020000040040ba
:0c1f8400014bd86019617047680a4020ca
:020000040000fa
:020000040040ba
:0c1f9000014b586299627047680a4020bb
:020000040000fa
:020000040040ba
:0c1f9c0010b50446fff73efd204610bdc6
:020000040000fa
:020000040040ba
:0c1fa80013460a466ff00041fff780bcb2
:020000040000fa
:020000040040ba
:0a1fb4000023037043608360704750
:020000040000fa
:020000040040ba
:081fbe00286e696c2900250062
:020000040000fa
:020000040040ba
:041fc6000020704740
:020000040000fa
:020000040040ba
:041fca00002070473c
:020000040000fa
:020000040040ba
:041fce000020704738
:020000040000fa
:020000040040ba
:041fd2000020704734
:020000040000fa
:020000040040ba
:021fd600fee724
:020000040000fa
:020000040040ba
:021fd800fee722
:020000040000fa
:020000040040ba
:021fda00fee720
:020000040000fa
:020000040040ba
:021fdc0070474c
:020000040000fa
:020000040040ba
:021fde0070474a
:020000040000fa
:020000040040ba
:021fe000704748
:020000040000fa
:020000040040ba
:021fe200704746
:020000040000fa
:020000040040ba
:10bf00000100000001000000df1f400000004000b1
:10bf100000c0000000c0400000401f000000000002
:10bf20000000000000000000000000000000000011
:10bf30000000000000000000000000000000000001
:10bf400000000000000000000000000000000000f1
:10bf500000000000000000000000000000000000e1
:10bf600000000000000000000000000000000000d1
:10bf700000000000000000000000000000000000c1
:10bf800000000000000000000000000000000000b1
:10bf900000000000000000000000000000000000a1
:10bfa0000000000000000000000000000000000091
:10bfb0000000000000000000000000000000000081
:10bfc0000000000000000000000000000000000071
:10bfd0000000000000000000000000000000000061
:10bfe0000000000000000000000000000000000051
:10bff0000000000000000000000000000000000041
:020000040000fa
:02000004d0002a
:0400000002000000fa
:00000001FF
