:020000040000fa
:020000040040ba
:10000000f8ff45208909400057174000a717400016
:10001000f1174000f3174000f51740000000000002
:1000200000000000000000000000000083164000f7
:10003000eb174000000000008316400083164000cc
:10004000831640008316400083164000831640004c
:1000500083164000831640008316400011134000b1
:100060008316400000000000831640008316400005
:10007000831640008316400083164000831640001c
:10008000831640008316400083164000831640000c
:1000900083164000831640008316400083164000fc
:1000a00083164000831640008316400083164000ec
:1000b00083164000831640008316400083164000dc
:1000c00083164000831640008316400083164000cc
:1000d00083164000831640008316400083164000bc
:1000e00083164000831640008316400083164000ac
:1000f00083164000c1124000831640008316400062
:10010000831640008316400083164000831640008b
:10011000831640008316400000000000000000002d
:10012000831640008316400083164000831640006b
:100130008316400083164000000000008316400034
:10014000831640008316400083164000831640004b
:10015000831640008316400083164000831640003b
:080160008316400083164000e5
:020000040000fa
:020000040040ba
:10016800f8b500bff8bc08bc9e467047691440004b
:10017800f8b500bff8bc08bc9e467047451440005f
:020000040000fa
:020000040040ba
:08018800380300000100000033
:020000040000fa
:020000040040ba
:100190002de9f047aeb00746164605914ff000082e
:1001a000059d2b78002b00f0e08000244ff0ff33fa
:1001b000cde909430eab0c9380230b940d932b5d7b
:1001c0000bb1252b30d134b129462246384625447f
:1001d00001f043fa0595059b1a78252a40f0bc806a
:1001e00003f10109cdf814904a46002113782b2b16
:1001f000104602f1010223d02ed8202b24d0232b2d
:1002000026d001b105902a2b2ed001f0f7f8059adf
:100210000b900020114601320b78303b092b79d925
:10022000002830d005912ee00134c8e7099b43f047
:10023000010309930121d9e7099b43f00203f8e781
:10024000099b43f00403f4e7099b43f00803f0e73c
:10025000099b43f01003ece72d2be7d0302bebd0bc
:100260000029d2d00590d0e733681a1d1b68326090
:100270000130002b05900b9305da099a5b4282f05e
:10028000010209920b93099bda0744bf23f0020392
:100290000993059b1a782e2a0fd14ff0000acdf84a
:1002a00028a05a785d1c2a2a059535d1023305937a
:1002b00033681a1d1b6832600a9305a801f03cf9e7
:1002c000059d0390287801f077fa2528039900f01e
:1002d000da806138172800f2e080172800f2dd800c
:1002e000dfe810f02b00db00b6004700a700a700f6
:1002f000a700db004700db00db00db00db009e002b
:1003000065008300db00db00c700db005600db007c
:10031000db00740001207de7284601f06ff85346aa
:100320000a90294601350a78303a092a03d9002b68
:10033000c3d00591c1e70123f3e7324606a801f0d7
:1003400077f9002872d06b1c059306aa2b7809a9af
:10035000384601f046fa04444444a04540f3a780df
:10036000544b4f221a604ff0ff3840462eb0bde884
:10037000f0873346012206a800f0c6fb002855d0be
:10038000013506aa09a93846059500f07dfce2e78b
:100390003346002206a800f0b7fb002846d00135fe
:1003a00006aa09a93846059501f019fad3e733469c
:1003b000002206a800f0a8fb002837d0013506aac5
:1003c00009a93846059501f00afac4e73346002228
:1003d00006a800f099fb48b36b1c05932b7806aa7e
:1003e00009a9384601f0fdf9b5e733460022f021ae
:1003f00006a800f089fbc8b1dde9063201351343d8
:1004000005950bd12c4801f08ff9099b00932a49df
:100410000b9b0246384600f011fd9ce77823dee78f
:10042000334608eb040206a800f082fd013505956d
:1004300092e7324606a801f0fbf80028f6d06b1cc4
:10044000059306aa2b7809a9384601f0caf982e774
:100450008029ebd1336801351a1d1b6832608df895
:1004600018300595012306aa09a9384601f0bbf901
:1004700071e78029dad13268131d336001351268c3
:1004800005950023f0e78029d0d1099b0093013521
:100490000b9b059509490122bce700234ff0ff3271
:1004a000cdf8149009930b930a920093f2e7a046bb
:1004b00076e600bf3c014020d2174000d81740002c
:020000040000fa
:020000040040ba
:1004c0002de9f04786468c460846089e1546744638
:1004d0001946002b40f0c2808242b2fa82f245d91e
:1004e0004ab1c2f1200300fa02fc2efa03f3954050
:1004f00043ea0c0c94404fea154ea8b2bcfbfef840
:10050000230c0efb18cc08fb00f943ea0c43994579
:1005100028d9eb1808f1ff3704d2994502d9a8f180
:1005200002072b44a3eb0903a4b2b3fbfefc0efbb2
:100530001c330cfb00f044ea0344a04214d92c19ec
:100540000cf1ff3304d2a04202d9acf102032c44d7
:10055000241a43ea07401eb1d4400023346073607c
:10056000bde8f0874746dde76346f1e792bb431bf2
:1005700001214fea154eafb2b3fbfefc200c0efb7f
:100580001c330cfb07f840ea0343984562d9eb188b
:100590000cf1ff3004d2984502d9acf102002b4493
:1005a000a3eb0803a4b2b3fbfefc0efb1c330cfb55
:1005b00007f744ea0344a7424ed92c190cf1ff3344
:1005c00004d2a74202d9acf102032c44e41b43ea53
:1005d0000040c0e7c2f1200320fa03f195409040ab
:1005e0002efa03f303434fea154eafb2b1fbfefc04
:1005f0000efb1c10190c0cfb07f841ea0041884562
:1006000004fa02f422d969180cf1ff3004d28845ab
:1006100002d9acf102002944a1eb08019bb2b1fb65
:10062000fefc0efb1c110cfb07f743ea01439f4243
:100630000ed9eb180cf1ff3104d29f4202d9acf174
:1006400002012b44db1b41ea004192e76046e3e7ed
:100650006146f7e76046a3e76346b7e7834206d9fa
:1006600016b9002108467be7c6e900e0f9e7b3face
:1006700083f78fb9834201d3724508d8beeb0204d9
:1006800060eb030301209c461eb9002168e7384651
:10069000fae7c6e9004cf8e7c7f1200cbb4022faa4
:1006a0000cf41c432efa0cf120fa0cf3b840014371
:1006b0004fea14490efa07f5b3fbf9f81ffa84fe66
:1006c00009fb18300b0c08fb0efa43ea00439a456d
:1006d00002fa07f240d9e31808f1ff3004d29a4534
:1006e00002d9a8f102002344a3eb0a0389b2b3fba9
:1006f000f9f809fb183308fb0efe41ea03418e4569
:100700002cd9611808f1ff3304d28e4502d9a8f123
:100710000203214443ea0040a0fb0298a1eb0e0132
:100720004145ce46434602d306d14d4504d2b9ebee
:10073000020e68eb04030138002ea6d0b5eb0e02c2
:1007400061eb030101fa0cfc22fa07f34cea030304
:10075000f940c6e9003198e74046c5e74346d9e786
:020000040000fa
:020000040040ba
:100760002de9f843002000f01dff814f814c824da0
:10077000824e02e0402000f0bfff0d21384600f01d
:1007800017febff34f8fbff36f8f636923f40033fe
:1007900063610023c4f85032bff34f8fbff36f8ff4
:1007a000c4f88430bff34f8f636923f480336361ef
:1007b000bff34f8fd4f88030c3f3c90ec3f34e3369
:1007c000580143f6e07c00ea0c01734641ea83726b
:1007d000c4f87422013bb3f1ff3ff7d1203810f188
:1007e000200ff0d1bff34f8fbff36f8f00f04affa0
:1007f0000028fbd1284600f005ff00f043ff002849
:10080000fbd1284600f06afc00f03cff0028fbd139
:100810002946304600f08afa00f034ff0028fbd168
:10082000dff85c91dff85c8103232a684946404683
:1008300000f055ff0321404600f0bafd202000f0f3
:100840005bff03236a684946404600f048ff0321e6
:10085000404600f0adfd202000f04eff0323aa68c3
:100860004946404600f03bff0321404600f0a0fd12
:10087000202000f041ff0323ea684946404600f08b
:100880002eff0321404600f093fd202000f034ffae
:10089000bff34f8fbff36f8f0023c4f85032bff305
:1008a0004f8fbff36f8fc4f88430bff34f8fd4f8ee
:1008b0008030c3f3c90ec3f34e33580143f6e07cd6
:1008c00000ea0c01734641ea8372c4f86022013bde
:1008d000b3f1ff3ff7d1203810f1200ff0d1bff373
:1008e0004f8fbff36f8f636913f4003f12d1bff3d3
:1008f0004f8fbff36f8f0023c4f85032bff34f8f79
:10090000bff36f8f636943f400336361bff34f8fad
:10091000bff36f8f636913f4803f7ff42baf002325
:10092000c4f88430bff34f8fd4f88030c3f3c90ebe
:10093000c3f34e33580143f6e07c00ea0c017346e2
:1009400041ea8372c4f86022013bb3f1ff3ff7d163
:10095000203810f1200ff0d1bff34f8f636943f4bb
:1009600080336361bff34f8fbff36f8f02e700bf28
:100970005817400000ed00e000c04000400140205a
:080980006817400070004020e0
:020000040000fa
:020000040040ba
:1009880008b5514b9847514b9847eff3108172b611
:100998004f4ad2f8883043f47003c2f88830bff366
:1009a8004f8fbff36f8f01b962b64a4b4a4a5a60fc
:1009b8001a46936813f0010ffbd0464bdb6813f41b
:1009c800c07f15d0454b0c221a60424b444a5a60ee
:1009d8001a46936813f0010ffbd03e4b414a5a6008
:1009e8001a46936813f0010ffbd03f4b3f4a1a6039
:1009f800bff34f8fbff36f8f354cd4f8903223f08d
:100a08000103c4f89032d4f8943223f00103c4f8f7
:100a18009432bff34f8fbff36f8f00f0a5fd344bb7
:100a280023f07f03a360334b9847636913f4003fb7
:100a380012d1bff34f8fbff36f8f0022c4f850223b
:100a4800bff34f8fbff36f8f626942f40032626168
:100a5800bff34f8fbff36f8f1d4b5b6913f4803f5c
:100a68002bd11b4b0022c3f88420bff34f8fd3f840
:100a78008030c3f3c904c3f34e334fea431c43f633
:100a8800e07e13480cea0e01234641ea8372c0f85f
:100a98006022013bb3f1ff3ff7d1acf1200c1cf110
:100aa800200fefd1bff34f8f094a536943f48033c6
:100ab8005361bff34f8fbff36f8f0f4b98470f4ba7
:100ac8009847fff749fefee7f7174000f717400081
:100ad80000ed00e0000c0e400d00005a30014020ef
:100ae8000c08005a0c07005a00180e40010000a517
:100af8000000400065124000f7174000f71740005b
:020000040000fa
:020000040040ba
:100b0800902910b50fdc7f2913dd8039102910d802
:100b1800dfe801f02b2b360f110f0f0f200f0f0fef
:100b28000f0f0f0f3600c02944d0f02942d0a0295a
:100b380021d000200de019682ab10a1d1a60b1f908
:100b48000030da1702e00c1d1c600b88c0e9003287
:100b5800012010bd196822b10a1d1a6091f90030f0
:100b6800efe70c1d1c600b78f0e71968f2b10a1d5d
:100b78001a600b68e5e71a68111d19601368e0e749
:100b8800196852b1073121f0070101f108021a6012
:100b9800d1e90023c0e90023dae7ca1d22f00702e1
:100ba80002f108011960d2e90023f3e70c1d1c606b
:100bb8000b68cbe71a68111d1960136803600023de
:040bc8004360c5e7da
:020000040000fa
:020000040040ba
:100bcc0000222c4bc3f814212b494ff4c0634b600b
:100bdc006ff4c0630b604ff0ff334b650b66c1f8cd
:100bec009030c1f8a0304ff4000008616ff40000a1
:100bfc0048618a63c1f8182101f500710b604b65df
:100c0c000b66c1f89030c1f8a0300a614b618a6361
:100c1c00c1f8182101f500710b604b650b66c1f82a
:100c2c009030c1f8a0300a614b618a63c1f8182179
:100c3c0001f500714ff0a04048606ff0a0400860d3
:100c4c004b650b66c1f89030c1f8a0300a614b615e
:100c5c008a63c1f8182101f500710b604b650b66b6
:100c6c00c1f89030c1f8a0300a614b618a63c1f8b9
:0c0c7c001821704700800840000e0e4058
:020000040000fa
:020000040040ba
:100c88002de9f041d2e900230c4686b005465fea1b
:100c9800d378d1e901060968e76805913fd0524247
:100ca80063eb4303002808db21f002010591b8f14a
:100cb800000f02d10599480722d5711e05a8029098
:100cc8000a20cde90010204600f0f2f8b8f1000f34
:100cd8001ad001382d233b542269059b0093013a11
:100ce8003346121a3918284600f0a4f86b68db0559
:100cf80003d563689842b8bf184606b0bde8f081ce
:100d08000807dad43146d9e7059b590702d50138d7
:100d18002b23e0e71a07dfd501382023dbe700287b
:040d2800c2dac7e77d
:020000040000fa
:020000040040ba
:100d2c0010b5a1f580035c0a00f5007ec3f34f23d8
:100d3c00c0eb432c026800eb0c0303f580031a6034
:100d4c000430bff35f8f7045f4d1bff34f8fbff307
:100d5c006f8f124b5b6913f4803f12d001f01f0ca4
:100d6c00bff34f8f0b460d4801f500726244c0f87b
:100d7c0068322033d11a0029f9dcbff34f8fbff34f
:100d8c006f8f074a02ea0422064b1343064a53604c
:100d9c00064b00221a60012010bd00bf00ed00e0e0
:100dac0000ffff000100005a000c0e402c014020f7
:020000040000fa
:020000040040ba
:100dbc00100140202000000000000000b000402086
:100dcc006000000000000000300140200400000022
:100ddc000000000040014020000200000400000060
:100dec008400037c00032600033600030500030681
:100dfc0000ff00ec700040204000000000000000ec
:100e0c0034014020040000000000000020004020bd
:100e1c0050000000000000003801402008000000d5
:100e2c00000000000000000000000000666666661e
:020000040000fa
:020000040040ba
:100e3c002de9ff471d460c9b13f0010806460f4693
:100e4c00144601d195420bd822463946304600f063
:100e5c00fefba54204d82546284604b0bde8f08721
:100e6c00a5eb04094a46102a28bf10222021684607
:100e7c00ca4600f07ffc00bfbaf10f0f0ed809f084
:100e8c000f026946304600f0e2fbb8f1000fe3d1e7
:100e9c0022463946304600f0dafbdde7102269467f
:0c0eac00304600f0d4fbaaf1100ae5e784
:020000040000fa
:020000040040ba
:100eb8002de9f84f0446dde90a9a6668d4f80c80f3
:100ec80024690c9f013c1946002e4ff00003d7f807
:100ed80000b008f804301046b8bf01264d4601237b
:100ee800002c03dcdbb12046bde8f88f50ea010294
:100ef80009d1a6eb09022a44002a04dc002df1dd01
:100f08001bf0020feed052464feaea7300f05efb88
:100f1800013c1346303208f80420013de0e73b6805
:080f280023f010033b60dee73b
:020000040000fa
:020000040040ba
:100f3000902910b50fdc7f2911dd803910290ed8da
:100f4000dfe801f00f0f250d170d0d0d1e0d0d0d16
:100f50000d0d0d0d2500a02903d0c02901d00020c2
:100f600006e019680c1d1c600b6803601a60012004
:100f700010bd19680c1d1c600b6803601a80f6e731
:100f800019680c1d1c600b6803601a70efe7196884
:100f90000c1d1c600b680360d117c3e90021e6e754
:020000040000fa
:020000040040ba
:100fa000174b184a9a621a46936e13f0020ffbd041
:100fb000134a136b23f070031363936e13f0080f3f
:100fc000fbd00f4a136b23f4407343f48073136315
:100fd000936e13f0080ffbd0094a136b23f0030341
:100fe00043f002031363936e13f0080ffbd0044b1e
:100ff000054a1a614ff40052c3f80021704700bf40
:0c10000000060e40013f1820801c030079
:020000040000fa
:020000040040ba
:10100c0038b5174b1b7d4bb3154b5c689b68154a69
:10101c00526912f0020f0fd09c420dd9104d11499c
:10102c002a68c869d25c0243ca6101334a6912f06a
:10103c00020f01d09c42f3d8094a93609368a342f3
:10104c000cd3134600221a75064a4ff40071d16076
:10105c00db681bb1024b1869db68984738bd00bfd1
:08106c00b0004020001c0e4002
:020000040000fa
:020000040040ba
:1010740038b5174b1b7d4bb3154b5c689b68154a01
:10108400526912f0020f0fd09c420dd9104d114934
:101094002a68c869d25c0243ca6101334a6912f002
:1010a400020f01d09c42f3d8094a93609368a3428b
:1010b4000cd3134600221a75064a4ff40071d1600e
:1010c400db681bb1024b1869db68984738bd00bf69
:0810d400e000402000080e407e
:020000040000fa
:020000040040ba
:1010dc0010b4144b5b6913f4803f12d000f01f0264
:1010ec00bff34f8f03460f4c00f500511144c4f869
:1010fc005c322033ca1a002af9dcbff34f8fbff3de
:10110c006f8fa0f58000c0f34f200002064b034305
:10111c00064a5360064b00221a6001205df8044b0e
:10112c00704700bf00ed00e00702005a000c0e40b3
:04113c002c01402022
:020000040000fa
:020000040040ba
:1011400038b5164b93f82c303bb3144bdc691b6a53
:10115000134a526912f0010f0dd09c420bd9104a6c
:101160000e4d9069a969c8540133516911f0010ffe
:1011700001d09c42f5d8094a1362136aa3420cd3ea
:101180001346002283f82c20054ae121d1605b6ad6
:101190001bb1024b986a5b6a984738bdb00040208b
:0411a000001c0e40e1
:020000040000fa
:020000040040ba
:1011a40038b5164b93f82c303bb3144bdc691b6aef
:1011b400134a526912f0010f0dd09c420bd9104a08
:1011c4000e4d9069a969c8540133516911f0010f9a
:1011d40001d09c42f5d8094a1362136aa3420cd386
:1011e4001346002283f82c20054ae121d1605b6a72
:1011f4001bb1024b986a5b6a984738bde0004020f7
:0412040000080e4090
:020000040000fa
:020000040040ba
:10120800134bd96821f4e0610904090c114a0a4317
:10121800da60bff35f8f62b60f4ae02182f80713e6
:101228008020106082f82d134ff4005151605a6ae3
:1012380042f480225a625a6942f010025a615a6a8c
:1012480042f400325a625a6a42f480325a62704753
:0c12580000ed00e00000fa0500e100e0fd
:020000040000fa
:020000040040ba
:101264000e4a38b5002313600d4a0e4c13600e4a23
:101274000e4d13600e4a13600e4a13600e4a5362f9
:1012840013610123936000f0b7fa00f0b5faac42a1
:1012940000d338bd54f8043b9847f8e738014020a0
:1012a4002c004020740140002800402078014000b8
:0c12b4002000402024004020300040209a
:020000040000fa
:020000040040ba
:1012c00008b5114b5b6913f0e00f0cd00e4be12217
:1012d000da600e4b002283f82c205b6a1bb10b4bab
:1012e000986a5b6a9847084b5b6913f0010f05d158
:1012f000054b5b6913f0020f03d108bdfff720ff18
:10130000f6e7fff783fef8e7001c0e40b000402030
:020000040000fa
:020000040040ba
:1013100008b5114b5b6913f0e00f0cd00e4be122c6
:10132000da600e4b002283f82c205b6a1bb10b4b5a
:10133000986a5b6a9847084b5b6913f0010f05d107
:10134000054b5b6913f0020f03d108bdfff72affbd
:10135000f6e7fff78ffef8e700080e40e0004020b8
:020000040000fa
:020000040040ba
:1013600010b54ff0ff3c88b00c4611461a464ff4ba
:101370008173cde901c300b96846cde9030454b1d6
:10138000631e002c059308da084b4f221a604ff0b9
:10139000ff3008b010bd2346f3e70023cde9060077
:1013a000037001a800f08df9f3e700bf3c01402075
:020000040000fa
:020000040040ba
:1013b000d8b1104b1b7dd3b90e4b1860596000217a
:1013c0009960012119750c4b5b6913f0020f06d06f
:1013d0000278094bda61074a93680b449360064b25
:1013e0004ff400729a60012070470020704700207f
:0c13f000704700bfb0004020001c0e4001
:020000040000fa
:020000040040ba
:1013fc000278202a034600f10100f9d0a2f109017c
:10140c000429f5d92b2a06d02d2a13d10121013319
:10141c00013b002006e00021f9e700bf00eb800053
:10142c00c2eb400013f8012f303a092af6d901b962
:08143c00404270470021ebe77c
:020000040000fa
:020000040040ba
:1014440010b5054c237833b9044b13b10448aff3fa
:1014540000800123237010bd100140200000000013
:101464000000000008b5034b1bb103490348aff368
:10147400008008bd000000001401402000000000ae
:020000040000fa
:020000040040ba
:101484000c4b4ff486721a6050221a604ff40062bb
:101494005a6051221a62084b00229a61da611a6278
:1014a40083f82c205a621a605a609a601a75da60be
:0c14b400704700bf001c0e40b00040203c
:020000040000fa
:020000040040ba
:1014c0000c4b4ff486721a6050221a604ff400627f
:1014d0005a6051221a62084b00229a61da611a623c
:1014e00083f82c205a621a605a609a601a75da6082
:0c14f000704700bf00080e40e0004020e4
:020000040000fa
:020000040040ba
:1014fc00f0b5002503462e46954207d313f00302a0
:10150c0018bf0122181a02eb9000f0bd1c7834b100
:10151c0001f8014b01330135eee70e5501345f78cc
:0c152c00a742fadc214425440233e5e725
:020000040000fa
:020000040040ba
:1015380030b50c4a0146002012f810301bb902ebf6
:101548004002507830bd0c6825789d4209bf02ebf7
:101558004003431c5878013414bfd8b20c600a28e1
:08156800ead9efe7401740004b
:020000040000fa
:020000040040ba
:1015700038b50a480a4d016821b9436813b900f02b
:101580003cf938bd0389426855f8233000f10c045a
:101590002046984704eb8000ede700bfbc0d4000fb
:0415a0006c17400084
:020000040000fa
:020000040040ba
:1015a40008b500f0fff8fff7f9fcfff70dfbfff7b4
:1015b40067fffff783ff4ff40043044a5360a2f52b
:1015c40080725365fff71efe08bd00bf00190e4070
:020000040000fa
:020000040040ba
:1015d40053b94ab9002908bf00281cbf4ff0ff3196
:1015e4004ff0ff3000f000b9adf1080c6de904ce06
:1015f400fef764ffddf804e0dde9022304b0704780
:020000040000fa
:020000040040ba
:10160400a0f58000054a02ea5002054b1343054a3f
:101614005360054b00221a60704700bf00ffff00b3
:0c1624000900005a000c0e402c01402070
:020000040000fa
:020000040040ba
:10163000812903dc7f2903dc002070478329fbd14b
:101640001368073323f0070303f108011160d3e99e
:0a1650000023c0e9002301207047c9
:020000040000fa
:020000040040ba
:10165a0038b503699a4228bf1a460446154652b15c
:10166a00406900f050f8636922692b44521b2261d9
:08167a00002263611a7038bd03
:020000040000fa
:020000040040ba
:02168200fee781
:020000040000fa
:020000040040ba
:10168400054b9868054b1a681043186080f00100f8
:1016940000f00100704700bf000c0e402c014020f8
:020000040000fa
:020000040040ba
:1016a40010b50023934206d113f0030018bf0120a4
:0e16b40000eb930010bdc45ccc540133f2e790
:020000040000fa
:020000040040ba
:1016c20013b50446019201aafef761fd636813f0a7
:0c16d200100f18bf4ff0ff3002b010bd29
:020000040000fa
:020000040040ba
:1016de000eb403b503aa52f8041b019200f06cf885
:0a16ee0002b05df804eb03b0704792
:020000040000fa
:020000040040ba
:1016f800044b03fb00f0002300bf01338342fbddf2
:08170800704700bf40420f00d2
:020000040000fa
:020000040040ba
:101710004ab1431e84460a4411f8010b03f8010f35
:081720009142f9d160467047c7
:020000040000fa
:020000040040ba
:1017280003783bb1034600bf13f8012f002afbd111
:08173800181a704718467047ab
:020000040000fa
:020000040040ba
:1017400068076c094c836a9074a07ac0008068882e
:0617500000846c820081a0
:020000040000fa
:020000040040ba
:02175600fee7ac
:020000040000fa
:020000040040ba
:101758004a756d7020546f204170700a00000000b7
:0417680025640a00ea
:020000040000fa
:020000040040ba
:10176c0095174000a5164000db174000db17400022
:04177c00fd14400018
:020000040000fa
:020000040040ba
:1017800032b1c9b20244034603f8011b9a42fbd1ad
:04179000704700bfdf
:020000040000fa
:020000040040ba
:101794000a440023914201d10020704701f8013b23
:0217a400f8e764
:020000040000fa
:020000040040ba
:0217a600fee75c
:020000040000fa
:020000040040ba
:1017a800014b024a1a607047000c0e400006000404
:020000040000fa
:020000040040ba
:0e17b800a0f14103192b98bf40f020007047ac
:020000040000fa
:020000040040ba
:0c17c60013460a466ff00041fff7c7bd54
:020000040000fa
:020000040040ba
:0817d200286e696c2900250056
:020000040000fa
:020000040040ba
:0417da000020704734
:020000040000fa
:020000040040ba
:0417de000020704730
:020000040000fa
:020000040040ba
:0417e200002070472c
:020000040000fa
:020000040040ba
:0417e6000020704728
:020000040000fa
:020000040040ba
:0217ea00fee718
:020000040000fa
:020000040040ba
:0417ec00704700bf83
:020000040000fa
:020000040040ba
:0217f000fee712
:020000040000fa
:020000040040ba
:0217f200fee710
:020000040000fa
:020000040040ba
:0217f400fee70e
:020000040000fa
:020000040040ba
:0217f60070473a
:020000040000fa
:020000040040ba
:0217f800704738
:020000040000fa
:020000040040ba
:0217fa00704736
:020000040000fa
:020000040040ba
:0217fc00704734
:020000040000fa
:020000040040ba
:10bf00000100000001000000f9174000000040009f
:10bf100000c0000000c0400000401f000000000002
:10bf20000000000000000000000000000000000011
:10bf30000000000000000000000000000000000001
:10bf400000000000000000000000000000000000f1
:10bf500000000000000000000000000000000000e1
:10bf600000000000000000000000000000000000d1
:10bf700000000000000000000000000000000000c1
:10bf800000000000000000000000000000000000b1
:10bf900000000000000000000000000000000000a1
:10bfa0000000000000000000000000000000000091
:10bfb0000000000000000000000000000000000081
:10bfc0000000000000000000000000000000000071
:10bfd0000000000000000000000000000000000061
:10bfe0000000000000000000000000000000000051
:10bff0000000000000000000000000000000000041
:020000040000fa
:02000004d0002a
:0400000002000000fa
:00000001FF
