:020000040000fa
:020000040040ba
:10000000f8ff452089014000f70740000d08400037
:1000100011084000130840001508400000000000cf
:10002000000000000000000000000000cf074000ba
:100030000f08400000000000cf074000cf0740003d
:10004000cf074000cf074000cf074000cf07400058
:10005000cf074000cf074000cf074000cf07400048
:10006000cf07400000000000cf074000cf0740004e
:10007000cf074000cf074000cf074000cf07400028
:10008000cf074000cf074000cf074000cf07400018
:10009000cf074000cf074000cf074000cf07400008
:1000a000cf074000cf074000cf074000cf074000f8
:1000b000cf074000cf074000cf074000cf074000e8
:1000c000cf074000cf074000cf074000cf074000d8
:1000d000cf074000cf074000cf074000cf074000c8
:1000e000cf074000cf074000cf074000cf074000b8
:1000f000cf07400035064000cf074000cf07400043
:10010000cf074000cf074000cf074000cf07400097
:10011000cf074000cf0740000000000000000000b3
:10012000cf074000cf074000cf074000cf07400077
:10013000cf074000cf07400000000000cf0740007d
:10014000cf074000cf074000cf074000cf07400057
:10015000cf074000cf074000cf074000cf07400047
:08016000cf074000cf0740006b
:020000040000fa
:020000040040ba
:10016800f8b500bff8bc08bc9e467047f9064000c9
:10017800f8b500bff8bc08bc9e467047d5064000dd
:020000040000fa
:020000040040ba
:1001880008b5514b9847514b9847eff3108172b619
:100198004f4ad2f8883043f47003c2f88830bff36e
:1001a8004f8fbff36f8f01b962b64a4b4a4a5a6004
:1001b8001a46936813f0010ffbd0464bdb6813f423
:1001c800c07f15d0454b0c221a60424b444a5a60f6
:1001d8001a46936813f0010ffbd03e4b414a5a6010
:1001e8001a46936813f0010ffbd03f4b3f4a1a6041
:1001f800bff34f8fbff36f8f354cd4f8903223f095
:100208000103c4f89032d4f8943223f00103c4f8ff
:100218009432bff34f8fbff36f8f00f095fa344bd2
:1002280023f07f03a360334b9847636913f4003fbf
:1002380012d1bff34f8fbff36f8f0022c4f8502243
:10024800bff34f8fbff36f8f626942f40032626170
:10025800bff34f8fbff36f8f1d4b5b6913f4803f64
:100268002bd11b4b0022c3f88420bff34f8fd3f848
:100278008030c3f3c904c3f34e334fea431c43f63b
:10028800e07e13480cea0e01234641ea8372c0f867
:100298006022013bb3f1ff3ff7d1acf1200c1cf118
:1002a800200fefd1bff34f8f094a536943f48033ce
:1002b8005361bff34f8fbff36f8f0f4b98470f4baf
:1002c800984700f077f8fee7170840001708400045
:1002d80000ed00e0000c0e400d00005abc0040206c
:1002e8000c08005a0c07005a00180e40010000a51f
:1002f800000040008505400017084000170840002e
:020000040000fa
:020000040040ba
:1003080000222a4bc3f8142129494ff0ff330b6010
:100318004b656ff4007008664ff400704866c1f8ca
:100328009030c1f8a0304ff4000008616ff400006d
:1003380048618a63c1f8182101f500710b604b65ab
:100348000b66c1f89030c1f8a0300a614b618a632e
:10035800c1f8182101f500710b604b650b66c1f8f7
:100368009030c1f8a0300a614b618a63c1f8182146
:1003780001f500710b604b650b66c1f89030c1f850
:10038800a0300a614b618a63c1f8182101f5007138
:100398000b604b650b66c1f89030c1f8a0300a615c
:1003a8004b618a63c1f81821704700bf008008407c
:0403b800000e0e40e5
:020000040000fa
:020000040040ba
:1003bc002de9f041002000f0dff91a4ddff88080c4
:1003cc00194f1a4c1a4eab6b83f40003ab634ff00e
:1003dc00e022936823f07043936072b6c8f8007003
:1003ec002660bff34f8fbff36f8f23685b6923f0d9
:1003fc007f0302f550629360bff34f8fbff36f8f93
:10040c0062b623685b691a680a490a6082f3088835
:10041c005b68094a13609847084b00bf013bfcd14d
:10042c00d1e700bf000e0e4000bf4000c8004020c6
:10043c0080ff5f00c4004020c00040200190d0032a
:04044c00cc00402080
:020000040000fa
:020000040040ba
:10045000174b184a9a621a46936e13f0020ffbd09c
:10046000134a136b23f070031363936e13f0080f9a
:10047000fbd00f4a136b23f4407343f48073136370
:10048000936e13f0080ffbd0094a136b23f003039c
:1004900043f002031363936e13f0080ffbd0044b79
:1004a0004ff447321a614ff40052c3f800217047ed
:0804b00000060e40013f182078
:020000040000fa
:020000040040ba
:1004b80038b5174b1b7d4bb3154b5c689b68154ac9
:1004c800526912f0020f0fd09c420dd9104d1149fc
:1004d8002a68c869d25c0243ca6101334a6912f0ca
:1004e800020f01d09c42f3d8094a93609368a34253
:1004f8000cd3134600221a75064a4ff40071d160d6
:10050800db681bb1024b1869db68984738bd00bf30
:0805180070004020001c0e40a1
:020000040000fa
:020000040040ba
:1005200038b5164b93f82c303bb3144bdc691b6a7f
:10053000134a526912f0010f0dd09c420bd9104a98
:100540000e4d9069a969c8540133516911f0010f2a
:1005500001d09c42f5d8094a1362136aa3420cd316
:100560001346002283f82c20054ae121d1605b6a02
:100570001bb1024b986a5b6a984738bd70004020f7
:04058000001c0e400d
:020000040000fa
:020000040040ba
:100584000e4a38b5002313600d4a0e4c13600e4a10
:100594000e4d13600e4a13600e4a13600e4a5362e6
:1005a40013610123936000f037f900f035f9ac4290
:1005b40000d338bd54f8043b9847f8e7d4004020f2
:1005c4002c004020740140002800402078014000a5
:0c05d40020004020240040203000402087
:020000040000fa
:020000040040ba
:1005e000114bd96821f4e0610904090c0f4a0a4350
:1005f000da60bff35f8f62b60d4ae02182f82d13f7
:100600004ff4005151605a6a42f480225a625a698a
:1006100042f010025a615a6a42f400325a625a6a2f
:1006200042f480325a62704700ed00e00000fa05a3
:0406300000e100e005
:020000040000fa
:020000040040ba
:1006340008b5114b5b6913f0e00f0cd00e4be122af
:10064400da600e4b002283f82c205b6a1bb10b4b43
:10065400986a5b6a9847084b5b6913f0010f05d1f0
:10066400054b5b6913f0020f03d108bdfff756ff7a
:10067400f6e7fff71ffff8e7001c0e40700040206c
:020000040000fa
:020000040040ba
:10068400a00040201c00000000000000700040207a
:100694003000000000000000bc00402018000000f2
:1006a4000000000020004020500000000000000076
:1006b400d4004020040000000000000000000000fe
:1006c400000000006666666666666666666666665e
:020000040000fa
:020000040040ba
:1006d40010b5054c237833b9044b13b10448aff378
:1006e40000800123237010bda00040200000000002
:1006f4000000000008b5034b1bb103490348aff3e6
:10070400008008bd00000000a4004020000000009c
:020000040000fa
:020000040040ba
:100714000c4b4ff486721a6050221a604ff4006238
:100724005a6051221a62084b00229a61da611a62f5
:1007340083f82c205a621a605a609a601a75da603b
:0c074400704700bf001c0e4070004020f9
:020000040000fa
:020000040040ba
:1007500038b50a480a4d016821b9436813b900f059
:100760005cf838bd0389426855f8233000f10c0469
:100770002046984704eb8000ede700bf8406400068
:04078000d00740005e
:020000040000fa
:020000040040ba
:1007840008b500f037f8fff761fefff7bbfdfff790
:10079400bfff4ff40043044a5360a2f580725365cf
:0c07a400fff71cff08bd00bf00190e404d
:020000040000fa
:020000040040ba
:1007b00010b50023934206d113f0030018bf0120a7
:0e07c00000eb930010bdc45ccc540133f2e793
:020000040000fa
:020000040040ba
:0207ce00fee744
:020000040000fa
:020000040040ba
:1007d000e5074000b1074000090840000908400053
:0407e00009084000c4
:020000040000fa
:020000040040ba
:1007e4000a440023914201d10020704701f8013be3
:0207f400f8e724
:020000040000fa
:020000040040ba
:0207f600fee71c
:020000040000fa
:020000040040ba
:1007f800014b024a1a607047000c0e4000060004c4
:020000040000fa
:020000040040ba
:040808000020704715
:020000040000fa
:020000040040ba
:02080c00fee705
:020000040000fa
:020000040040ba
:02080e00fee703
:020000040000fa
:020000040040ba
:02081000fee701
:020000040000fa
:020000040040ba
:02081200fee7ff
:020000040000fa
:020000040040ba
:02081400fee7fd
:020000040000fa
:020000040040ba
:02081600704729
:020000040000fa
:020000040040ba
:02081800704727
:020000040000fa
:020000040040ba
:02081a00704725
:020000040000fa
:020000040040ba
:02081c00704723
:020000040000fa
:020000040040ba
:10bf0000010000000100000019084000000040008e
:10bf100000c0000000c0400000401f000000000002
:10bf20000000000000000000000000000000000011
:10bf30000000000000000000000000000000000001
:10bf400000000000000000000000000000000000f1
:10bf500000000000000000000000000000000000e1
:10bf600000000000000000000000000000000000d1
:10bf700000000000000000000000000000000000c1
:020000040000fa
:02000004d0002a
:0400000002000000fa
:00000001FF
