:020000040000fa
:020000040040ba
:10000000f0ff452089014000bb0e40003b0e400040
:10001000f10e4000f30e4000f50e4000000000001d
:100020000000000000000000000000008b0e4000f7
:10003000ef0e4000000000008b0e40008b0e4000d1
:100040008b0e40008b0e40008b0e40008b0e40004c
:100050008b0e40008b0e40008b0e4000510a40007a
:100060008b0e4000000000008b0e40008b0e400005
:100070008b0e40008b0e40008b0e40008b0e40001c
:100080008b0e40008b0e40008b0e40008b0e40000c
:100090008b0e40008b0e40008b0e40008b0e4000fc
:1000a0008b0e40008b0e40008b0e40008b0e4000ec
:1000b0008b0e40008b0e40008b0e40008b0e4000dc
:1000c0008b0e40008b0e40008b0e40008b0e4000cc
:1000d0008b0e40008b0e40008b0e40008b0e4000bc
:1000e0008b0e40008b0e40008b0e40008b0e4000ac
:1000f0008b0e4000390940008b0e40008b0e4000f3
:100100008b0e40008b0e40008b0e40008b0e40008b
:100110008b0e40008b0e400000000000000000002d
:100120008b0e40008b0e40008b0e40008b0e40006b
:100130008b0e40008b0e4000000000008b0e400034
:100140008b0e40008b0e40008b0e40008b0e40004b
:100150008b0e40008b0e40008b0e40008b0e40003b
:080160008b0e40008b0e4000e5
:020000040000fa
:020000040040ba
:10016800f8b500bff8bc08bc9e4670470d0b4000b0
:10017800f8b500bff8bc08bc9e467047e90a4000c5
:020000040000fa
:020000040040ba
:1001880008b5514b9847514b9847eff3108172b619
:100198004f4ad2f8883043f47003c2f88830bff36e
:1001a8004f8fbff36f8f01b962b64a4b4a4a5a6004
:1001b8001a46936813f0010ffbd0464bdb6813f423
:1001c800c07f15d0454b0c221a60424b444a5a60f6
:1001d8001a46936813f0010ffbd03e4b414a5a6010
:1001e8001a46936813f0010ffbd03f4b3f4a1a6041
:1001f800bff34f8fbff36f8f354cd4f8903223f095
:100208000103c4f89032d4f8943223f00103c4f8ff
:100218009432bff34f8fbff36f8f00f04ffd344b15
:1002280023f07f03a360334b9847636913f4003fbf
:1002380012d1bff34f8fbff36f8f0022c4f8502243
:10024800bff34f8fbff36f8f626942f40032626170
:10025800bff34f8fbff36f8f1d4b5b6913f4803f64
:100268002bd11b4b0022c3f88420bff34f8fd3f848
:100278008030c3f3c904c3f34e334fea431c43f63b
:10028800e07e13480cea0e01234641ea8372c0f867
:100298006022013bb3f1ff3ff7d1acf1200c1cf118
:1002a800200fefd1bff34f8f094a536943f48033ce
:1002b8005361bff34f8fbff36f8f0f4b98470f4baf
:1002c800984700f08ff9fee7f70e4000f70e400060
:1002d80000ed00e0000c0e400d00005af00940202f
:1002e8000c08005a0c07005a00180e40010000a51f
:1002f80000004000f5094000f70e4000f70e4000ee
:020000040000fa
:020000040040ba
:10030800d0094020200000000000000070094020b3
:100318006000000000000000f00940200400000018
:1003280000000000fc0b40208000000001000000dd
:10033800001c0e400000000000000000000000004b
:1003480000000000000000000000000000000000a5
:100358000000000000000000000000000000000095
:100368000000000000000000000000000000000085
:100378000000000000000000000000000000000075
:100388000000000000000000000000000000000065
:10039800000000002004402020004020000400004d
:1003a8000004000000000000000000000000000041
:1003b800200040200008000000000000fc09402048
:1003c80000020000040000008400037c00032600f3
:1003d800033600030500030600ff00ec2008402058
:1003e8000001000000000000f409402004000000a3
:1003f800000000002009402050000000000000001c
:10040800f80940200400000000000000000000007f
:10041800000000006666666666666666666666660c
:020000040000fa
:020000040040ba
:1004280000222c4bc3f814212b494ff4c0634b60b6
:100438006ff4c0630b604ff0ff334b650b66c1f878
:100448009030c1f8a0304ff4000008616ff400004c
:1004580048618a63c1f8182101f500710b604b658a
:100468000b66c1f89030c1f8a0300a614b618a630d
:10047800c1f8182101f500710b604b650b66c1f8d6
:100488009030c1f8a0300a614b618a63c1f8182125
:1004980001f500714ff0a04048606ff0a04008607f
:1004a8004b650b66c1f89030c1f8a0300a614b610a
:1004b8008a63c1f8182101f500710b604b650b6662
:1004c800c1f89030c1f8a0300a614b618a63c1f865
:0c04d8001821704700800840000e0e4004
:020000040000fa
:020000040040ba
:1004e40010b5a1f580035c0a00f5007ec3f34f2329
:1004f400c0eb432c026800eb0c0303f580031a6085
:100504000430bff35f8f7045f4d1bff34f8fbff357
:100514006f8f124b5b6913f4803f12d001f01f0cf4
:10052400bff34f8f0b460d4801f500726244c0f8cb
:1005340068322033d11a0029f9dcbff34f8fbff39f
:100544006f8f074a02ea0422064b1343064a53609c
:10055400064b00221a60012010bd00bf00ed00e030
:1005640000ffff000100005a000c0e40ec0940207f
:020000040000fa
:020000040040ba
:1005740030b583b004460268536913f0e00f04d128
:1005840013f0010f1dd0051d22e0012380f8753002
:10059400c36f0133c3674ff48073136002685369f8
:1005a40013f0010f09d09369dbb28df807309df881
:1005b4000730536913f0010ff5d1e023d3602268ab
:1005c400936003b030bd23685b6913f0010ff8d06a
:1005d40023689969c9b2284600f057fb0028f2d174
:0805e400a36f0133a367eee7ea
:020000040000fa
:020000040040ba
:1005ec00f0b5cfb0002000f081fb4ff498720021e1
:1005fc0002a800f031fc4ff4fa63019300f02af8e2
:10060c0001a902a800f0d0fb0e4c0f4f0f4d104e5d
:10061c00204600f0b3fb204600f0f2f821463846a5
:10062c00fff75aff22464ff40071284600f030fcc9
:10063c000d222946304600f02dfa202000f0d4fb84
:10064c00e6e700bf00c04000fc0940202008402025
:04065c00001c0e4030
:020000040000fa
:020000040040ba
:1006600030b583b0144cb4f86c300093636e134a09
:100670000121201d00f058fbb4f870300093a36ee8
:100680000f4a022104f1340000f04efb002584f8eb
:10069000745084f87550a567e5672146094800f055
:1006a00013fc2146084800f009fc084be1229a603f
:1006b000284603b030bd00bffc0b4020240e400094
:1006c000300e400075054000570c4000001c0e40e5
:020000040000fa
:020000040040ba
:1006d000174b184a9a621a46936e13f0020ffbd01a
:1006e000134a136b23f070031363936e13f0080f18
:1006f000fbd00f4a136b23f4407343f480731363ee
:10070000936e13f0080ffbd0094a136b23f0030319
:1007100043f002031363936e13f0080ffbd0044bf6
:10072000054a1a614ff40052c3f80021704700bf18
:0c07300000060e40013f1820801c030052
:020000040000fa
:020000040040ba
:10073c0038b5174b1b7d4bb3154b5c689b68154a42
:10074c00526912f0020f0fd09c420dd9104d114975
:10075c002a68c869d25c0243ca6101334a6912f043
:10076c00020f01d09c42f3d8094a93609368a342cc
:10077c000cd3134600221a75064a4ff40071d1604f
:10078c00db681bb1024b1869db68984738bd00bfaa
:08079c0070094020001c0e4012
:020000040000fa
:020000040040ba
:1007a40038b5174b1b7d4bb3154b5c689b68154ada
:1007b400526912f0020f0fd09c420dd9104d11490d
:1007c4002a68c869d25c0243ca6101334a6912f0db
:1007d400020f01d09c42f3d8094a93609368a34264
:1007e4000cd3134600221a75064a4ff40071d160e7
:1007f400db681bb1024b1869db68984738bd00bf42
:08080400a009402000080e408d
:020000040000fa
:020000040040ba
:10080c0010b4144b5b6913f4803f12d000f01f023c
:10081c00bff34f8f03460f4c00f500511144c4f841
:10082c005c322033ca1a002af9dcbff34f8fbff3b6
:10083c006f8fa0f58000c0f34f200002064b0343de
:10084c00064a5360064b00221a6001205df8044be7
:10085c00704700bf00ed00e00702005a000c0e408c
:04086c00ec09402033
:020000040000fa
:020000040040ba
:1008700038b5164b93f82c303bb3144bdc691b6a2c
:10088000134a526912f0010f0dd09c420bd9104a45
:100890000e4d9069a969c8540133516911f0010fd7
:1008a00001d09c42f5d8094a1362136aa3420cd3c3
:1008b0001346002283f82c20054ae121d1605b6aaf
:1008c0001bb1024b986a5b6a984738bd700940209b
:0408d000001c0e40ba
:020000040000fa
:020000040040ba
:1008d40038b5164b93f82c303bb3144bdc691b6ac8
:1008e400134a526912f0010f0dd09c420bd9104ae1
:1008f4000e4d9069a969c8540133516911f0010f73
:1009040001d09c42f5d8094a1362136aa3420cd35e
:100914001346002283f82c20054ae121d1605b6a4a
:100924001bb1024b986a5b6a984738bda009402006
:0409340000080e4069
:020000040000fa
:020000040040ba
:1009380008b5154b5b6913f0e00f0cd0124be122a0
:10094800da60124b002283f82c205b6a1bb10f4b34
:10095800986a5b6a98470c4b5b6913f0010f05d1e5
:10096800094b5b6913f0020f07d108bdfff77cff45
:10097800064b986a5b6a9847f2e7fff7dbfe034b82
:100988001869db689847f0e7001c0e4070094020a2
:020000040000fa
:020000040040ba
:10099800134bd96821f4e0610904090c114a0a4390
:1009a800da60bff35f8f62b60f4ae02182f807135f
:1009b8008020106082f82d134ff4005151605a6a5c
:1009c80042f480225a625a6942f010025a615a6a05
:1009d80042f400325a625a6a42f480325a627047cc
:0c09e80000ed00e00000fa0500e100e076
:020000040000fa
:020000040040ba
:1009f4000e4a38b5002313600d4a0e4c13600e4a9c
:100a04000e4d13600e4a13600e4a13600e4a536271
:100a140013610123936000f06ffa00f06dfaac42a9
:100a240000d338bd54f8043b9847f8e7f809402050
:100a34002c0940207401400028094020780140001e
:0c0a4400200940202409402030094020f7
:020000040000fa
:020000040040ba
:100a500008b5114b5b6913f0e00f0cd00e4be1228f
:100a6000da600e4b002283f82c205b6a1bb10b4b23
:100a7000986a5b6a9847084b5b6913f0010f05d1d0
:100a8000054b5b6913f0020f03d108bdfff722ff8e
:100a9000f6e7fff787fef8e700080e40a0094020c0
:020000040000fa
:020000040040ba
:100aa0002de9f041e1b116460d46cab100f0c6f994
:100ab0008046b8b1013d002400f1340715f8011f4c
:100ac000384600f0e4f830b10134a642f6d840468a
:100ad00000f0a4f801e0002cf9d12046bde8f08137
:080ae0000024fae70024f8e706
:020000040000fa
:020000040040ba
:100ae80010b5054c237833b9044b13b10448aff360
:100af80000800123237010bdd009402000000000b1
:100b08000000000008b5034b1bb103490348aff3cd
:100b1800008008bd00000000d4094020000000004b
:020000040000fa
:020000040040ba
:100b280030b40446481e07e010f8011f03f8011b03
:100b3800551e39b12a461c462346002af4d12046c0
:100b480030bc7047a0183db103f8011b8342fbd1ac
:100b5800002cf4d130bc70471846002cefd1f9e7cf
:020000040000fa
:020000040040ba
:100b68000c4b4ff486721a6050221a604ff40062e0
:100b78005a6051221a62084b00229a61da611a629d
:100b880083f82c205a621a605a609a601a75da60e3
:0c0b9800704700bf001c0e407009402098
:020000040000fa
:020000040040ba
:100ba4000c4b4ff486721a6050221a604ff40062a4
:100bb4005a6051221a62084b00229a61da611a6261
:100bc40083f82c205a621a605a609a601a75da60a7
:0c0bd400704700bf00080e40a009402040
:020000040000fa
:020000040040ba
:100be000f0b5002503462e46954207d313f00302c5
:100bf00018bf0122181a02eb9000f0bd1c7834b126
:100c000001f8014b01330135eee70e5501345f78f1
:0c0c1000a742fadc214425440233e5e74a
:020000040000fa
:020000040040ba
:100c1c0090f8743003b1704710b582b004460df1f2
:100c2c000701343000f092f868b1012384f8743075
:100c3c0023685a6912f0020f02d09df80720da617e
:0a0c4c00236802229a6002b010bd76
:020000040000fa
:020000040040ba
:100c560003685b6913f0020f00d1704710b582b0cc
:100c660004460df10701343000f073f828b123680b
:100c76009df80720da6102b010bd23680222da600f
:080c8600002384f87430f6e746
:020000040000fa
:020000040040ba
:100c8e00438d01339bb2028d9a4208bf0023828da1
:100c9e00bff35b8f92b29a4201d10020704710b41d
:100cae00428d92b2446aa154bff35b8f43850120fb
:060cbe005df8044b7047d5
:020000040000fa
:020000040040ba
:100cc40038b50a480a4d016821b9436813b900f0e0
:100cd40012f938bd0389426855f8233000f10c0439
:100ce4002046984704eb8000ede700bf080340006e
:040cf400500e40005e
:020000040000fa
:020000040040ba
:100cf80008b500f0c7f8fff7e7fcfff791fbfff72f
:100d08002ffffff74bff4ff40043044a5360a2f54f
:100d180080725365fff73cfe08bd00bf00190e4006
:020000040000fa
:020000040040ba
:100d280070b504460e4611461d4640f8046b1f2256
:100d380000f0ccf8002284f823206562bdf810305a
:100d48002385bff35b8f6285bff35b8fa28570bd80
:020000040000fa
:020000040040ba
:100d5800838d9bb2428dbff35b8f92b293420dd0cd
:100d6800426ad25c0a7001339bb2028d9a4208bf74
:100d78000023bff35b8f83850120704700207047f5
:020000040000fa
:020000040040ba
:100d8800a0f58000054a02ea5002054b1343054ac4
:100d98005360054b00221a60704700bf00ffff0038
:0c0da8000900005a000c0e40ec0940202d
:020000040000fa
:020000040040ba
:100db40010b504460b6840f8043b00f075f804f5e0
:100dc4008c7000f08bf80023c4f8283184f82c319f
:020dd40010bd50
:020000040000fa
:020000040040ba
:100dd60010b50023934206d113f0030018bf01207b
:0e0de60000eb930010bdc45ccc540133f2e767
:020000040000fa
:020000040040ba
:100df400044b03fb00f0002300bf01338342fbddff
:080e0400704700bf40420f00df
:020000040000fa
:020000040040ba
:100e0c004ab1431e84460a4411f8010b03f8010f42
:080e1c009142f9d160467047d4
:020000040000fa
:020000040040ba
:100e240055415254335f525800000000554152540a
:050e3400335f5458007b
:020000040000fa
:020000040040ba
:020e3a00fee7d1
:020000040000fa
:020000040040ba
:100e3c00034b1a6882420cbf18460020704700bf53
:040e4c00fc0b40203b
:020000040000fa
:020000040040ba
:100e5000790e4000d70d4000eb0e4000eb0e400035
:040e6000e10b400062
:020000040000fa
:020000040040ba
:100e640032b1c9b20244034603f8011b9a42fbd1d2
:040e7400704700bf04
:020000040000fa
:020000040040ba
:100e78000a440023914201d10020704701f8013b48
:020e8800f8e789
:020000040000fa
:020000040040ba
:020e8a00fee781
:020000040000fa
:020000040040ba
:100e8c00014b024a1a607047000c0e400006000429
:020000040000fa
:020000040040ba
:100e9c0008b513460a461946fff7b2ff012008bdf4
:020000040000fa
:020000040040ba
:0e0eac0000230370a0f80c31c0f8103170471d
:020000040000fa
:020000040040ba
:020eba00fee751
:020000040000fa
:020000040040ba
:0c0ebc00014bd86019617047700940209c
:020000040000fa
:020000040040ba
:0c0ec800014b586299627047700940208d
:020000040000fa
:020000040040ba
:0c0ed40010b50446fff726fe204610bdb6
:020000040000fa
:020000040040ba
:0a0ee000002303708360c3607047b5
:020000040000fa
:020000040040ba
:040eea00002070472d
:020000040000fa
:020000040040ba
:020eee00fee71d
:020000040000fa
:020000040040ba
:020ef000fee71b
:020000040000fa
:020000040040ba
:020ef200fee719
:020000040000fa
:020000040040ba
:020ef400fee717
:020000040000fa
:020000040040ba
:020ef600704743
:020000040000fa
:020000040040ba
:020ef800704741
:020000040000fa
:020000040040ba
:020efa0070473f
:020000040000fa
:020000040040ba
:020efc0070473d
:020000040000fa
:020000040040ba
:10bf00000100000001000000f90e400000004000a8
:10bf100000c0000000c0400000401f000000000002
:10bf20000000000000000000000000000000000011
:10bf30000000000000000000000000000000000001
:10bf400000000000000000000000000000000000f1
:10bf500000000000000000000000000000000000e1
:10bf600000000000000000000000000000000000d1
:10bf700000000000000000000000000000000000c1
:10bf800000000000000000000000000000000000b1
:10bf900000000000000000000000000000000000a1
:10bfa0000000000000000000000000000000000091
:10bfb0000000000000000000000000000000000081
:10bfc0000000000000000000000000000000000071
:10bfd0000000000000000000000000000000000061
:10bfe0000000000000000000000000000000000051
:10bff0000000000000000000000000000000000041
:020000040000fa
:02000004d0002a
:0400000002000000fa
:00000001FF
