:020000040000fa
:020000040040ba
:10000000f8ff4520b908400033184000231a40008b
:10001000671d4000731e4000751e40000000000078
:100020000000000000000000000000005b0b40002a
:100030005b1c4000000000005b0b40005b0b4000bd
:100040005b0b40005b0b40005b0b40005b0b400018
:100050005b0b40005b0b40005b0b40000117400056
:100060005b0b4000000000005b0b40005b0b40009e
:100070005b0b40005b0b40005b0b40005b0b4000e8
:100080005b0b40005b0b40005b0b40005b0b4000d8
:100090005b0b40005b0b40005b0b40005b0b4000c8
:1000a0005b0b40005b0b40005b0b40005b0b4000b8
:1000b0005b0b40005b0b40005b0b40005b0b4000a8
:1000c0005b0b40005b0b40005b0b40005b0b400098
:1000d0005b0b40005b0b40005b0b40005b0b400088
:1000e0005b0b40005b0b40005b0b40005b0b400078
:1000f0005b0b4000e91540005b0b40005b0b4000d0
:100100005b0b40005b0b40005b0b40005b0b400057
:100110005b0b40005b0b4000000000000000000093
:100120005b0b40005b0b40005b0b40005b0b400037
:100130005b0b40005b0b4000000000005b0b4000cd
:100140005b0b40005b0b40005b0b40005b0b400017
:100150005b0b40005b0b40005b0b40005b0b400007
:080160005b0b40005b0b40004b
:020000040000fa
:020000040040ba
:10016800f8b500bff8bc08bc9e467047a11840000f
:10017800f8b500bff8bc08bc9e4670477d18400023
:020000040000fa
:020000040040ba
:1001880000000000b71dc1046e3b8209d926430d4b
:10019800dc7604136b6bc517b24d861a0550471ee3
:1001a800b8ed08260ff0c922d6d68a2f61cb4b2b83
:1001b800649b0c35d386cd310aa08e3cbdbd4f382b
:1001c80070db114cc7c6d0481ee09345a9fd5241cb
:1001d800acad155f1bb0d45bc2969756758b565263
:1001e800c836196a7f2bd86ea60d9b6311105a6703
:1001f80014401d79a35ddc7d7a7b9f70cd665e74ab
:10020800e0b6239857abe29c8e8da191399060950a
:100218003cc0278b8bdde68f52fba582e5e6648622
:10022800585b2bbeef46eaba3660a9b7817d68b342
:10023800842d2fad3330eea9ea16ada45d0b6ca06a
:10024800906d32d42770f3d0fe56b0dd494b71d98a
:100258004c1b36c7fb06f7c32220b4ce953d75caa2
:1002680028803af29f9dfbf646bbb8fbf1a679ffc2
:10027800f4f63ee143ebffe59acdbce82dd07decea
:1002880077708634c06d4730194b043dae56c5397a
:10029800ab0682271c1b4323c53d002e7220c12ab2
:1002a800cf9d8e1278804f16a1a60c1b16bbcd1fb2
:1002b80013eb8a01a4f64b057dd00808cacdc90cfa
:1002c80007ab9778b0b6567c69901571de8dd475fa
:1002d800dbdd936b6cc0526fb5e6116202fbd06632
:1002e800bf469f5e085b5e5ad17d1d576660dc5332
:1002f80063309b4dd42d5a490d0b1944ba16d8407a
:1003080097c6a5ac20db64a8f9fd27a54ee0e6a1b9
:100318004bb0a1bffcad60bb258b23b69296e2b271
:100328002f2bad8a98366c8e41102f83f60dee87f1
:10033800f35da9994440689d9d662b902a7bea94b9
:10034800e71db4e0500075e4892636e93e3bf7ed39
:100358003b6bb0f38c7671f7555032fae24df3fef1
:100368005ff0bcc6e8ed7dc231cb3ecf86d6ffcb71
:100378008386b8d5349b79d1edbd3adc5aa0fbd839
:10038800eee00c6959fdcd6d80db8e6037c64f6499
:100398003296087a858bc97e5cad8a73ebb04b7751
:1003a800560d044fe110c54b383686468f2b474211
:1003b8008a7b005c3d66c158e4408255535d4351d9
:1003c8009e3b1d252926dc21f0009f2c471d5e2819
:1003d800424d1936f550d8322c769b3f9b6b5a3bd1
:1003e80026d6150391cbd40748ed970afff0560e91
:1003f800faa011104dbdd014949b93192386521d59
:100408000e562ff1b94beef5606dadf8d7706cfc58
:10041800d2202be2653deae6bc1ba9eb0b0668ef90
:10042800b6bb27d701a6e6d3d880a5de6f9d64dad0
:100438006acd23c4ddd0e2c004f6a1cdb3eb60c918
:100448007e8d3ebdc990ffb910b6bcb4a7ab7db0d8
:10045800a2fb3aae15e6fbaaccc0b8a77bdd79a310
:10046800c660369b717df79fa85bb4921f46759650
:100478001a163288ad0bf38c742db081c330718598
:1004880099908a5d2e8d4b59f7ab085440b6c950e8
:1004980045e68e4ef2fb4f4a2bdd0c479cc0cd4300
:1004a800217d827b9660437f4f460072f85bc17660
:1004b800fd0b86684a16476c93300461242dc56588
:1004c800e94b9b115e565a1587701918306dd81c68
:1004d800353d9f0282205e065b061d0bec1bdc0f80
:1004e80051a69337e6bb52333f9d113e8880d03ae0
:1004f8008dd097243acd5620e3eb152d54f6d42908
:100508007926a9c5ce3b68c1171d2bcca000eac827
:10051800a550add6124d6cd2cb6b2fdf7c76eedbbf
:10052800c1cba1e376d660e7aff023ea18ede2ee9f
:100538001dbda5f0aaa064f4738627f9c49be6fd47
:1005480009fdb889bee0798d67c63a80d0dbfb84a7
:10055800d58bbc9a62967d9ebbb03e930cadff973f
:10056800b110b0af060d71abdf2b32a66836f3a21f
:100578006d66b4bcda7b75b8035d36b5b440f7b1c7
:020000040000fa
:020000040040ba
:100588002de9f047aeb00746164605914ff0000832
:10059800059d2b78002b00f0e08000244ff0ff33fe
:1005a800cde909430eab0c9380230b940d932b5d7f
:1005b8000bb1252b30d134b1294622463846254483
:1005c80001f022fb0595059b1a78252a40f0bc808e
:1005d80003f10109cdf814904a46002113782b2b1a
:1005e800104602f1010223d02ed8202b24d0232b31
:1005f80026d001b105902a2b2ed001f017f9059ac3
:100608000b900020114601320b78303b092b79d929
:10061800002830d005912ee00134c8e7099b43f04b
:10062800010309930121d9e7099b43f00203f8e785
:10063800099b43f00403f4e7099b43f00803f0e740
:10064800099b43f01003ece72d2be7d0302bebd0c0
:100658000029d2d00590d0e733681a1d1b68326094
:100668000130002b05900b9305da099a5b4282f062
:10067800010209920b93099bda0744bf23f0020396
:100688000993059b1a782e2a0fd14ff0000acdf84e
:1006980028a05a785d1c2a2a059535d1023305937e
:1006a80033681a1d1b6832600a9305a801f0b6f971
:1006b800059d0390287801f0a1fb2528039900f0f7
:1006c800da806138172800f2e080172800f2dd8010
:1006d800dfe810f02b00db00b6004700a700a700fa
:1006e800a700db004700db00db00db00db009e002f
:1006f80065008300db00db00c700db005600db0081
:10070800db00740001207de7284601f08ff853468e
:100718000a90294601350a78303a092a03d9002b6c
:10072800c3d00591c1e70123f3e7324606a801f0db
:1007380056fa002872d06b1c059306aa2b7809a9d3
:10074800384601f08efb04444444a04540f3a7809a
:10075800544b4f221a604ff0ff3840462eb0bde888
:10076800f0873346012206a800f07cfa002855d00d
:10077800013506aa09a93846059501f070fbe2e79c
:100788003346002206a800f06dfa002846d001354d
:1007980006aa09a93846059501f061fbd3e7334657
:1007a800002206a800f05efa002837d0013506aa14
:1007b80009a93846059501f052fbc4e733460022e3
:1007c80006a800f04ffa48b36b1c05932b7806aacd
:1007d80009a9384600f02cf9b5e733460022f02184
:1007e80006a800f03ffac8b1dde906320135134327
:1007f80005950bd12c4801f09bfa099b00932a49d7
:100808000b9b0246384600f02bfc9ce77823dee77a
:10081800334608eb040206a800f010fd01350595e3
:1008280092e7324606a801f0daf90028f6d06b1ce8
:10083800059306aa2b7809a9384601f012fb82e72e
:100848008029ebd1336801351a1d1b6832608df899
:1008580018300595012306aa09a9384601f003fbbb
:1008680071e78029dad13268131d336001351268c7
:1008780005950023f0e78029d0d1099b0093013525
:100888000b9b059509490122bce700234ff0ff3275
:10089800cdf8149009930b930a920093f2e7a046bf
:1008a80076e600bff00c40205a1e4000601e400053
:020000040000fa
:020000040040ba
:1008b80008b5514b9847514b9847eff3108172b6e2
:1008c8004f4ad2f8883043f47003c2f88830bff337
:1008d8004f8fbff36f8f01b962b64a4b4a4a5a60cd
:1008e8001a46936813f0010ffbd0464bdb6813f4ec
:1008f800c07f15d0454b0c221a60424b444a5a60bf
:100908001a46936813f0010ffbd03e4b414a5a60d8
:100918001a46936813f0010ffbd03f4b3f4a1a6009
:10092800bff34f8fbff36f8f354cd4f8903223f05d
:100938000103c4f89032d4f8943223f00103c4f8c8
:100948009432bff34f8fbff36f8f01f0b9f8344b78
:1009580023f07f03a360334b9847636913f4003f88
:1009680012d1bff34f8fbff36f8f0022c4f850220c
:10097800bff34f8fbff36f8f626942f40032626139
:10098800bff34f8fbff36f8f1d4b5b6913f4803f2d
:100998002bd11b4b0022c3f88420bff34f8fd3f811
:1009a8008030c3f3c904c3f34e334fea431c43f604
:1009b800e07e13480cea0e01234641ea8372c0f830
:1009c8006022013bb3f1ff3ff7d1acf1200c1cf1e1
:1009d800200fefd1bff34f8f094a536943f4803397
:1009e8005361bff34f8fbff36f8f0f4b98470f4b78
:1009f800984701f04af8fee7771e4000771e40004e
:100a080000ed00e0000c0e400d00005ae00c402004
:100a18000c08005a0c07005a00180e40010000a5e7
:100a280000004000a5164000771e4000771e4000d9
:020000040000fa
:020000040040ba
:100a38002de9f04f8bb00d460493d1e901132f68cf
:100a4800d5f80c9003900029a8bf27f0020792461a
:100a5800b8bf012117f010020592dae9006232d01e
:100a680056ea02002fd0a3f1020b2c69029617f068
:100a7800080004f1ff3418bf0bf1ff3b9046002239
:100a880009f8042006905a46012c1edc059a002a13
:100a980051d1069a1ab1013c202209f804202a698a
:100aa80003980097013a121b09eb040100f0d8fae9
:100ab800039b5b68db0503d56b689842b8bf184693
:100ac8000bb0bde8f08f9b46cfe7029850ea0800cc
:100ad80008d1a1eb0b001044002803dc002ad5dd67
:100ae800b807d3d50298049e00f00f000928a6f194
:100af800410cd4bf30305730bcf1190f04f1ff342a
:100b08000ed840f0200cacf1610cbcf1190f07d8dd
:100b1800cde90813079201f078f9dde90813079a7f
:100b280009f804000298060946ea0870013a02909a
:100b38004fea1818a8e7dae900210a43a9d009eb17
:100b48000402049902f8011c023c302209f804202e
:020b58009fe715
:020000040000fa
:020000040040ba
:020b5a00fee7b4
:020000040000fa
:020000040040ba
:100b5c00c00c40202000000000000000600c402071
:100b6c006000000000000000e00c402004000000c9
:100b7c0000000000f80c4020800000000100000084
:100b8c00001c0e40000000000000000000000000ef
:100b9c000000000000000000000000000000000049
:100bac000000000000000000000000000000000039
:100bbc000000000000000000000000000000000029
:100bcc000000000000000000000000000000000019
:100bdc000000000000000000000000000000000009
:100bec0000000000200440202000402000040000f1
:100bfc0000040000000000000000000000000000e5
:100c0c00200040200008000000000000f40c4020f0
:100c1c000100000000000000e40c40200400000073
:100c2c000000000020084020f0030000000000003d
:100c3c00e80c40200400000000000000100c4020d4
:100c4c005000000000000000ec0c402008000000e8
:100c5c0000000000000000000000000066666666f0
:020000040000fa
:020000040040ba
:100c6c00902910b50fdc7f2913dd8039102910d89d
:100c7c00dfe801f02b2b360f110f0f0f200f0f0f8a
:100c8c000f0f0f0f3600c02944d0f02942d0a029f5
:100c9c0021d000200de019682ab10a1d1a60b1f9a3
:100cac000030da1702e00c1d1c600b88c0e9003222
:100cbc00012010bd196822b10a1d1a6091f900308b
:100ccc00efe70c1d1c600b78f0e71968f2b10a1df8
:100cdc001a600b68e5e71a68111d19601368e0e7e4
:100cec00196852b1073121f0070101f108021a60ad
:100cfc00d1e90023c0e90023dae7ca1d22f007027c
:100d0c0002f108011960d2e90023f3e70c1d1c6005
:100d1c000b68cbe71a68111d196013680360002378
:040d2c004360c5e774
:020000040000fa
:020000040040ba
:100d300010b582b004460df1070000f09fff024697
:100d4000002851d12378042b46d8dfe803f0030aaa
:100d5000102134009df80730aa2becd10123237019
:100d6000e9e79df80730237102232370e3e79df83c
:100d70000730fc2b02d906232370dce763710022c5
:100d8000a4f80821934214bf032304232370d2e75d
:100d9000b4f80821531c9bb2a4f8083122449df8f2
:100da0000710917162799a42c5d80023a4f80831de
:100db00004232370bfe7b4f80831591ca4f80811c4
:100dc00023449df8071083f80411b4f80831032b6d
:100dd000b1d90523237008e000232370a4f808315b
:100de000c4f80c31012200e00422104602b010bd0c
:020000040000fa
:020000040040ba
:100df00000222c4bc3f814212b494ff4c0634b60e5
:100e00006ff4c0630b604ff0ff334b650b66c1f8a6
:100e10009030c1f8a0304ff4000008616ff400007a
:100e200048618a63c1f8182101f500710b604b65b8
:100e30000b66c1f89030c1f8a0300a614b618a633b
:100e4000c1f8182101f500710b604b650b66c1f804
:100e50009030c1f8a0300a614b618a63c1f8182153
:100e600001f500714ff0a04048606ff0a0400860ad
:100e70004b650b66c1f89030c1f8a0300a614b6138
:100e80008a63c1f8182101f500710b604b650b6690
:100e9000c1f89030c1f8a0300a614b618a63c1f893
:0c0ea0001821704700800840000e0e4032
:020000040000fa
:020000040040ba
:100eac0000284bd038b50c46054600293ed00b78af
:100ebc00013b042b3cd8dfe803f0032e0512340071
:100ecc00002034e040211e4800f05afe002831d1a9
:100edc001b4b6b600023ab6001232b7027e0037866
:100eec00013bdbb2012b01d9012020e0154a13682c
:100efc00013313604a780231406800f073fad8b9b4
:100f0c0062786b6813446b606278ab681344ab60b7
:100f1c0002232b700be0fc21a01c00f0e3fe002050
:100f2c0005e0094b01221a70002000e0032038bdb7
:100f3c000120fce70120fae70120f8e703207047c5
:0c0f4c0000c04000e40c4020f40c4020e9
:020000040000fa
:020000040040ba
:100f580030b585b00446051d2846fff7e5fe20b1eb
:100f68001e4b1b787bbb05b030bd6946284600f098
:100f780015ff0028f4d1012384f82831009800f0e7
:100f8800fdfaa8b1009904f58a70fff78bff38b90c
:100f980079238df80430012101a800f0a5fe0ee0a8
:100fa8001f238df80830012102a800f09dfe06e0fd
:100fb8001f238df80c30012103a800f095fe284668
:100fc80000f015ffcce70521054800f08dfe00f084
:100fd80009f8024b00221a70c5e700bff40c402044
:040fe800e4174000ca
:020000040000fa
:020000040040ba
:100fec0010b5c0b04ff480720021684600f0cafe04
:100ffc00164c402322681649684600f066fe4021d4
:10100c00684600f06ffe102000f078fe4023626806
:10101c001049684600f059fe4021684600f062fe17
:10102c00102000f06bfe72b6bff34f8fbff36f8fc3
:10103c00094b9c60bff34f8fbff36f8f62b6236871
:10104c0083f308886368984740b010bd00c0400027
:0c105c00b8174000d017400000ed00e085
:020000040000fa
:020000040040ba
:101068002de9ff471d460c9b13f0010806460f4665
:10107800144601d195420bd822463946304600f035
:10108800c3fda54204d82546284604b0bde8f0872c
:10109800a5eb04094a46102a28bf102220216846d9
:1010a800ca4600f071fe00bfbaf10f0f0ed809f062
:1010b8000f026946304600f0a7fdb8f1000fe3d1f2
:1010c80022463946304600f09ffddde7102269468a
:0c10d800304600f099fdaaf1100ae5e78f
:020000040000fa
:020000040040ba
:1010e40000b5a1f5800e4fea5e2e00f1100c034608
:1010f400081a1a681a5004336345fad1114b5b6914
:1011040013f4803f11d001f01f02bff34f8f0b4641
:101114000c4810310a44c0f868322033d11a00292f
:10112400f9dcbff34f8fbff36f8f074a02ea0e2239
:10113400064b1343064a5360064b00221a600120f3
:101144005df804fb00ed00e000ffff000100005a21
:08115400000c0e40dc0c4020f1
:020000040000fa
:020000040040ba
:10115c0030b583b004460268536913f0e00f04d134
:10116c0013f0010f1dd0051d22e0012380f875300e
:10117c00c36f0133c3674ff4807313600268536904
:10118c0013f0010f09d09369dbb28df807309df88d
:10119c000730536913f0010ff5d1e023d3602268b7
:1011ac00936003b030bd23685b6913f0010ff8d076
:1011bc0023689969c9b2284600f04afc0028f2d18c
:0811cc00a36f0133a367eee7f6
:020000040000fa
:020000040040ba
:1011d40030b583b0144cb4f86c300093636e134a8a
:1011e4000121201d00f0a0fcb4f870300093a36e20
:1011f4000f4a022104f1340000f096fc002584f823
:10120400745084f87550a567e5672146094800f0d5
:101214000bfe2146084800f001fe084be1229a60cb
:10122400284603b030bd00bff80c4020a017400092
:10123400ac1740005d114000eb194000001c0e404b
:020000040000fa
:020000040040ba
:10124400902910b50fdc7f2911dd803910290ed8c3
:10125400dfe801f00f0f250d170d0d0d1e0d0d0dff
:101264000d0d0d0d2500a02903d0c02901d00020ab
:1012740006e019680c1d1c600b6803601a600120ed
:1012840010bd19680c1d1c600b6803601a80f6e71a
:1012940019680c1d1c600b6803601a70efe719686d
:1012a4000c1d1c600b680360d117c3e90021e6e73d
:020000040000fa
:020000040040ba
:1012b400174b184a9a621a46936e13f0020ffbd02a
:1012c400134a136b23f070031363936e13f0080f28
:1012d400fbd00f4a136b23f4407343f480731363fe
:1012e400936e13f0080ffbd0094a136b23f003032a
:1012f40043f002031363936e13f0080ffbd0044b07
:10130400054a1a614ff40052c3f80021704700bf28
:0c13140000060e40013f1820801c030062
:020000040000fa
:020000040040ba
:1013200038b5174b1b7d4bb3154b5c689b68154a52
:10133000526912f0020f0fd09c420dd9104d114985
:101340002a68c869d25c0243ca6101334a6912f053
:10135000020f01d09c42f3d8094a93609368a342dc
:101360000cd3134600221a75064a4ff40071d1605f
:10137000db681bb1024b1869db68984738bd00bfba
:08138000600c4020001c0e402f
:020000040000fa
:020000040040ba
:1013880038b5174b1b7d4bb3154b5c689b68154aea
:10139800526912f0020f0fd09c420dd9104d11491d
:1013a8002a68c869d25c0243ca6101334a6912f0eb
:1013b800020f01d09c42f3d8094a93609368a34274
:1013c8000cd3134600221a75064a4ff40071d160f7
:1013d800db681bb1024b1869db68984738bd00bf52
:0813e800900c402000080e40ab
:020000040000fa
:020000040040ba
:1013f000f0b585b006460f4615461ab32c46102d9b
:1014000028bf10244ff0ff330093019302930393fe
:1014100022463946684600f083fc31466846fff7ad
:1014200061fe88b100f01afc0028fbd1084a4ff495
:101430007c71084800f0d0fc103627442d1bddd10c
:10144000002002e0002000e0012005b0f0bd00bf58
:0814500000c04000200840200c
:020000040000fa
:020000040040ba
:1014580010b4144b5b6913f4803f12d000f01f02e4
:10146800bff34f8f03460f4c00f500511144c4f8e9
:101478005c322033ca1a002af9dcbff34f8fbff35e
:101488006f8fa0f58000c0f34f200002064b034386
:10149800064a5360064b00221a6001205df8044b8f
:1014a800704700bf00ed00e00702005a000c0e4034
:0414b800dc0c4020e8
:020000040000fa
:020000040040ba
:1014bc0038b5164b93f82c303bb3144bdc691b6ad4
:1014cc00134a526912f0010f0dd09c420bd9104aed
:1014dc000e4d9069a969c8540133516911f0010f7f
:1014ec0001d09c42f5d8094a1362136aa3420cd36b
:1014fc001346002283f82c20054ae121d1605b6a57
:10150c001bb1024b986a5b6a984738bd600c40204f
:04151c00001c0e4061
:020000040000fa
:020000040040ba
:1015200038b5164b93f82c303bb3144bdc691b6a6f
:10153000134a526912f0010f0dd09c420bd9104a88
:101540000e4d9069a969c8540133516911f0010f1a
:1015500001d09c42f5d8094a1362136aa3420cd306
:101560001346002283f82c20054ae121d1605b6af2
:101570001bb1024b986a5b6a984738bd900c4020bb
:0415800000080e4011
:020000040000fa
:020000040040ba
:1015840070b582b0451e034613f8016f1e444ff038
:10159400ff314ff0000e0df1080c114c01e0b54283
:1015a40015d015f8013f8df804e08df805e08df8ad
:1015b40006e08df8073001aa12f8013b83ea1163b3
:1015c40054f8233083ea01216245f5d1e7e7d0f8e6
:1015d4000001884214bf0020012002b070bd00bf8a
:0415e400880140003a
:020000040000fa
:020000040040ba
:1015e80008b5154b5b6913f0e00f0cd0124be122e4
:1015f800da60124b002283f82c205b6a1bb10f4b78
:10160800986a5b6a98470c4b5b6913f0010f05d128
:10161800094b5b6913f0020f07d108bdfff74affba
:10162800064b986a5b6a9847f2e7fff775fe034b2b
:101638001869db689847f0e7001c0e40600c4020f2
:020000040000fa
:020000040040ba
:10164800134bd96821f4e0610904090c114a0a43d3
:10165800da60bff35f8f62b60f4ae02182f80713a2
:101668008020106082f82d134ff4005151605a6a9f
:1016780042f480225a625a6942f010025a615a6a48
:1016880042f400325a625a6a42f480325a6270470f
:0c16980000ed00e00000fa0500e100e0b9
:020000040000fa
:020000040040ba
:1016a4000e4a38b5002313600d4a0e4c13600e4adf
:1016b4000e4d13600e4a13600e4a13600e4a5362b5
:1016c40013610123936000f0d6fb00f0d4fbac421d
:1016d40000d338bd54f8043b9847f8e7ec0c40209d
:1016e4001c0c402074014000180c4020780140007c
:0c16f400100c4020140c4020200c402062
:020000040000fa
:020000040040ba
:1017000008b5114b5b6913f0e00f0cd00e4be122d2
:10171000da600e4b002283f82c205b6a1bb10b4b66
:10172000986a5b6a9847084b5b6913f0010f05d113
:10173000054b5b6913f0020f03d108bdfff7f0fe04
:10174000f6e7fff721fef8e700080e40900c402076
:020000040000fa
:020000040040ba
:1017500010b54ff0ff3c88b00c4611461a464ff4c6
:101760008173cde901c300b96846cde9030454b1e2
:10177000631e002c059308da084b4f221a604ff0c5
:10178000ff3008b010bd2346f3e70023cde9060083
:10179000037001a800f091faf3e700bff00c4020bd
:020000040000fa
:020000040040ba
:1017a00055415254335f5258000000005541525485
:1017b000335f545800000000537461636b506f69cd
:1017c0006e74657256616c75653a2025580a000082
:1017d000526573657448616e646c65723a20255871
:0a17e0000a000000313233340a0021
:020000040000fa
:020000040040ba
:1017ea002de9f041e1b116460d46cab100f0b7fa4b
:1017fa008046b8b1013d002400f1340715f8011ff5
:10180a00384600f026f930b10134a642f6d84046ef
:10181a0000f0c9f801e0002cf9d12046bde8f081ba
:08182a000024fae70024f8e7ae
:020000040000fa
:020000040040ba
:02183200fee7cf
:020000040000fa
:020000040040ba
:101834000278202a034600f10100f9d0a2f109013f
:101844000429f5d92b2a06d02d2a13d101210133dd
:10185400013b002006e00021f9e700bf00eb800017
:10186400c2eb400013f8012f303a092af6d901b926
:08187400404270470021ebe740
:020000040000fa
:020000040040ba
:10187c0010b5054c237833b9044b13b10448aff3be
:10188c0000800123237010bdc00c4020000000001c
:10189c000000000008b5034b1bb103490348aff32c
:1018ac00008008bd00000000c40c402000000000b7
:020000040000fa
:020000040040ba
:1018bc0030b40446481e07e010f8011f03f8011b62
:1018cc00551e39b12a461c462346002af4d120461f
:1018dc0030bc7047a0183db103f8011b8342fbd10b
:1018ec00002cf4d130bc70471846002cefd1f9e72e
:020000040000fa
:020000040040ba
:1018fc000c4b4ff486721a6050221a604ff400623f
:10190c005a6051221a62084b00229a61da611a62fb
:10191c0083f82c205a621a605a609a601a75da6041
:0c192c00704700bf001c0e40600c402003
:020000040000fa
:020000040040ba
:101938000c4b4ff486721a6050221a604ff4006202
:101948005a6051221a62084b00229a61da611a62bf
:1019580083f82c205a621a605a609a601a75da6005
:0c196800704700bf00080e40900c4020ab
:020000040000fa
:020000040040ba
:10197400f0b5002503462e46954207d313f0030223
:1019840018bf0122181a02eb9000f0bd1c7834b184
:1019940001f8014b01330135eee70e5501345f7850
:0c19a400a742fadc214425440233e5e7a9
:020000040000fa
:020000040040ba
:1019b00090f8743003b1704710b582b004460df151
:1019c0000701343000f0caf868b1012384f874309c
:1019d00023685a6912f0020f02d09df80720da61dd
:0a19e000236802229a6002b010bdd5
:020000040000fa
:020000040040ba
:1019ea0003685b6913f0020f00d1704710b582b02b
:1019fa0004460df10701343000f0abf828b1236832
:101a0a009df80720da6102b010bd23680222da606d
:081a1a00002384f87430f6e7a4
:020000040000fa
:020000040040ba
:021a2200fee7dd
:020000040000fa
:020000040040ba
:101a240030b50c4a0146002012f810301bb902eb05
:101a34004002507830bd0c6825789d4209bf02eb06
:101a44004003431c5878013414bfd8b20c600a28f0
:081a5400ead9efe7501d400044
:020000040000fa
:020000040040ba
:101a5c00438d01339bb2028d9a4208bf0023828dc5
:101a6c00bff35b8f92b29a4201d10020704710b441
:101a7c00428d92b2446aa154bff35b8f438501201f
:061a8c005df8044b7047f9
:020000040000fa
:020000040040ba
:101a920000b5cdb0002000f030f84ff4967200216e
:101aa20001a800f074f94ff4fa630093fff791fb79
:101ab200694601a800f0bff801a8fff74cfa202000
:061ac20000f021f9f8e735
:020000040000fa
:020000040040ba
:101ac80038b50a480a4d016821b9436813b900f0ce
:101ad800cff938bd0389426855f8233000f10c046a
:101ae8002046984704eb8000ede700bf5c0b400000
:041af8007c1d400011
:020000040000fa
:020000040040ba
:101afc0008b500f063f9fff7d7fbfff773f9fff7b1
:101b0c00f7fefff713ff4ff40043044a5360a2f5ae
:101b1c0080725365fff792fd08bd00bf00190e409f
:020000040000fa
:020000040040ba
:101b2c0070b504460e4611461d4640f8046b1f2244
:101b3c0000f07cf9002284f823206562bdf8103097
:101b4c002385bff35b8f6285bff35b8fa28570bd6e
:020000040000fa
:020000040040ba
:101b5c00838d9bb2428dbff35b8f92b293420dd0bb
:101b6c00426ad25c0a7001339bb2028d9a4208bf62
:101b7c000023bff35b8f83850120704700207047e3
:020000040000fa
:020000040040ba
:101b8c0089b170b504460e4600252046fff75efc71
:101b9c0058b100f05df80028fbd104f50054013574
:0e1bac00ae42f2d102e000207047012070bd71
:020000040000fa
:020000040040ba
:101bba0000b583b000f0d3f850b10df1070104303d
:101bca00fff7c7ff38b19df8070003b05df804fbc3
:0c1bda004ff0ff30f9e74ff0ff30f6e766
:020000040000fa
:020000040040ba
:101be600812903dc7f2903dc002070478329fbd190
:101bf6001368073323f0070303f108011160d3e9e3
:0a1c06000023c0e90023012070470d
:020000040000fa
:020000040040ba
:101c100038b503699a4228bf1a460446154652b1a0
:101c2000406900f07df8636922692b44521b2261f0
:081c3000002263611a7038bd47
:020000040000fa
:020000040040ba
:101c380010b504460b6840f8043b00f0d1f804f5f1
:101c48008a7000f001f90023c4f8243184f828319f
:021c580010bdbd
:020000040000fa
:020000040040ba
:021c5a00fee7a3
:020000040000fa
:020000040040ba
:101c5c00054b9868054b1a681043186080f001001a
:101c6c0000f00100704700bf000c0e40dc0c40205f
:020000040000fa
:020000040040ba
:101c7c0010b504460548fff79affb0f1ff3f02d0bc
:101c8c002070002010bd0120fce700bf001c0e409e
:020000040000fa
:020000040040ba
:101c9c0010b50023934206d113f0030018bf0120a6
:0e1cac0000eb930010bdc45ccc540133f2e792
:020000040000fa
:020000040040ba
:101cba0013b50446019201aafef761fc636813f0aa
:0c1cca00100f18bf4ff0ff3002b010bd2b
:020000040000fa
:020000040040ba
:101cd6000eb403b503aa52f8041b019200f0aff844
:0a1ce60002b05df804eb03b0704794
:020000040000fa
:020000040040ba
:101cf00008b50a4601460348fff777fdb0fa80f0c1
:081d0000400908bd001c0e4063
:020000040000fa
:020000040040ba
:101d0800044b03fb00f0002300bf01338342fbdddb
:081d1800704700bf40420f00bc
:020000040000fa
:020000040040ba
:101d20004ab1431e84460a4411f8010b03f8010f1f
:081d30009142f9d160467047b1
:020000040000fa
:020000040040ba
:101d380003783bb1034600bf13f8012f002afbd1fb
:081d4800181a70471846704795
:020000040000fa
:020000040040ba
:101d500068076c094c836a9074a07ac00080688818
:061d600000846c8200818a
:020000040000fa
:020000040040ba
:021d6600fee796
:020000040000fa
:020000040040ba
:101d6800034b1a6882420cbf18460020704700bf18
:041d7800f80c402003
:020000040000fa
:020000040040ba
:101d7c00b71d40009d1c4000631e4000631e4000c8
:041d8c007519400085
:020000040000fa
:020000040040ba
:101d900032b1c9b20244034603f8011b9a42fbd197
:041da000704700bfc9
:020000040000fa
:020000040040ba
:101da4000378052b01d0012070470430086000201f
:021db400704776
:020000040000fa
:020000040040ba
:101db6000a440023914201d10020704701f8013bfb
:021dc600f8e73c
:020000040000fa
:020000040040ba
:101dc800014b024a1a607047000c0e4000060004de
:020000040000fa
:020000040040ba
:101dd80008b513460a461946fff79eff012008bdbd
:020000040000fa
:020000040040ba
:0e1de80000230370a0f80831c0f80c317047da
:020000040000fa
:020000040040ba
:0e1df60000230370a0f80831c0f80c317047cc
:020000040000fa
:020000040040ba
:0e1e0400a0f14103192b98bf40f02000704759
:020000040000fa
:020000040040ba
:0e1e1200a0f16103192b98bf00f05f0070472c
:020000040000fa
:020000040040ba
:0c1e2000014bd86019617047600c402035
:020000040000fa
:020000040040ba
:0c1e2c00014b586299627047600c402026
:020000040000fa
:020000040040ba
:0c1e380010b50446fff73efd204610bd2b
:020000040000fa
:020000040040ba
:0c1e440013460a466ff00041fff780bc17
:020000040000fa
:020000040040ba
:0a1e5000002303708360c360704735
:020000040000fa
:020000040040ba
:081e5a00286e696c29002500c7
:020000040000fa
:020000040040ba
:041e620000207047a5
:020000040000fa
:020000040040ba
:041e660000207047a1
:020000040000fa
:020000040040ba
:041e6a00002070479d
:020000040000fa
:020000040040ba
:041e6e000020704799
:020000040000fa
:020000040040ba
:021e7200fee789
:020000040000fa
:020000040040ba
:021e7400fee787
:020000040000fa
:020000040040ba
:021e76007047b3
:020000040000fa
:020000040040ba
:021e78007047b1
:020000040000fa
:020000040040ba
:021e7a007047af
:020000040000fa
:02000004d0002a
:0400000002000000fa
:00000001FF
