:020000040000fa
:020000040040ba
:10c00000f8ff452029274300bdd04300c3d043009b
:10c01000cfd04300d5d04300dbd043000000000068
:10c02000000000000000000000000000f1b6430026
:10c03000c9d0430000000000e1544300c186430022
:10c0400017d5400017d5400017d5400017d5400040
:10c0500017d5400017d5400017d5400017d5400030
:10c0600017d540000000000017d5400017d540004c
:10c0700017d540009583420017d54000dd7b420074
:10c0800017d5400017d5400017d5400017d5400000
:10c0900017d5400017d5400017d5400017d54000f0
:10c0a00017d5400017d5400017d5400017d54000e0
:10c0b00017d5400017d5400017d5400017d54000d0
:10c0c00017d5400017d54000d3cf430017d5400007
:10c0d00017d540008963420017d5400017d54000ae
:10c0e00017d5400017d5400017d5400017d54000a0
:10c0f000d921430017d5400017d5400017d540007f
:10c1000017d5400017d54000d992430017d54000fd
:10c1100017d5400017d540000000000000000000c7
:10c1200017d5400017d5400017d5400017d540005f
:10c1300017d5400017d540000000000017d540007b
:10c1400017d5400017d5400017d5400017d540003f
:10c1500017d5400017d5400017d5400017d540002f
:08c1600017d5400017d540007f
:020000040000fa
:020000040040ba
:10c16800f8b500bff8bc08bc9e467047fd91430077
:10c17800f8b500bff8bc08bc9e467047d99143008b
:020000040000fa
:020000040040ba
:08c18800fcd5000001000000dd
:020000040000fa
:020000040040ba
:10c19000556c746973000000646576005072696eb6
:10c1a00074206c697374206f6620646576656c6fab
:10c1b00070657220636f6d6d616e647300000000c6
:10c1c00068656c70000000005072696e74206c69c4
:10c1d0007374206f6620636f6d6d616e6473205b96
:10c1e0004669726d776172653a20315d000000002a
:10c1f000636c7300436c65617273207468652063bf
:10c200006f6e736f6c65000054696d65000000000f
:10c210007274635f736574005365742052544320d5
:10c2200074696d653a207274635f736574203c684d
:10c230003e203c6d3e203c733e203c44443e203c2e
:10c240004d4d3e203c59593e000000007274635f22
:10c2500067657400476574205254432e20557361fe
:10c2600067653a207274635f676574203c68617229
:10c27000647c736f66747c776f726b7c65706f63c0
:10c28000687c616c6c3e000065706f63685f73650d
:10c2900074000000536574205254432074696d6526
:10c2a0002062792065706f63683a207274635f73ef
:10c2b000657465706f6368203c65706f63683e00ed
:10c2c00053797374656d00006f735f7374617400ec
:10c2d000436865636b204672656552544f53207402
:10c2e00061736b733a206f735f7374617400000045
:10c2f000646d6573670000005072696e7420646d30
:10c30000657367206c6f67733a20646d657367208f
:10c310005b4e5d004652414d000000006672616d4b
:10c320005f69640052656164204652414d20494472
:10c330003a206672616d5f69640000006672616d2b
:10c340005f7772697465000057726974652062795d
:10c3500074653a206672616d5f7772697465203c1e
:10c36000616464723e203c76616c313e205b766194
:10c370006c325d202e2e2e006672616d5f726561db
:10c3800064000000526561642062797465733a202c
:10c390006672616d5f72656164203c616464723ec7
:10c3a000203c6c656e3e00006672616d5f77737451
:10c3b00072000000577269746520737472696e6749
:10c3c0003a206672616d5f77737472203c616464b9
:10c3d000723e203c737472696e673e006672616dd6
:10c3e0005f7273747200000052656164207374722e
:10c3f000696e673a206672616d5f72737472203c79
:10c40000616464723e203c6d61786c656e3e000034
:10c410006672616d5f7465737400000052756e2002
:10c420004652414d20746573743a206672616d5fa7
:10c43000746573740000000043414e0063616e5fd9
:10c4400073656e64000000005261772043414e3aec
:10c450002063616e5f73656e64203c69643e205b9f
:10c460006578745d205b62302062312e2e2e5d0077
:10c47000435350006373705f70696e670000000083
:10c480004353502070696e673a206373705f706920
:10c490006e67203c646573745f616464723e205b08
:10c4a00074696d656f75745f6d735d006373705f44
:10c4b00073656e64000000004353502073656e6422
:10c4c0003a206373705f73656e64203c61646472cc
:10c4d0003e203c706f72743e203c646174612e2e6d
:10c4e0002e3e00006373705f696e666f000000008f
:10c4f000435350207374617475733a206373705f93
:10c50000696e666f00000000506172616d0000008e
:10c51000706172616d5f73686f77000053686f7749
:10c5200020616c6c206669656c6473206f662061a5
:10c53000207461626c653a20706172616d5f73682e
:10c540006f77203c7461626c655f696420302d34c4
:10c550003e000000706172616d5f736574000000e1
:10c560005365742061206669656c6420696e206182
:10c57000207461626c653a20706172616d5f7365f1
:10c5800074203c7461626c655f69643e203c616448
:10c5900064723e203c747970653e203c76616c7517
:10c5a000653e000072657365740000005265736536
:10c5b00074204d43553a2072657365740000000085
:10c5c0001b5b324a0000000055736167653a2072b8
:10c5d00074635f736574203c686f75723e203c6db8
:10c5e000696e7574653e203c7365636f6e643e20b2
:10c5f0003c6461793e203c6d6f6e74683e203c79ee
:10c600006561723e00000000496e76616c696420cd
:10c61000686f757220286d75737420626520302de7
:10c620003233292e20506c6561736520656e746508
:10c630007220616761696e2e00000000496e7661ac
:10c640006c6964206d696e75746520286d757374ee
:10c6500020626520302d3539292e20506c6561739c
:10c660006520656e74657220616761696e2e0000d9
:10c67000496e76616c6964207365636f6e6420280f
:10c680006d75737420626520302d3539292e205048
:10c690006c6561736520656e7465722061676169a0
:10c6a0006e2e0000496e76616c69642064617920a9
:10c6b000286d75737420626520312d3331292e2049
:10c6c000506c6561736520656e7465722061676189
:10c6d000696e2e00496e76616c6964206d6f6e74b0
:10c6e0006820286d75737420626520312d313229e0
:10c6f0002e20506c6561736520656e7465722061d3
:10c700006761696e2e000000496e76616c69642075
:10c710007965617220286d757374206265203220fe
:10c720006469676974732c20652e672e2c2032355e
:10c7300020666f722032303235292e20506c6561b0
:10c74000736520656e74657220616761696e2e0085
:10c750002d2d3e205254432073657420746f202584
:10c760003032643a253032643a253032642c202548
:10c770003032642f253032642f323025303264005d
:10c780000000000055736167653a207274635f674b
:10c790006574203c686172647c736f66747c776f2b
:10c7a000726b7c65706f63687c616c6c3e0000002e
:10c7b00068617264000000004661696c6564207401
:10c7c0006f206765742068617264205254430d0abb
:10c7d00000000000736f6674000000002d2d3e20e5
:10c7e000536f6674205254433a2054696d653a2061
:10c7f000253032643a253032643a253032642c20b8
:10c80000446174653a20253032642f253032642f1c
:10c810003230253032640000776f726b0000000008
:10c820002d2d3e20576f726b696e672055707469ad
:10c830006d653a2054696d653a20253032643a2599
:10c840003032643a253032642c20446179733a20c6
:10c850002564000065706f63680000002d2d3e2088
:10c8600045706f63683a20256c750000616c6c0040
:10c87000556e6b6e6f776e206d6f64652e205573ed
:10c88000653a207274635f676574203c6861726406
:10c890007c736f66747c776f726b7c65706f636896
:10c8a0007c616c6c3e00000055736167653a2072d4
:10c8b00074635f73657465706f6368203c65706f47
:10c8c00063683e00496e76616c69642065706f63d1
:10c8d000682e204d757374206265203e3d20256cc6
:10c8e000750000004e756d626572206f6620746180
:10c8f000736b732072756e6e696e673a20256c7566
:10c90000000000004e6f207461736b7320666f75ba
:10c910006e64206f72206572726f72206f63637530
:10c92000727265642e000000546f74616c20546153
:10c93000736b733a20256c75000000005461736bb3
:10c94000204e616d652020202020202020202053b3
:10c950007461746520202020205072696f2020535c
:10c960007461636b204c6566740000002d2d2d2dc5
:10c970002d2d2d2d2d2d2d2d2d2d2d2d2d2d2d2de7
:10c980002d2d2d2d2d2d2d2d2d2d2d2d2d2d2d2dd7
:10c990002d2d2d2d0000000052756e6e696e670002
:10c9a0005265616479000000426c6f636b656400de
:10c9b00053757370656e640044656c6574656400de
:10c9c000556e6b6e6f776e00252d31387320252dd7
:10c9d00031307320252d346c75202531306c750075
:10c9e000446d657367202d204c6f67676572204d1d
:10c9f0006573736167653a002d2d3e204f6c646549
:10ca00007374203e3e0000002d2d3e204c61746565
:10ca10007374203c3c0000004c61746573742025e5
:10ca20006c75204c6f67733a000000002d2d3e207e
:10ca30004652414d204465766963652049443a0079
:10ca4000202020204d616e75666163747572657279
:10ca50003a20307825303258202530325820253081
:10ca600032582025303258002020202050726f6428
:10ca70007563742049443a2020203078253032589c
:10ca800020253032580000002020202044656e739d
:10ca90006974793a202020202020307825303258bf
:10caa0002025303258202530325800002d2d3e20d0
:10cab0004661696c656420746f2072656164204909
:10cac000443a20256400000055736167653a20668a
:10cad00072616d5f7772697465203c616464723e57
:10cae000203c76616c313e205b76616c325d202e9d
:10caf0002e2e00004578616d706c653a206672617b
:10cb00006d5f77726974652030783130302030780d
:10cb100041412030784242203078434300000000f9
:10cb20004572726f723a204e6f2064617461207496
:10cb30006f207772697465002d2d3e2057726974dd
:10cb400074656e20257520627974657320746f207a
:10cb5000616464726573732030782530366c5800d8
:10cb60002d2d3e205772697465206661696c65647d
:10cb70003a2025640000000055736167653a20661d
:10cb800072616d5f72656164203c616464723e2015
:10cb90003c6c656e3e0000004578616d706c653ad6
:10cba000206672616d5f726561642030783130306b
:10cbb000203136004572726f723a204c656e677490
:10cbc00068206d75737420626520312d3235360012
:10cbd0002d2d3e2052656164202575206279746593
:10cbe000732066726f6d20616464726573732030a8
:10cbf000782530366c583a002020202025303458d3
:10cc00003a20000025303258200000002d2d3e2013
:10cc100052656164206661696c65643a2025640030
:10cc200055736167653a206672616d5f77737472e0
:10cc3000203c616464723e203c737472696e673e8e
:10cc4000000000004578616d706c653a2066726185
:10cc50006d5f7773747220307832303020224865ef
:10cc60006c6c6f204652414d212200004572726f5c
:10cc7000723a20537472696e6720746f6f206c6f04
:10cc80006e6720286d6178203235352063686172c7
:10cc9000732900002d2d3e205772697474656e2033
:10cca000737472696e6720282575206279746573c4
:10ccb0002920746f2030782530366c580000000031
:10ccc0002020202022257322000000005573616778
:10ccd000653a206672616d5f72737472203c6164a4
:10cce00064723e203c6d61786c656e3e0000000011
:10ccf0004578616d706c653a206672616d5f727324
:10cd00007472203078323030203634004572726fc1
:10cd1000723a204d6178206c656e677468206d757d
:10cd2000737420626520312d323536002d2d3e2062
:10cd30005265616420737472696e672066726f6dec
:10cd400020616464726573732030782530366c58c6
:10cd50003a0000003d3d3d204652414d20436f6d5d
:10cd600070726568656e73697665205465737420aa
:10cd70003d3d3d005b315d2052656164696e672019
:10cd80004465766963652049442e2e2e000000001c
:10cd90002020202049443a202530325820253032a6
:10cda000582025303258202530325820253032582e
:10cdb0002025303258202530325820253032582056
:10cdc00025303258000000002020202050415353cd
:10cdd00000000000202020204641494c00000000b7
:10cde0005b325d2057726974696e67207465737475
:10cdf000207061747465726e20746f2030782530f5
:10ce0000366c582e2e2e00005b335d205265616417
:10ce1000696e67206261636b20616e642076657263
:10ce2000696679696e672e2e2e0000002020202072
:10ce3000446174612076657269666965643a205060
:10ce4000415353002020202044617461206d697398
:10ce50006d617463683a204641494c0020202020cf
:10ce600045787065637465643a00000020202020d6
:10ce70002530325820253032582025303258202590
:10ce80003032582025303258202530325820253075
:10ce90003258202530325820253032582025303263
:10cea000582025303258202530325820253032582d
:10ceb0002025303258202530325820253032580075
:10cec0002020202052656365697665643a00000081
:10ced0002020202052656164206661696c65643a97
:10cee000204641494c0000005b345d20546573745a
:10cef000696e6720737472696e67206f7065726106
:10cf000074696f6e732e2e2e000000004652414d44
:10cf10002054657374204f4b2100000020202020f6
:10cf2000537472696e672076657269666965643ae2
:10cf300020222573220000002020202053747269d3
:10cf40006e67206d69736d617463683a204641496c
:10cf50004c00000020202020537472696e672077f7
:10cf600072697465206661696c65643a204641495e
:10cf70004c0000003d3d3d205465737420436f6daf
:10cf8000706c657465203d3d3d000000001122334a
:10cf9000445566778899aabbccddeeff557361676f
:10cfa000653a2063616e5f73656e64203c69643e20
:10cfb000205b6578745d205b6230206231202e2e0c
:10cfc0002e2062375d000000202063616e5f736574
:10cfd0006e64203078313030203078414120307814
:10cfe000424220202020202020287374616e64613a
:10cff00072642900202063616e5f73656e64203067
:10d0000078313233343520657874203078414120ce
:10d01000307842422028657874656e646564290022
:10d020006578740048696e743a204944203e203087
:10d03000783746462c206164642027657874272061
:10d04000666f7220657874656e64656420667261cf
:10d050006d650000202063616e5f73656e64203033
:10d06000783132333435206578742030784141008e
:10d0700045585400535444002d2d3e205458204f01
:10d080004b205b25735d3a2049443d3078256c5830
:10d0900020444c433d2575002d2d3e2054582046fc
:10d0a00041494c454400000055736167653a20636f
:10d0b00073705f70696e67203c646573745f616450
:10d0c00064723e205b74696d656f75745f6d735d2e
:10d0d000000000002d2d3e2050696e67696e6720ac
:10d0e000435350206e6f6465202575202874696d48
:10d0f000656f757420256c756d73292e2e2e0000ba
:10d100002d2d3e205265706c792066726f6d202542
:10d11000753a2074696d653d2564206d73000000cb
:10d120002d2d3e204e6f207265706c792066726fd7
:10d130006d202575202874696d656f757429000050
:10d1400055736167653a206373705f73656e642021
:10d150003c616464723e203c706f72743e203c649b
:10d160006174613e000000004578616d706c653a45
:10d17000206373705f73656e642032203130204805
:10d18000656c6c6f000000002d2d3e20436f6e6ead
:10d19000656374696f6e206661696c656400000088
:10d1a0002d2d3e2042756666657220616c6c6f6342
:10d1b000206661696c6564002d2d3e2053656e64a8
:10d1c000206661696c6564002d2d3e2053656e7488
:10d1d00020257520627974657320746f2025753a57
:10d1e000257500003d3d3d2043535020496e666f3c
:10d1f000203d3d3d0000000020204d792041646429
:10d20000726573733a202575000000002020467275
:10d21000656520627566666572733a202575000043
:10d220002020496e74657266616365733a00000080
:10d230002020526f757465207461626c653a00003d
:10d240003d3d3d3d3d3d3d3d3d3d3d3d3d3d3d3d0e
:10d25000000000005b25755d000000002020252dea
:10d26000313373252d3673203d20257500000000d5
:10d270002020252d313373252d3673203d20256c3c
:10d28000750000002020252d313373252d367320a5
:10d290003d202564000000002020252d313373251a
:10d2a0002d3673203d20256c640000002020252da4
:10d2b000313373252d3673203d20252e3466000032
:10d2c000747275650000000066616c736500000093
:10d2d0002020252d313373252d3673203d202573d5
:10d2e000000000002020252d313373252d367320ba
:10d2f0003d202225732200002020252d3133732567
:10d300002d3673203d2028747970652025752040c6
:10d3100020307825303458290000000055736167ab
:10d32000653a20706172616d5f73686f77203c743d
:10d3300061626c655f69643e000000002020303d42
:10d34000426f6172642020313d53797343666720d8
:10d3500020323d4d616e4374726c2020333d457820
:10d36000702020343d54656c656d657472790000e1
:10d370004572726f723a207461626c655f696420f5
:10d380006d75737420626520302d34003d3d3d2065
:10d390005461626c652025753a202573203d3d3d22
:10d3a0000000000020202020526f77733a2025755e
:10d3b000207c204d656d3a20257520627974657357
:10d3c000207c204352433a203078253034580000e6
:10d3d0002d2d2d003d3d3d3d3d3d3d3d3d3d3d3dea
:10d3e0003d3d3d3d3d3d3d0055736167653a2070d3
:10d3f0006172616d5f736574203c7461626c655f1e
:10d4000069643e203c616464723e203c74797065be
:10d410003e203c76616c75653e00000020207479ea
:10d4200070653a20753820753136207533322069a1
:10d430003820693136206933322066333220626ffa
:10d440006f6c20737472000020204578616d706ce1
:10d45000653a20706172616d5f73657420342038a5
:10d460002069313620323530000000007538000068
:10d470007531360075333200693800006931360085
:10d480006933320066333200626f6f6c0000000057
:10d4900073747200556e6b6e6f776e207479706561
:10d4a00020272573272e205573653a20753820755f
:10d4b000313620753332206938206931362069339e
:10d4c000322066333220626f6f6c207374720000fa
:10d4d0002d2d3e204f4b3a205425755b307825305a
:10d4e00034585d203d202573202825732900000035
:10d4f0002d2d3e204641494c3a206572723d2564ef
:10d50000202861646472206f7574206f66207261d8
:06d510006e67653f290073
:020000040000fa
:020000040040ba
:02d51600fee72e
:020000040000fa
:020000040040ba
:10d51800a46845201c000000000000006c6a45203b
:10d528001000000000000000b06945201000000055
:10d53800000000007c6a4520080000000000000090
:10d54800c06845201c00000000000000d06945208c
:10d558000c00000000000000846a4520080000005c
:10d56800000000003867452030000000000000007f
:10d57800986745205800000000000000ac6a45206c
:10d588000800000000000000046245205c00000064
:10d5980000000000e4514520a40100000000000044
:10d5a800f06745202800000000000000686745205b
:10d5b8003000000000000000047245200600000052
:10d5c800040000000202846a96000100b46a452043
:10d5d8000400000000000000606245205c000000bc
:10d5e80000000000a3df442001000000000000004c
:10d5f800406845202400000000000000b86a45206b
:10d608000c00000000000000147245200400000017
:10d6180001000000640000004c1f452000080000c5
:10d6280000000000bc6245205c0000000000000013
:10d638003c59452000010000000000009f354520ae
:10d648000100000000000000e4394520000400004b
:10d6580000000000186345205c0000000000000086
:10d66800c46a452004000000000000003c5a452020
:10d678000001000000000000c86a45200c000000fe
:10d6880000000000f35445200100000000000000e5
:10d69800d46a45200c0000000000000018724520e4
:10d6a8000400000001000000efbeadde0a66452060
:10d6b80002000000000000004c0745200018000090
:10d6c800000000004c274520000800000000000072
:10d6d800e06a45200c000000000000002f5645209d
:10d6e8000100000000000000ec6a45200400000072
:10d6f800000000003758452001000000000000002d
:10d70800f06a45200c00000000000000dc6845209d
:10d718001c000000000000001c7245201c000000d6
:10d7280001000000203c4200243c4200283c42000a
:10d738002c3c4200303c4200343c4200383c420021
:10d74800fc6a45200800000000000000e44d452068
:10d758000002000000000000a03545204104000040
:10d7680000000000686f45209200000004000000df
:10d77800434d2d455850000a4300070100020b375e
:10d788002c382c3132006ae8030004003871452037
:10d798004a000000040000000004736f6d0001706f
:10d7a80065726974656300016864340001736c6ea6
:10d7b80000016c737064687465720101000573651b
:10d7c8006e3173656e3273656e3373656e3473656f
:10d7d8006e35686434000701000101000200000092
:10d7e800ac6d4520ec000000040000000001736fe0
:10d7f8006c31736f6c32736f6c33736f6c340005fc
:10d80800736c310001736c320001736c3300017367
:10d818006c340001736c350001736c360001736c55
:10d82800370001736c380001736c390001736c3177
:10d8380030736c3131736c3132736c3133736c31da
:10d8480034736c3135736c31360011636831316370
:10d858006831326368323163683232636833316306
:10d868006833326368343163683432000b7465633b
:10d8780031746563327465633374656334000968b1
:10d8880074310001687432000168743300016874ef
:10d898003400016874350001687436000168743713
:10d8a800000168743800124f4b000e00986e452036
:10d8b800cf00000004000000000e6c643100016c11
:10d8c800643200016c643300016c643400016c64e0
:10d8d8003500016c643600016c643700016c6438f3
:10d8e80000016c643900016c6431306c6431316c56
:10d8f8006431326c6431336c6431346c6431356c4e
:10d908006431366c6431376c6431386c6431396c2d
:10d918006432306c6432316c6432326c6432336c31
:10d928006432340061000000846c45202701000047
:10d9380004000000000f4f4b00066e7463316e74d4
:10d9480063326e7463336e7463346e7463356e74ed
:10d9580063366e7463376e746338ffffffffffff33
:10d96800ffffffffffffffffffff73656e3173656a
:10d978006e3273656e3373656e3473656e35ffff93
:10d98800ffffffffffffffff707273000174656dfb
:10d9980070ffffffff6178000261790002617a0081
:10d9a800026778000267790002677a000274656d81
:10d9b80070ffffffffffffffffffffffffffff6994
:10d9c800660002687465726c737064736f6d000131
:10d9d8006864340001736c6e0001746563317465aa
:10d9e800633274656333746563340c00010c0001a1
:10d9f8000c0001050001050001050001350001ffcb
:10da0800ffffffffffffff69660002687465726c25
:10da1800737064736f6d00016864340001736c6e19
:10da280000017465633174656332746563337465ca
:10da38006334ffffffffffffffffffffffffffff55
:10da4800ffffffffffff49444c45000e4cf7442001
:10da580000100000000000001868452028000000a1
:10da680000000000046b45200800000000000000d2
:10da7800e43d45200008000000000000fc6f452040
:10da88008000000001000000001a0e4000000000a5
:10da9800000000000000000000000000000000007e
:10daa800000000000000000000000000000000006e
:10dab800000000000000000000000000000000005e
:10dac800000000000000000000000000000000004e
:10dad800000000000000000000000000000000003e
:10dae800000000000000000000000000e43d4520a8
:10daf800e44145200004000000040000000000008c
:10db08000000000000000000806c452003000000b9
:10db1800000000000c6b452004000000000000001d
:10db2800305645200401000000000000106b45201d
:10db38000400000000000000836c45200100000084
:10db4800010000009f000000e4714520180000005b
:10db58000100000020d14300dc5a4300ec5a430086
:10db680000000000005b430000000000c86545207d
:10db78004200000000000000387245200400000048
:10db880001000000aaaaaaaa3b59452001000000ea
:10db980000000000146b4520040000000000000095
:10dba8002000402000200300000000008c6a45206f
:10dbb8000800000000000000186b45201400000059
:10dbc800000000000c664520400000000000000036
:10dbd8002c6b45200400000000000000a0614520d7
:10dbe80064000000000000001069452028000000c3
:10dbf80000000000306b4520080000000000000015
:10dc0800386945202800000000000000386b4520d6
:10dc180004000000000000006069452014000000b6
:10dc2800000000003c6b45202c00000000000000b4
:10dc3800746345205c00000000000000e44f4520ac
:10dc48000002000000000000d06345205c000000d6
:10dc580000000000e445452000040000000000002a
:10dc6800746945202800000000000000686b45200a
:10dc7800140000000000000088644520a000000097
:10dc8800000000007c6b45200c0000000000000034
:10dc9800e449452000040000000000002c644520f1
:10dca8005c00000000000000886b45200c000000ac
:10dcb80000000000b460452078000000000000006b
:10dcc80084714520400000000100000008d1430095
:10dcd8000000000000000000658d43000000000007
:10dce800000000000000000000000000000000002c
:10dcf800000000000000000000000000000000001c
:10dd0800000000000000000000000000946b4520a7
:10dd180004000000000000003c7245201c000000c8
:10dd2800010000000400000010270000e8030000c4
:10dd380001000000fa0000000200000001000000dd
:10dd4800986b45201000000000000000875e452009
:10dd58000100000000000000a86b4520040000003e
:10dd680000000000ab5f452001000000000000003b
:10dd7800ac6b45200400000000000000fc71452049
:10dd88000700000001000000010100000000000081
:10dd9800b06b4520040000000000000064684520c6
:10dda8002000000000000000b46b452008000000bf
:10ddb8000000000058724520040000000100000027
:10ddc80015c9430020204320000001000000000086
:10ddd800946a45200800000000000000bc6b452044
:10dde8000c00000000000000c86b45200400000083
:10ddf80000000000345c4520f00000000000000036
:10de08002f6045200100000000000000e669452061
:10de18000200000000000000cc6b45200400000058
:10de280000000000f2694520020000000000000028
:10de3800f868452018000000000000004c2f45201d
:10de48005306000000000000d06b452010000000c1
:10de5800000000002c614520730000000000000055
:10de6800dc6945200a00000000000000e06b452046
:10de78000400000000000000285f45208300000027
:10de880000000000e86945200a00000000000000ca
:10de9800e46b45200400000000000000f454452015
:10dea8003b01000000000000f46945200a00000062
:10deb80000000000e86b452004000000000000009e
:10dec800846845201f00000000000000006a45200b
:10ded8000a00000000000000ec6b45200400000070
:10dee8000000000034574520030100000000000036
:10def8000c6a45200a00000000000000f06b452075
:10df08000400000000000000e45d4520a3000000bc
:10df180000000000186a45200a0000000000000008
:10df2800f46b4520040000000000000088534520e1
:10df38006b01000000000000246a45200a00000070
:10df480000000000f86b45200400000000000000fd
:10df5800ac5f45208300000000000000306a4520c7
:10df68000a00000000000000fc6b452004000000cf
:10df78000000000030604520830000000000000021
:10df88003c6a45200a00000000000000006c4520a3
:10df98000400000000000000046745203300000072
:10dfa80000000000486a45200a0000000000000048
:10dfb800046c45200400000000000000385845208b
:10dfc8000301000000000000546a45200a00000018
:10dfd80000000000086c452004000000000000005c
:10dfe8002020442083bf000000000000606a452014
:10dff8000a000000000000000c6c4520080000002a
:10e0080000000000b360452001000000000000008f
:10e018009f6145200100000000000000146c4520ad
:10e0280004000000000000003c5b4520f8000000f0
:10e03800000000005e6a45200200000004000000a5
:10e048000001c000186c452014000000000000000a
:10e05800cb6645200100000000000000376745201e
:10e068000100000000000000a36845200100000036
:10e07800000000005c724520040000000100000060
:10e088006e190000c0694520100000000000000063
:10e098002c6c45200400000000000000fe694520ab
:10e0a80002000000000000000a6a4520020000008b
:10e0b80000000000306c4520040000000000000053
:10e0c800166a45200200000000000000346c45205c
:10e0d8000800000000000000226a4520020000003d
:10e0e800000000002e6a4520020000000000000029
:10e0f8003a6a452002000000000000003c6c452000
:10e108001400000000000000506c452004000000ce
:10e1180000000000cc664520380000000000000028
:10e12800a4df4420a8170000000000008c664520ea
:10e138003f00000000000000466a45200100000082
:10e1480000000000546c452004000000000000009e
:10e15800476a45200100000000000000ab6d452023
:10e168000100000001000000ff000000586c45207d
:10e178000400000000000000245d4520c0000000ed
:10e1880000000000dc7045205c0000000100000079
:10e1980010000c00245d452058d04300000000000a
:10e1a8000000000000000000000000000000000067
:10e1b8000000000000000000000000000000000057
:10e1c8000000000000000000000000000000000047
:10e1d8000000000000000000000000000000000037
:10e1e8000000000000000000000000005c6c4520fa
:10e1f80004000000000000002865452050000000d1
:10e2080000000000606c45200400000000000000d1
:10e218009c69452014000000000000004c66452061
:10e228004000000000000000885e4520a0000000bb
:10e2380000000000526a45200100000000000000b4
:10e248007c6c452002000000000000000c72452094
:10e2580006000000010000000101000000000000ad
:10e268009c6a45200800000000000000646c4520fe
:10e278000800000000000000536a4520010000006b
:10e28800000000006c6c4520040000000000000045
:10e29800786545205000000000000000706c4520a3
:10e2a8000c00000000000000c471452020000000a0
:10e2b8000100000001000000030000000000000051
:10e2c8000000000000000000000000000000000046
:10e2d800a46a4520a46a4520080000000000000048
:10e2e8007c70452060000000010000000100000073
:10e2f8000300000000000000000000000000000013
:10e308000000000000000000e56643000000000077
:10e318000000000000000000fbd043009999430072
:10e3280000000000000000000000000000000000e5
:10e3380000000000000000000000000000000000d5
:10e3480000000000000000000000000000000000c5
:10e3580000000000666666666666666666666666ed
:10e368006666666666666666666666666666666645
:020000040000fa
:020000040040ba
:10e3780090b595b000af78600023bb649d4b1b78c7
:10e3880003f01003002b00f05c827b68b3f8603068
:10e398001a467b689b6d13443b637b685a6d964baa
:10e3a8001b68d31a002b1bdb7b685a6d924b1b68ca
:10e3b8009a4206d17b689a6d904b1b68d31a002b42
:10e3c8000edb7b689a6d8d4b1b689a4225d18c4b6e
:10e3d8001b68db899ab27b68b3f860309a421cd913
:10e3e800874b1b68db899ab27b68a3f860207b683f
:10e3f800b3f862207b68b3f860309a4205d27b6834
:10e40800b3f860207b68a3f862207b4b1a687b68ae
:10e418005a657a4b1a687b689a65784b1a687b68e4
:10e428005b6cd31a002b58dc764b1b88002b4bd126
:10e438007b689b6d7a68b2f8602013443a6b9a4205
:10e4480042d17b68b3f93030002b3ddb7b685a6cd6
:10e458006a4b1b689a4237d10123bb647b6893f8e7
:10e468004330ff2b07d07b6893f843300133dab28f
:10e478007b6883f843207b6893f84330032b1bd9d0
:10e488007b68b3f848207b685b8e13449ab27b683c
:10e49800b3f848309a420ad37b68b3f848207b68bf
:10e4a8005b8e13449ab27b68a3f8482004e07b682b
:10e4b8004ff6ff72a3f848207b6893f84330022b8d
:10e4c80002d9786821f0e4febb6c002b40f059813a
:10e4d8007b68002283f8432053e1484b1a687b6825
:10e4e8005b6cd31a013b002bc0f24681434b1a6880
:10e4f8007b681b6dd31a002b00f33e817b685b8b16
:10e5080003f00403002b10d07b685b8b23f004031b
:10e518009ab27b685a837b68b3f84a207b68a3f871
:10e5280048207b680022a3f86a207b68002283f8d1
:10e5380042207b68b3f93c30db101bb29ab27b688f
:10e54800b3f93e309bb213449bb21ab27b68a3f86e
:10e5580040202a4b1b689ab27b685b6c9bb2d31a2b
:10e56800fb857b68002283f84320244b1a687b686c
:10e578005a647b681b7d032b40f28f807b68b3f85d
:10e5880048207b68b3f84a309a423dd27b685b8b5f
:10e5980003f40063002b01d0012300e0022387f875
:10e5a8002d3097f82d309ab27b685b8e12fb03f3ff
:10e5b8009bb2fa8d934228bf13467b857b68b3f8dc
:10e5c80048207b8d13449ab27b68b3f848309a424e
:10e5d80009d37b68b3f848207b8d13449ab27b68d3
:10e5e800a3f8482059e07b684ff6ff72a3f848204b
:10e5f80053e000bf3a6a4520346c4520386c45200a
:10e608002c6c45202e6a45207b68b3f86a20fb8d68
:10e6180013449ab27b68b3f86a309a4209d37b688c
:10e62800b3f86a20fb8d13449ab27b68a3f86a207a
:10e6380004e07b684ff6ff72a3f86a207b68b3f8a2
:10e648006a207b68b3f848309a4226d37b68b3f8cf
:10e658006a207b68b3f84830d31a9ab27b68a3f86b
:10e668006a207b68b3f848207b685b8e13449ab2b3
:10e678007b68b3f848309a420ad37b68b3f84820dd
:10e688007b685b8e13449ab27b68a3f8482004e049
:10e698007b684ff6ff72a3f848207b68196f7b6888
:10e6a800db6e984a786821f0affa02467b681a67f1
:10e6b8007b68d96e7b681b6f934a786821f0a4fa4f
:10e6c80002467b68da667b681b6f002b04d17b6887
:10e6d8004ff6ff721a8602e07b6800221a867b6872
:10e6e80000221a777b68db6e002b03d17b6800223f
:10e6f800a3f868207b68b3f86420844b1b88134414
:10e708009ab27b68a3f864207b685b8b03f4006390
:10e71800002b35d07b681b6f002b18d17b68db6e14
:10e72800002b0cd07b68dc6c7b68db6edb685b687d
:10e7380018462cf08af80346e31a002b20dc7b6885
:10e748005b8b23f400639ab27b685a8318e07b687a
:10e75800dc6c7b681b6fdb685b6818462cf075f80f
:10e768000346e31a002b0bdc7b685b8b23f4006306
:10e778009ab27b685a8303e0786821f07efe00e055
:10e7880000bf7b685b6b002b5bd07b689a6b604b30
:10e798001b68d31a002b54da5e4b1b689ab27b684d
:10e7a8005b6b9bb2d31a9bb2a7f84e30b7f84e20da
:10e7b8007b68b3f93c30db101bb29bb2d31a9bb217
:10e7c800a7f84e307b68b3f93c309ab2b7f84e30b0
:10e7d80013449bb21ab27b689a87b7f94e30002b64
:10e7e80005dab7f84e305b429bb2a7f84e30b7f85f
:10e7f8004e207b68b3f93e309b101bb29bb2d31af4
:10e808009bb2a7f84e307b68b3f93e309ab2b7f89e
:10e818004e3013449bb21ab27b68da877b68b3f92f
:10e828003c30db101bb29ab27b68b3f93e309bb226
:10e8380013449bb21ab27b68a3f840207b6800227d
:10e848005a63354b1b88002b00f041847b681b7d85
:10e85800062b00f23c847b685a6a304b1b68d31a3b
:10e86800013b002b5edb7b685a6a2b4b1b881946e1
:10e878002a4b1b680b44d31a0133002b52dc284b5c
:10e888005b687b647b685a6a244b1b68d31a7b627b
:10e898007b6aa7f84230224b1a89b7f84230d31a5c
:10e8a8009ab21f4b1a811e4b5b681a89b7f842301f
:10e8b800d31a7b840fe07b6c5b89b7f84220d31aac
:10e8c800a7f842307b6c7a8c1a817b6c00225a81c3
:10e8d8007b6c1b687b647b6c5b89b7f842209a422f
:10e8e800e9d8b7f842301946786c25f065fd7b68a1
:10e8f8005b6a0a4a13600a4bdb68084a12685a6066
:10e908001ee000bfd4ce4300dcce4300226a45207f
:10e91800386c4520186c45202e6a4520346c4520fb
:10e92800c0694520824b1a687b685b6ad31a002b42
:10e9380006da7b685b8b43f002039ab27b685a83e2
:10e948007b4b1a687b685b6ad31a002bc0f2ba83c8
:10e95800774b1a687b685b6a7968098d0b44d31a10
:10e968000133002b00f3ae837b685a6a704b1b6837
:10e978009a4240f040826f4b1c896e4bdb689b8942
:10e988009bb218462cf02efc0346dbb203f00303bf
:10e99800002b01d0012300e0002323449ab2664be8
:10e9a8001a807b681a8d644b1b889a4260d2614b2f
:10e9b800db689b899bb218462cf014fc0346dbb23b
:10e9c80003f00103002b1ed05a4bdb689b899bb2d6
:10e9d8001bb223f47c531cb2564bdb689b899bb259
:10e9e80018462cf0fffb0346dbb203f03e039bb254
:10e9f80018462cf0f7fb03461bb223431ab24d4bc3
:10ea0800db6892b29a817b681a8d4a4b1a81494b0e
:10ea1800db689b899bb218462cf0e4fb0346dbb20b
:10ea280003f00203002b05d0424b1b89013b9ab22d
:10ea3800404b1a813f4b5b683e4a12891146184683
:10ea48001ff078f83b4b1c893a4bdb689b899bb2db
:10ea580018462cf0c7fb0346dbb203f00303002b78
:10ea680001d0012300e0002323449ab2324b1a80dc
:10ea78007b685b6f002b00f0ce802e4bdb689b8998
:10ea88009bb218462cf0aefb0346dbb203f0010341
:10ea9800002b10d00ae07b685b6ffb607b685b6fc4
:10eaa8001a687b685a67f8682cf09af87b685b6f7d
:10eab800002bf0d1afe07b685b6ffb634be0fb6b37
:10eac800db689b899bb218462cf08cfb0346dbb2b3
:10ead80003f00103002b36d0164bdb689b899bb2f1
:10eae80018462cf07ffb0346dbb203f00203002b31
:10eaf80029d1104bdb689b899cb201202cf072fb5a
:10eb080003461a460b4bdb68224392b29a81094ba3
:10eb18001c89084bdb689b899bb218462cf062fb6a
:10eb28000346dbb203f00303002b07d0012306e002
:10eb3800346c4520c06945202e6a452000232344b3
:10eb48009ab27e4b1a80fb6b3b61fb6b1b68fb63c5
:10eb580038692cf045f8fb6b002b0ed0774b1b88df
:10eb68001a46774b1b681a44fb6bdb685b68f96bca
:10eb780009890b44d31a002ba1dafb6b002b47d071
:10eb88006e4b1b881a466e4b1b681a44fb6bdb687e
:10eb98005b68d31a002b3bddfb6bdb685b689ab2c2
:10eba800674b1b689bb2d31a9ab2664b1a81654ba6
:10ebb800db689b899bb218462cf014fb0346dbb23a
:10ebc80003f00203002b05d05e4b1b89013b9ab270
:10ebd8005c4b1a815b4b5b685a4a1289114618468e
:10ebe8001ef0a8ff574b1c89564bdb689b899bb2cc
:10ebf80018462cf0f7fa0346dbb203f00303002ba8
:10ec080001d0012300e0002323449ab24b4b1a8021
:10ec18007b68fa6b5a67494b1b881a46484b1b6836
:10ec28001a447b685a627b681a8d444b1b88d31a36
:10ec38009ab27b681a85786824f0bafc414b5b6805
:10ec48001b89002b06d03f4b5b683f4a13603d4b46
:10ec580000225a603b4bdb689b899bb218462cf01c
:10ec6800c1fa0346dbb203f00103002b00f09980e0
:10ec7800364b1b7843f02003dab2344b1a7090e01d
:10ec88007b685b6fbb607b685b6fdb685b682c4a8b
:10ec98001360bb681b891c46bb68db689b899bb2f9
:10eca80018462cf09ffa0346dbb203f00303002b4f
:10ecb80001d0012300e000231a197b685b6a1a441b
:10ecc8007b685a62bb68db689b899bb218462cf04c
:10ecd80089fa0346dbb203f00303002bbb681b89e8
:10ece8001c46bb68db689b899bb218462cf07afaf5
:10ecf8000346dbb203f00303002b01d0012300e03d
:10ed0800002319197b681a8d8bb2d31a9ab27b68c3
:10ed18001a85786824f04cfcbb685b681b89002b5b
:10ed28001dd0094b1b68002b12d0074b1a68bb6813
:10ed38005b681946104627f086fd0de02e6a4520cf
:10ed4800346c4520c06945203c6c45203b6a452011
:10ed5800bb685b68704a1360bb6800225a60bb6876
:10ed6800db689b899bb218462cf03cfa0346dbb261
:10ed780003f00103002b0dd0684b1b7843f02003f0
:10ed8800dab2664b1a707b681b7d042b02d17b6854
:10ed980007221a75bb681a687b685a67b8682bf02f
:10eda8001fff7b685b6f002b08d07b685b6fdb689d
:10edb8005a687b685b6a9a423ff462af7b685b8bf8
:10edc80003f00103002b0ed07b685b8b23f001035b
:10edd8009ab27b685a837b685b8b43f002039ab2d2
:10ede8007b685a8372e17b685b8b43f001039ab2bc
:10edf8007b685a836ae17b685b6f002b06d14848c1
:10ee08002bf042fa02467b685a6757e100237b637e
:10ee18007b685b6fbb6341e1bb6bdb685a68414b46
:10ee28001b689a421dd13e4b1a89bb6b1b899a42bb
:10ee380040f239813a482bf027fa78617b69002b38
:10ee480000f033817b6b002b03d07b6b7a691a60ef
:10ee580002e07b687a695a67b96b78691bf0ccfd68
:10ee680023e17b6b002b17d12e4b1a68bb6bdb6839
:10ee78005b68d31a002b57da29482bf005fab861da
:10ee8800bb69002b00f013817b68ba695a67b96bbc
:10ee9800b8691bf0b1fd0ae1224b1a687b6bdb688d
:10eea8005b68d31a013b002b3edb1e4b1a68bb6b19
:10eeb800db685b68d31a0133002b35dc18482bf06c
:10eec800e3f9f861fb69002b00f0f3807b6bdb68ea
:10eed8005b687a6b12891a44124b1b68d31a002b91
:10eee80012dd104b1b689ab27b6bdb685b689bb2c8
:10eef800d31a9ab27b6b1a817b6b5a687b6b1b891e
:10ef0800194610461ef016fe7b6bfa691a60b96b3b
:10ef1800f8691bf071fdcce03c6c45203b6a45204c
:10ef2800c0694520346c4520bb6b7b63bb6b1b6899
:10ef3800002b40f0b080754b1a68bb6bdb685b68d0
:10ef4800d31a002b40f3a780bb6bdb689b899bb26d
:10ef580018462cf047f90346dbb203f00103002bf7
:10ef680040f0a9806a482bf08ff90246bb6b1a6003
:10ef7800bb6b1b68002b00f0a080bb6bdb685b6879
:10ef8800ba6b12891a44614b1b68d31a002b12dd25
:10ef98005e4b1b689ab2bb6bdb685b689bb2d31a8b
:10efa8009ab2bb6b1a81bb6b5a68bb6b1b8919463b
:10efb80010461ef0bffd574b1b881a46534b1b6863
:10efc8001a447b685b6a7968098d0b44d31a002b55
:10efd80073ddbb6b1b68db689b899bb218462cf002
:10efe80001f90346dbb203f00103002b21d0bb6b10
:10eff8001b68db689b899bb21bb223f47c531cb251
:10f00800bb6b1b68db689b899bb218462cf0eaf83f
:10f018000346dbb203f03e039bb218462cf0e2f83d
:10f0280003461bb223431ab2bb6b1b68db6892b260
:10f038009a817b685b6a9ab27b681b8d134499b28c
:10f04800324b1b689ab2bb6b1b688a1a92b21a8140
:10f05800bb6b1b685a68bb6b1b681b89194610463b
:10f068001ef068fdbb6b1b681c89bb6b1b68db68eb
:10f078009b899bb218462cf0b5f80346dbb203f027
:10f088000303002b01d0012300e0002323449ab29c
:10f09800204b1a8011e0bb6b1b68bb63bb6b002b5a
:10f0a8007ff4baae0ae000bf08e000bf06e000bf88
:10f0b80004e000bf02e000bf00e000bf786821f074
:10f0c800dcf903e0786821f0d8f91ae019e00f4b71
:10f0d8001a687b685b6ad31a002b0adb0b4b1a6829
:10f0e8007b685b6a7968098d0b44d31a0133002b5e
:10f0f80007dd7b685b8b43f002039ab27b685a8317
:10f10800ffe700bf5437bd4690bd00bf346c4520b3
:08f11800c06945202e6a452064
:020000040000fa
:020000040040ba
:10f120005244502025703a204e6f20737061636501
:10f1300020666f72205244502068656164657220b9
:10f1400028636d70290000005244502025703a2039
:10f1500053656e6420434d5020532025753a20732b
:10f16000796e2025752c2061636b2025752c206518
:10f1700061636b2025752c207273742025752c20fb
:10f180007365715f6e72202535752c2061636b5f2e
:10f190006e72202535752c207061636b65745f6c11
:10f1a000656e2025752028257529000052445020c1
:10f1b00025703a20494e5445524641434520455218
:10f1c000524f523a206e6f7420706f737369626c85
:10f1d0006520746f2073656e6400000052445020f7
:10f1e00025703a2043616e6e6f7420646571756599
:10f1f00075652066726f6d2072785f7175657565d3
:10f2000020696e2071756575652064656c69766529
:10f21000720000005244502025703a204164646519
:10f2200064204541434b206e72202575000000008c
:10f230005244502025703a20436f6e6e2052582061
:10f240006275666665722066756c6c00524450206b
:10f2500025703a2052582051756575652064656c9b
:10f2600069766572206d61746368696e6720456cac
:10f27000656d656e742c2073657120257500000026
:10f280005244502025703a2044656c69766572209e
:10f2900073657120257500005244502025703a2076
:10f2a00043616e6e6f742064657175657565206667
:10f2b000726f6d2072785f717565756520696e205b
:10f2c0007175657565206578697374730000000059
:10f2d0005244502025703a2052582051756575656a
:10f2e00020657869737473206d61746368696e67f3
:10f2f00020456c656d656e742c20736571202575d5
:10f30000000000005244502025703a2057652068c4
:10f310006176652061206d617463680052445020fd
:10f3200025703a2043616e6e6f7420646571756557
:10f3300075652066726f6d2074785f71756575658f
:10f3400020696e20666c757368204541434b000050
:10f350005244502025703a204541434b20636f6d45
:10f360007061726520656c656d656e742c207469c2
:10f370006d6520256c752c20736571202575000046
:10f380005244502025703a20545820456c656d65d4
:10f390006e742025752066726565640052445020a5
:10f3a00025703a204e756c6c20706f696e746572b2
:10f3b0002070617373656420746f207264702066be
:10f3c0006c75736820616c6c000000005244502022
:10f3d00025703a20466c75736820545820456c653a
:10f3e0006d656e742c2074696d6520256c752c20fc
:10f3f00073657120257500005244502025703a2015
:10f40000466c75736820525820456c656d656e7446
:10f410002c2074696d6520256c752c207365712016
:10f42000257500005244502025703a20466f756eb5
:10f43000642061206c6f737420636f6e6e656374fb
:10f44000696f6e20286e6f773a20256c752c2074ba
:10f45000733a20256c752c20746f3a20256c752921
:10f460002c20636c6f73696e67000000524450205b
:10f4700025703a2043616e6e6f7420646571756506
:10f4800075652066726f6d2074785f71756575653e
:10f4900020696e20636865636b2074696d656f75a4
:10f4a000740000005244502025703a2054582045e2
:10f4b0006c656d656e7420467265652c2074696d8f
:10f4c0006520256c752c207365712025752c2075a1
:10f4d0006e612025750000005244502025703a20ae
:10f4e000545820456c656d656e742074696d656453
:10f4f000206f75742c2072657472616e736d6974ff
:10f5000074696e6720736571202575005244502020
:10f5100025703a2052657472616e736d69737369f8
:10f520006f6e206661696c65640000005244502073
:10f5300025703a2057616b65205478207461736b95
:10f540002028636865636b2074696d656f757473db
:10f55000290000005244502025703a20526563650e
:10f560006976656420696e20532025753a20737989
:10f570006e2025752c2061636b2025752c2065611c
:10f58000636b2025752c207273742025752c2073d5
:10f5900065715f6e72202535752c2061636b5f6e1f
:10f5a00072202535752c207061636b65745f6c6506
:10f5b0006e20257520282575290000005244502012
:10f5c00025703a20525354207265636569766564ec
:10f5d00020696e20434c4f534544202d2069676eaf
:10f5e0006f726564000000005244502025703a207c
:10f5f00052535420726563656976656420696e2094
:10f60000434c4f53455f574149542c2061636b3a3b
:10f61000202564202d20636c6f73696e67000000e5
:10f620005244502025703a205265636569766564be
:10f630002052535420696e2073657175656e636541
:10f640002c206e6f206d6f7265206461746120697b
:10f650006e636f6d696e672c207265706c792077b0
:10f6600069746820525354005244502025703a2047
:10f67000525354206f7574206f66207365717565e1
:10f680006e63652c206b65657020636f6e6e6563bd
:10f6900074696f6e206f70656e00000052445020d8
:10f6a00025703a204e6f742053594e207265636561
:10f6b0006976656420696e20434c4f53454420733e
:10f6c000746174652e2044697363617264696e6746
:10f6d000207061636b6574005244502025703a209d
:10f6e00053594e2d526563656976656400000000cc
:10f6f0005244502025703a2077696e646f772073ea
:10f70000697a6520256c752c20636f6e6e20746994
:10f710006d656f757420256c752c207061636b6549
:10f72000742074696d656f757420256c752c206468
:10f73000656c617965642061636b733a20256c7533
:10f740002c2061636b2074696d656f757420256c66
:10f75000752c2061636b206561636820256c7520c2
:10f760007061636b657400005244502025703a202c
:10f770004e503a20436f6e6e656374696f6e204f12
:10f7800050454e005244502025703a2057616b6519
:10f79000205478207461736b202861636b2900000a
:10f7a0005244502025703a2048616c662d6f706578
:10f7b0006e20636f6e6e656374696f6e20666f7521
:10f7c0006e642c2073656e642052535420616e6405
:10f7d0002077616b65205478207461736b000000a2
:10f7e0005244502025703a20496e76616c6964203d
:10f7f0007265706c7920746f2053594e2072657158
:10f8000075657374000000005244502025703a2042
:10f81000496e76616c69642053594e206f72206e78
:10f820006f2041434b2c20726573657474696e6759
:10f83000210000005244502025703a2049676e6f25
:10f8400072696e67206475706c69636174652053ba
:10f85000594e207061636b65742100005244502042
:10f8600025703a20496e76616c6964207365717504
:10f87000656e6365206e756d626572212025752049
:10f880006e6f74206265747765656e2025752061e2
:10f890006e6420256c7500005244502025703a207b
:10f8a000496e76616c69642041434b206e756d62d0
:10f8b000657221202575206e6f74206265747765ee
:10f8c000656e20256c7520616e6420257500000032
:10f8d0005244502025703a2053594e2d52435644dd
:10f8e0003a2057726f6e672041434b206e756d62f0
:10f8f000657200005244502025703a204e433a2051
:10f90000436f6e6e656374696f6e204f50454e0095
:10f910005244502025703a204552524f5220736f66
:10f92000636b65742063616e6e6f742061636365e1
:10f930007074206d6f726520636f6e6e656374699d
:10f940006f6e73005244502025703a204475706cdd
:10f9500069636174652073657175656e6365206e9a
:10f96000756d6265720000005244502025703a2087
:10f97000496e76616c69642053594e206f72206e17
:10f980006f2041434b20696e20434c4f53452d5708
:10f99000414954005244502025703a204552524f5c
:10f9a000522064656661756c74207374617465219e
:10f9b000000000005244502025703a2041637469d1
:10f9c000766520636f6e6e6563742c20636f6e6e58
:10f9d0002073746174652025750000005244502026
:10f9e00025703a20436f6e6e656374696f6e206197
:10f9f0006c7265616479206f70656e0052445020ae
:10fa000025703a2041433a2053656e64696e672041
:10fa100053594e005244502025703a2041433a2019
:10fa200057616974696e6720666f722053594e2f53
:10fa300041434b207265706c792e2e2e0000000021
:10fa40005244502025703a2041433a20436f6e6e55
:10fa5000656374696f6e204f50454e0052445020cc
:10fa600025703a2048616c662d6f70656e20636f5b
:10fa70006e6e656374696f6e20646574656374652a
:10fa8000642c205253542073656e742c206e6f7753
:10fa9000207265747279696e6700000052445020cc
:10faa00025703a20436f6e6e656374696f6e2073c4
:10fab00074617965642068616c662d6f70656e2c69
:10fac000206576656e2061667465722052535420fd
:10fad000616e642072657472792100005244502076
:10fae00025703a2041433a20436f6e6e6563746916
:10faf0006f6e204661696c656400000052445020be
:10fb000025703a204552524f522063616e6e6f74d9
:10fb10002073656e642c20636f6e6e656374696f0d
:10fb20006e206e6f74206f70656e2028256429002a
:10fb30005244502025703a2057616974696e6720dd
:10fb4000666f722077696e646f7720757064617478
:10fb500065206265666f72652073656e64696e67a5
:10fb600020736571202575005244502025703a207d
:10fb700054696d656f757420647572696e67207362
:10fb8000656e64005244502025703a204552524f11
:10fb9000522063616e6e6f742073656e642c2063f7
:10fba0006f6e6e656374696f6e206e6f74206f7018
:10fbb000656e2028256429202d3e207265736574aa
:10fbc000000000005244502025703a204e6f2073f0
:10fbd0007061636520666f722052445020686561d1
:10fbe000646572202873656e6429000052445020b9
:10fbf00025703a204661696c656420746f20616ce1
:10fc00006c6f63617465207061636b6574206275ed
:10fc100066666572000000005244502025703a204c
:10fc20004e6f206d6f726520737061636520696e21
:10fc3000205244502072657472616e736d69742035
:10fc400071756575650000005244502025703a209a
:10fc500053656e64696e672020696e205320257598
:10fc60003a2073796e2025752c2061636b202575f1
:10fc70002c206561636b2025752c20727374202500
:10fc8000752c207365715f6e72202535752c20618f
:10fc9000636b5f6e72202535752c207061636b6518
:10fca000745f6c656e20257520282575290000007d
:10fcb0005244502025703a204372656174696e6722
:10fcc0002052445020717565756573005244502070
:10fcd00025703a204661696c656420746f20696ef6
:10fce000697469616c697a652073656d6170686fac
:10fcf000726500005244502025703a204661696cbc
:10fd0000656420746f2063726561746520545820a7
:10fd1000717565756520666f7220636f6e6e000089
:10fd20005244502025703a204661696c6564207405
:10fd30006f20637265617465205258207175657516
:10fd40006520666f7220636f6e6e00002c207365f5
:10fd50006e742052535400000000000052445020a2
:10fd600025703a206373705f7264705f636c6f73a9
:10fd7000652830782578292573202d3e20434c4f67
:10fd800053455f5741495400207573657273706124
:10fd9000636500002070726f746f636f6c00000009
:10fda0002074696d656f7574000000005244502026
:10fdb00025703a206373705f7264705f636c6f7359
:10fdc000652830782578292c2077616974696e67f9
:10fdd00020666f723a2573257325730052445020b4
:10fde00025703a206373705f7264705f636c6f7329
:10fdf00065283078257829202d3e20434c4f5345e7
:10fe000044000000095244503a20533a2564202807
:10fe1000636c6f7365642062792030782578292cb3
:10fe2000207263762025752c20736e642025752c36
:0bfe30002077696e20256c750d0a001c
:020000040000fa
:020000040040ba
:10fe3c00f0b591b008aff860b9600023fb77b868f3
:10fe4c002bf0e4fdb861bb69b3f803309bb21846e4
:10fe5c002cf026fb03461a46bb69a3f80320bb69aa
:10fe6c00b3f801309bb218462cf01afb03461a4625
:10fe7c00bb69a3f801200223fb75724b5b79002b45
:10fe8c003ad0fa68fb681b7f9c46bb691b78c3f3ae
:10fe9c00c003dbb21946bb691b78c3f38003dbb22a
:10feac001846bb691b78c3f34003dbb21c46bb6925
:10febc001b78c3f30003dbb21d46bb69b3f80130fa
:10fecc009bb21e46bb69b3f803309bb27b60bb6828
:10fedc005b893b60bb685b89053b07933b6806937a
:10feec007b680593049603950294019000916346f8
:10fefc00554905201bf03effbb691b7803f001033d
:10ff0c00dbb2002b6dd0bb691b7803f00403dbb2b2
:10ff1c00002b07d0bb69b3f803309ab2fb680132ef
:10ff2c0092b21a84fb681b7f002b11d1454b5b7975
:10ff3c00002b05d0fb681a46444905201bf01aff1c
:10ff4c00fb681b69002b14bf01230023fb77bae36a
:10ff5c00fb681b7f042b0fd13a4b5b79002b00f015
:10ff6c007c83fa68bb691b78c3f38003dbb2384926
:10ff7c0005201bf0fffe70e3bb69b3f801309bb2a8
:10ff8c001a46fb689b8c01339a421ed12d4b5b7930
:10ff9c00002b05d0fb681a462e4905201bf0eafe03
:10ffac00fb6804221a77fc682cf0ceff03466361d1
:10ffbc00f868fb68db8b1a46fb689b8c0093134636
:10ffcc000a2200210bf094fb52e31e4b5b79002bb1
:10ffdc0000f06883fb681a461f4905201bf0cafe17
:10ffec0060e3fb681b7f042b00f22c8301a252f808
:10fffc0023f000bf150041007d0141008b02410040
:020000040041b9
:10000c008b02410065054100bb691b7803f00803b6
:10001c00dbb2002b24d10b4b5b79002b05d0fb689a
:10002c001a460e4905201bf0a5fef868fb68db8b11
:10003c001a46fb689b8c00931346082200210bf098
:10004c0057fb15e3fc71452054f54000bcf540000e
:10005c00e8f5400020f6400068f640009cf64000b1
:10006c009e4b5b79002b05d0fb681a469c490520fa
:10007c001bf080fe2cf060fc0246fb6892b25a84a6
:10008c00fb685a8cfb68013292b2da83fa68fb681f
:10009c00528c1a84fb68ba69b2f8012092b29a8425
:1000ac00fb68ba69b2f8012092b2da84fb68ba69cb
:1000bc00b2f8012092b21a85bb681b69fc6818461d
:1000cc002cf086fb0346e362bb685b69fc68184650
:1000dc002cf07efb03462363bb689b69fc681846c7
:1000ec002cf076fb03466363bb68db69fc6818463f
:1000fc002cf06efb0346a363bb681b6afc681846b6
:10010c002cf066fb0346e363bb685b6afc6818462d
:10011c002cf05efb03462364704b5b79002b17d0ed
:10012c00fd68fb68de6afb681b6bfa68526bf9684a
:10013c00896bf868c06bfc68246c04940390029182
:10014c000192009333462a46664905201bf012fea5
:10015c00fb6802221a77f868fb685b8c1a46fb680e
:10016c00db8c00931346032200210bf0c1faaae2a8
:10017c00bb691b7803f00803dbb2002b50d0bb69c2
:10018c001b7803f00403dbb2002b49d0fb68ba697f
:10019c00b2f8012092b29a84fb68ba69b2f80120d5
:1001ac0092b2da84bb69b3f801309ab2fb68013ab7
:1001bc0092b21a85bb69b3f803309ab2fb6801326c
:1001cc0092b21a84fc682cf0bffe03466364fb6891
:1001dc0003221a77414b5b79002b05d0fb681a463a
:1001ec00414905201bf0c6fdf868fb68db8b1a46fd
:1001fc00fb689b8c00931346022200210bf078facb
:10020c00364b5b79002b05d0fb681a463749052025
:10021c001bf0b0fdfb684833184628f07bfd52e21a
:10022c00bb691b7803f00403dbb2002b1bd02b4bf8
:10023c001b78002b05d0fb681a462d4900201bf0bb
:10024c0099fdf868fb68db8b1a46fb689b8c009366
:10025c001346082200210bf04bfafb684833184672
:10026c0028f058fd2fe21d4b1b78002b00f0f78176
:10027c00fb681a461f4900201bf07cfdefe1bb69af
:10028c001b7803f00803dbb2002b06d1bb691b788b
:10029c0003f00403dbb2002b32d1bb69b3f801309d
:1002ac009ab2fb68db8c9a420bd00c4b1b78002b60
:1002bc0000f0d781fb681a460f4900201bf05afd4d
:1002cc00cfe1064b5b79002b00f0ee81fb681a4600
:1002dc000a4905201bf04efde6e100bffc714520ec
:1002ec00d8f64000f0f6400068f7400084f7400074
:1002fc00a0f74000e0f7400008f8400034f8400058
:10030c00bb69b3f8013098b2fb689b8c013399b28e
:10031c00fb689a8cfb68db6a9bb25b009bb2134454
:10032c009bb21a4629f03eff0346002b35d1974b62
:10033c005b79002b17d0f968bb69b3f801309bb21d
:10034c001c46fb689b8c0133fa68928c1046fa6849
:10035c00d26a520002440192009323460a468c4909
:10036c0005201bf007fdfb681b7f022b0bd1f868e7
:10037c00fb685b8c1a46fb68db8c009313460322ec
:10038c0000210bf0b5f9fb681b7f032b40f08e812d
:10039c00fb68184618f0d8fe88e1bb69b3f8033047
:1003ac0098b2fb681a8cfb68db6a9bb25b009bb251
:1003bc00d31a9bb2013b99b2fb68db8b013b9bb21e
:1003cc001a4629f0effe0346002b1ed16f4b1b780b
:1003dc00002b00f06d81f968bb69b3f803309bb258
:1003ec001846fb681b8c1a46fb68db6a5b00d31a49
:1003fc00013bfa68d28b013a0192009303460a46fc
:10040c00644900201bf0b6fc52e1fb681b7f022bf9
:10041c003ed1bb69b3f803309ab2fb685b8c9a424d
:10042c000bd05a4b1b78002b00f01d81fb681a4631
:10043c00594900201bf09efc15e1544b5b79002bb5
:10044c0005d0fb681a46554905201bf093fcfb6848
:10045c0003221a77fb681b69002b19d0fb681b69f8
:10046c0007f10c01002218462bf050f90346002b23
:10047c000bd1464b1b78002b00f0f780fb681a461b
:10048c00474900201bf076fcefe0fb6800221a6164
:10049c00bb69b3f803309ab2fb68013292b21a848a
:1004ac00bb691b7803f00203dbb2002b0ad0bb68dc
:1004bc005b89052b40f2fe80fb68b968184611f089
:1004cc00d7fef7e0bb685b89052b40f2f580bb6972
:1004dc00b3f801309ab2fb689b8c01339bb29a4201
:1004ec001fd0f868bb69b3f801309bb21a46b968e3
:1004fc0029f0ecf80346012b0ed0244b5b79002b32
:10050c0005d0fb681a46274905201bf033fcfb6815
:10051c00184622f04dfad6e0fb68184618f014fe87
:10052c00d4e0bb695a789b781b021343bb82fb68ef
:10053c00b968184628f096f90346002b40f0be80a7
:10054c00fb68ba8a9a84fb68184622f031fafb6879
:10055c0018461af029fcb9e0bb691b7803f00803b4
:10056c00dbb2002b06d1bb691b7803f00403dbb2b2
:10057c00002b1bd1054b5b79002b00f0a180fb6895
:10058c001a46094905201bf0f5fb99e0fc71452042
:10059c005cf8400098f84000d0f84000f4f84000b7
:1005ac0010f9400044f9400068f94000bb69b3f809
:1005bc00033098b2fb681a8cfb68db6a9bb25b0059
:1005cc009bb2d31a9bb2013b99b2fb68db8b013b0c
:1005dc009bb21a4629f0e6fd0346002b1dd13e4b7b
:1005ec001b78002b6ed0f968bb69b3f803309bb253
:1005fc001846fb681b8c1a46fb68db6a5b00d31a37
:10060c00013bfa68d28b013a0192009303460a46e9
:10061c00324900201bf0aefb54e0bb69b3f8033049
:10062c009ab2fb68013292b21a84f868fb68db8bd1
:10063c001a46fb689b8c009313460a2200210bf090
:10064c0057f840e0244b1b78002b10d0fb681a465f
:10065c00234900201bf08efb09e000bf08e000bf1f
:10066c0006e000bf04e000bf02e000bf00e000bff6
:10067c00fb681b69002b0bd1fb68fa7d11461846f1
:10068c001af040f9fb680021184620f0a7fa1ae08e
:10069c00fa68fb7d43f00103dbb2194610461af0f1
:1006ac0031f910e000bf0ee000bf0ce000bf0ae023
:1006bc0000bf08e000bf06e000bf04e000bf02e09e
:1006cc0000bf00e000bfb8681af0a4f8fb7f184622
:1006dc002437bd46f0bd00bffc71452098f84000a2
:0406ec0094f940003d
:020000040000fa
:020000040041b9
:1006f00090b58db004af786039609b4bb3f8923001
:1007000001339ab2984ba3f892207b685b68974ab2
:1007100013607b685b89132b08d8934bb3f89a302e
:1007200001339ab2904ba3f89a20a3e3904b5b69f4
:100730008f4a12681146184622f08afd0346002ba4
:1007400005d18b4b5b6903f0f003e02b08d1864b9e
:10075000b3f8a03001339ab2834ba3f8a02089e309
:100760007b681a89834b0093834b062178682af0b3
:1007700053fd03463b823b8a002b08d07a4bb3f8eb
:10078000983001339ab2784ba3f8982072e3774bf4
:100790001b689b899bb218462af028fd03461b0b59
:1007a0009bb2dbb29b00fb73fb7b132b05d9fb7b5e
:1007b0009ab27b681b899a4208d96b4bb3f89a307e
:1007c00001339ab2684ba3f89a2053e3fb7b9bb2a8
:1007d000143b9ab2694b1a80694b00221a607b68fd
:1007e0005a89fb7b9bb29a4209d3644b1a88654baa
:1007f0001a80fb7b1946786823f0e2fd35e014216e
:10080000786823f0ddfd7b685a895e4b1a805b4b6c
:100810001a885c4b1b88d31abb815a4b1b8819461c
:10082000786823f0cdfd7b681b685b89ba899a42a2
:1008300008d94d4bb3f89a3001339ab24a4ba3f81a
:100840009a2017e37b681b685b684d4a13607b68de
:100850001b68ba891146184623f0b2fd7b681a89d5
:10086000bb89d31a9ab27b681a81404b1b681b88dc
:100870009bb23e4a146818462af0b8fc034623800f
:100880003a4b1b685b889bb2384a146818462af0ba
:10089000adfc03466380354b1b685b68334a1468c4
:1008a000184629f0d6ff034663606368364a136032
:1008b0002e4b1b689b682d4a1468184629f0c9ff07
:1008c0000346a360a368314a1360284b1b68db8989
:1008d0009bb2264a146818462af088fc0346e38136
:1008e000224b1b689b899bb218462af07ffc03466b
:1008f000dbb203f03f03dab2254b1a707b681a892a
:10090000244b1a80224b1b7803f00303002b14d0d6
:10091000204b1b8801339ab21e4b1a807b681a89c0
:100920001c4b1b889a4208d90f4bb3f89a300133fd
:100930009ab20d4ba3f89a209ce20023bb61164ba0
:100940001b68fb6163e0fb691b7a002b26d0fb6907
:100950001a7a074b5b6893f82c300133dbb29a426a
:100960001cd0fb69bb614fe03c5b45202c6c4520f3
:10097000f86845200c69452008694520fe69452036
:10098000306c45200a6a4520346c4520386c45207f
:100990003a6a45202e6a4520246c4520fb691a8b53
:1009a000684b1b681b889bb29a422bd1fb69da8a81
:1009b000644b1b685b889bb29a4223d1fb695a68df
:1009c000614b1b699a421dd1fb691a685e4b5b69da
:1009d0009a4217d1bb69002b0bd0fb69da68bb695f
:1009e000da605a4b1a68fb69da60584afb6913608f
:1009f00010e0574bb3f8a63001339ab2544ba3f82a
:100a0000a62007e0fb69bb61fb69db68fb61fb6952
:100a1000002b98d1fb69002b40f0a0804d4b1b6848
:100a2000fb6134e0fb691b7a002b09d0fb691a7a61
:100a3000454b5b6893f82c300133dbb29a4222d1ec
:100a4000fb691a8b3f4b1b681b889bb29a421bd1d8
:100a5000fb69da8a3b4b1b685b889bb29a4213d1d5
:100a6000fb695a68384b1b699a420dd1fb691a68b9
:100a7000354b5b699a4207d1f8691bf0ebf978684e
:100a80001ef059fd03e200bffb69db68fb61fb69f7
:100a9000002bc7d10023bb612f4b1b687b612ae071
:100aa0007b691b7a002b0cd07b691a7a264b5b681a
:100ab00093f82c300133dbb29a4202d07b69bb61e0
:100ac00016e07b69da8a1f4b1b685b889bb29a42ef
:100ad0000cd17b691a681c4b5b699a420fd07b6909
:100ae000002b0dd07b691b68002b09d07b69bb6193
:100af0007b69db687b617b69002bd1d100e000bfa3
:100b00007b69002b2ad0bb69002b0bd07b69da688c
:100b1000bb69da60104b1a687b69da600e4a7b6940
:100b2000136007e00a4bb3f8a63001339ab2084bc2
:100b3000a3f8a62078690ef0c5fb78681ef0fbfcd0
:100b4000a5e100bf2c6c4520f8684520246c4520a9
:100b50003c5b4520286c4520206c4520fb69002b20
:100b600000f04e819c4b00221a607b681a899a4bd8
:100b70001a81994a7b685360984b1b68964ad360e8
:100b8000974b00221a60974b00221a70964b002256
:100b90001a80964b1b7803f00803002b06d07b6865
:100ba0005b7b43f00103dab27b685a73fb699b6f8e
:100bb000002b1ed0f8691af079fd034613f10d0fd2
:100bc00007d0fb699b6f002b13d0894b1b88002b30
:100bd0000fd0fb695b8d002b02d1f8691ff051fc2f
:100be000844bb3f8963001339ab2824ba3f8962027
:100bf000dfe0814afb691360f86900f059f90346a8
:100c0000fb7497f9133013f10d0f00f0c780754b8b
:100c10001b7803f00803002b15d0fb69d3f8903044
:100c2000002b08d0fb69d3f89030fa6912696ff095
:100c30000d0110469847f96970481ff063fdf86987
:100c40002bf0f0fdb5e00023fb74674b1b88002bf5
:100c50001dd0654b1b887b81fb69d3f88030002b4e
:100c60000ad0fb69d3f88030fa6910697a89f9698a
:100c700098470346fb7401e00023fb7497f9133097
:100c800013f10d0f00f08c80574b00221a80f86989
:100c900025f03ef80346002b40f08480504b1b6843
:100ca000002b36d0fb695b8b03f01003002b08d0c0
:100cb0004b4b1b6818461ef03efcf8692bf0cafd32
:100cc00077e0fb69d3f88430002b0cd0fb69d3f8b4
:100cd0008440fb691869424b1a680023f969a047f0
:100ce0000346fb7408e03e4b1a680023f9690020b4
:100cf00026f0e2fe0346fb7497f9133013f10d0f53
:100d000052d097f91330002b03d0354b1a68fb698a
:100d10009a67344b1b7803f02003002b31d0fb691a
:100d20009b6f002b09d0fb699b6f5a7bfb699b6f04
:100d300042f02002d2b25a7323e0fb691b8d41f2cc
:100d4000d062934205d0fb691b8d01339ab2fb69d7
:100d50001a85fb69d3f88430002b0bd0fb69d3f8dc
:100d60008440fb69186900230022f969a047034603
:100d7000fb7401e00023fb7497f9133013f10d0f9e
:100d800014d01d4b00221a60f86924f0c1ff0346fd
:100d9000002b0dd1f86906f0c5fb0ae000bf08e0a2
:100da00000bf06e000bf04e000bf02e000bf00e0bb
:100db00000bf114b00221a60094b00221a60064b3b
:100dc0005b68002b62d0044b5b6818461ef0b3fbd7
:100dd000014b00225a6059e0c06945202c6c452027
:100de0003c6c45203b6a4520226a45203a6a4520f2
:100df0002e6a45203c5b4520406c4520246c4520f4
:100e0000244b1b689b899bb218462af0eff90346d6
:100e1000dbb203f00403002b28d11f4bb3f8a03042
:100e200001339ab21c4ba3f8a0201b4bb3f89630a9
:100e300001339ab2184ba3f89620184b1968184b37
:100e40001b881a46174b1b68d018124b1b685b880f
:100e50009bb2104a1268128892b202920193124b0e
:100e60000093124b0246002024f065fa78681ef0c9
:100e700062fb0be0084bb3f8963001339ab2064b95
:100e8000a3f8962078681ef056fb00e000bf2437d8
:100e9000bd4690bd2c6c45203c5b4520386c452000
:100ea0002e6a4520346c4520086945200c69452090
:020000040000fa
:020000040041b9
:100eb00090b58db004af78600023fb760023bb763d
:100ec0009c4b1b7803f00403002b43d07b681b7df5
:100ed000022b08d17b681a6d974b1b689a4223d16d
:100ee0000123fb7620e07b685a6a944b1b689a4288
:100ef00002d10123fb7617e0904b1a687b685b6a8e
:100f0000d31a002b10db8d4b1a687b685b6a7968fb
:100f1000098d0b44d31a002b06dc7b685b8b43f0f6
:100f200002039ab27b685a83fb7e002b10d0844b5d
:100f30001b7843f00803dab2814b1a707b685b8b35
:100f400023f001039ab27b685a836ff00d0345e3e7
:100f5000002343e3774b1b7803f00203002b10d0f0
:100f60007b681b7d022b0cd07b681b7d032b08d07c
:100f70007b685b8b43f002039ab27b685a83002341
:100f80002ce37b685b8b03f01003002b03d16d4bcc
:100f90001a687b681a627b68002283f89b207b6852
:100fa000002283f89a2078681bf02cfc7b681b7d5c
:100fb000023b072b00f2028301a252f823f000bf8c
:100fc000e10f4100cb1141002b13410055134100ab
:100fd0006b1441002b134100f714410087154100a9
:100fe000544b1b7803f01003002b00f0c180514bd1
:100ff0001b7803f00203002b00f0ba807b685b6c67
:101000005a1c4d4b1b689a4240f0b2804b4b1b68f8
:101010005a1c7b685a627b685a6a7b68da62464b64
:101020001a687b685a64484b1b68db899ab27b68f4
:10103000a3f860207b68b3f860207b68a3f8622087
:101040003e4b1b685a1e7b685a657b6804221a75e2
:101050007b685c8e7b680433184623f0e9fb01460d
:101060007b6804331a46204625f004fe03461a46e0
:101070007b685a867b685b8e9a007b685b8e5b0020
:1010800041f21c118b4238bf0b469a4204d27b6856
:101090005b8e9b009bb20de07b685b8e5b0041f238
:1010a0001c12934204d97b685b8e5b009bb201e00b
:1010b00041f21c137a68a2f848307b68b3f86630b6
:1010c000013b9ab27b68a3f866207b681b6ffb61cb
:1010d000fb69002b07d17b68db6efb61fb691a683b
:1010e0007b68da6603e0fb691a687b681a67f8694f
:1010f00029f07afd7b681b6f002b04d17b684ff6cb
:10110000ff721a8606e07b6800221a867b6800223e
:1011100083f842207b68d3f88830002b16d07b6898
:10112000d3f888307a6810690022796898470346b6
:10113000bb760de03a6a4520386c4520346c45207a
:101140003b6a4520186c45202c6c45200023bb765b
:1011500097f91a3013f10d0f02d16ff00c033de235
:101160007b685b8b43f002039ab27b685a8327e269
:10117000964b1b7803f01003002b00f02182944b58
:101180001968944b1b881a46934b1b68d018934bd5
:101190001b685b889bb2914a1268128892b20292d5
:1011a00001938f4b00938f4b0246786824f0c3f86d
:1011b0007b6893f84230052b00f202827b680022a4
:1011c0001a8678682af09bfdfae1804b1b7803f0c1
:1011d0001003002b00f095807d4b1a687b685b6cd8
:1011e000d31a013b002b72db794b1a687b681b6dad
:1011f000d31a002b6bdc7b6804221a757b68db6fcb
:10120000002b02d1fa23bb7611e07b68db6f9b6970
:10121000002b0ad07b68db6f9b697a68106900221b
:10122000796898470346bb7601e0f023bb7697f9cf
:101230001a30002b0ad097f91a3013f10d0f02d093
:1012400078682bf007fb6ff00c03c7e17868fdf7b7
:1012500093f8654b1b88002b05d0634b1b88013b23
:101260009ab2614b1a807b685b8e9a007b685b8eba
:101270005b0041f21c118b4238bf0b469a4204d2ec
:101280007b685b8e9b009bb20de07b685b8e5b0096
:1012900041f21c12934204d97b685b8e5b009bb2c7
:1012a00001e041f21c137a68a2f848304f4b1b78da
:1012b00003f02003002b37d07b685b8b43f00203e5
:1012c0009ab27b685a837b6807221a752ce0404be0
:1012d0001968404b1b881a463f4b1b68d0183f4b80
:1012e0001b685b889bb23d4a1268128892b20292d8
:1012f00001933b4b00933b4b0246786824f01bf86c
:1013000060e1324b1b7803f00203002b00f05a819e
:101310007b685b6a5a1e304b1b689a4240f05281d0
:1013200078681df0bbfb4de14ce17868fdf724f8cf
:101330002e4b1b7803f02003002b00f045817b68c7
:101340005b8b43f002039ab27b685a837b68072267
:101350001a7539e17868fdf70ff8244b1b7803f014
:101360002003002b6ad0194b1b7803f01003002bcd
:1013700059d07b681a6d164b1b689a4253d17b6813
:10138000db6e002b4fd17b685b8b43f002039ab27c
:101390007b685a83786821f095fb154b1b687a6847
:1013a0009a4205d1124b1b68db68114a136027e093
:1013b0000f4b1b687b6120e07b69db687a689a428f
:1013c00018d17b68da687b69da6019e03a6a4520ef
:1013d000386c45202e6a4520346c45202c6c452005
:1013e000086945200c694520226a45203b6a452052
:1013f000246c45207b69db687b617b69002bdbd13a
:101400007b680022da60774b01221a707b680a221f
:101410001a75754b1a687b68da60734a7b681360cb
:1014200028f0daf9d2e07b685b8b43f002039ab2d2
:101430007b685a837b6808221a75c7e06b4b1b7860
:1014400003f01003002b00f0c1807b681a6d684b1d
:101450001b689a4240f0ba807b68db6e002b40f03c
:10146000b5807b6806221a75b0e07868fcf784ffc7
:10147000604b1b7803f02003002b00f0a9807b68f1
:101480005b8b43f002039ab27b685a83786821f041
:1014900019fb594b1b687a689a4205d1564b1b6859
:1014a000db68554a136013e0534b1b683b610ce04b
:1014b0003b69db687a689a4204d17b68da683b69e9
:1014c000da6005e03b69db683b613b69002befd1eb
:1014d0007b680022da60434b01221a707b680a2283
:1014e0001a75414b1a687b68da603f4a7b68136063
:1014f00028f072f96ce07868fcf73eff3b4b1b78f4
:1015000003f01003002b65d07b681a6d384b1b6805
:101510009a425fd17b68db6e002b5bd1786821f04b
:10152000d1fa354b1b687a689a4205d1324b1b6859
:10153000db68314a136013e02f4b1b68fb600ce043
:10154000fb68db687a689a4204d17b68da68fb68da
:10155000da6005e0fb68db68fb60fb68002befd11d
:101560007b680022da601f4b01221a707b680a2216
:101570001a751d4b1a687b68da601b4a7b6813601a
:1015800028f02af926e07868fcf7f6fe174b1b785e
:1015900003f01003002b1fd07b681a6d144b1b68df
:1015a0009a4219d17b68db6e002b15d1114b1b7849
:1015b00043f01003dab20f4b1a700de000bf0ce0dd
:1015c00000bf0ae000bf08e000bf06e000bf04e083
:1015d00000bf02e000bf00e000bf00231846243730
:1015e000bd4690bdcb664520286c45203a6a452013
:0c15f000386c45203b6a4520246c4520e7
:020000040000fa
:020000040041b9
:0415fc00c0a8060875
:020000040000fa
:020000040041b9
:101600002de9f04f2ded088badf5077d9ded98aae6
:101610000193999b02930546934608460022302881
:101620004bd02e286cd1eb6be96c8b4252d2591cfb
:10163000e96318780024a246302851d00121002304
:10164000069398461e461f46994600bfa0f1300cef
:10165000bcf1090f68d92e2856d0002904bf3446a2
:101660009a46002a00f03c8340f02001652940f0b2
:10167000508302990393284614f050f8b1f1004fbb
:1016800008bf0028039b0ad1029a002a00f0358384
:10169000ea6c12b1ea6b013aea63002001462018b5
:1016a00004464aeb010a069a002a76d19feda67bf2
:1016b000b8eeca0b20ee070b25e3eb6bea6c934206
:1016c00004d25a1cea6318780122a8e7284625f0bc
:1016d00055fbf9e72846039225f050fb039aa9e74a
:1016e000eb6bea6c013c6af1000a934204d25a1c8b
:1016f000ea63187801229fe7284625f03ffbf9e7c7
:1017000000210c468a469ae70029aad134469a4617
:101710000121d5f83cc0e86c844534d20cf10100bd
:10172000e8639cf8000091e7013643f100037c2f49
:1017300020dc302818bfb04606aab9f1000f0fd040
:1017400052f8272006a802eb820209f101090cebee
:101750004202b9f1090f40f8272006d00122d8e74c
:1017600042f827c04ff00109f8e7013701224ff096
:101770000009cee730281fbf829840f00100829018
:1017800040f25c48c5e72846cde90413039225f0f2
:10179000f5fadde90413039a58e7534508bfa6425a
:1017a00010d10a2e73f100030cdabbf11e0f02dc1c
:1017b00032fa0bf306d107ee902ab8eeca0bb8ee58
:1017c000677b77e7019b03ebd3735b105b42da1710
:1017d000a34272eb0a0209da614b9fed5d7b222284
:1017e000b8eeca0b1a6020ee070b63e7019ba3f16a
:1017f0006a02d31794427aeb030307da584b22228a
:101800009fed557bb8eeca0b1a60ece7b9f1000ffb
:101810001dd1b8f1080fa1464fdca0454ddc112cbd
:101820004bdc092c18d19ded060ab8eecaabb8ee18
:10183000400b20ee0a0b66e206ab06aa53f82730ef
:1018400003eb83035b0042f8273009f10109b9f18a
:10185000080ff1dd0137dce7082c13dc414b9ded6f
:10186000067ac4f1080403eb8403b8ee477bb8eeb4
:10187000caab27ee0aab93ed007ab8eec77b8aeecf
:10188000070b40e2a4f10903a3eb83035b441e2b87
:1018900002dc069ada4010d1324b9ded060a0a3c72
:1018a00003eb840393ed007ab8ee400bb8eecaabbd
:1018b000b8eec77b20ee0a0bfce63e4606ab013fc6
:1018c00053f82730002bf8d0092594fbf5f505ebec
:1018d000c505651b18d0002cb8bf0935214bdff8b2
:1018e0008880c5f1080206ac53f822700023184620
:1018f0001a46b2420ad11bb106aa42f82630013676
:10190000c5f10905a944054600274de02168b1fb52
:10191000f7fe82420eeb030c07fb1e1198fbf7f358
:1019200044f804cb01fb03f302f10102e1d1bcf165
:10193000000fded102f07f00a9f10909d9e70023e9
:1019400090e000bfaff30080000000000000000046
:10195000ffffffffffffef7f00000000000010000f
:10196000786c45208cc1430000ca9a3bac4240f0e1
:101970008880cbb1013d05f07f05ae4209f1090930
:101980000ed102f07f06721e02f07f0206a906a8a1
:1019900051f8221050f82600014306a840f8221002
:1019a00006aa42f8253000bfb9f1110f3eddb9f1aa
:1019b000120f35d0dff820a3dff820e3b54212d0b4
:1019c00006abc14a53f8253093420cd901329342f9
:1019d0000cd16b1c03f07f03b34204d006aa52f86b
:1019e0002330534502d2b9f1120f75d0b9f11b0f54
:1019f000ccbf09200120012282400744013a4efa5f
:101a000000f82b460021b3423fd1002961d05a1c77
:101a100002f07f02aa4251d006a840f8231059e0f4
:101a200006aba94a53f825309342c3d8741e00234d
