:020000040000fa
:020000040040ba
:10c00000f8ff4520ed674300452f44004b2f4400c7
:10c01000572f44005d2f4400632f440000000000b0
:10c02000000000000000000000000000910e44002d
:10c03000512f44000000000091994300d1d14300ea
:10c040000763410007634100076341000763410044
:10c050000763410007634100076341000763410034
:10c0600007634100000000000763410007634100cf
:10c0700007634100c1ae420007634100f1a54200e1
:10c080000763410007634100076341000763410004
:10c0900007634100076341000763410007634100f4
:10c0a00007634100076341000763410007634100e4
:10c0b00007634100076341000763410007634100d4
:10c0c00007634100076341001f2e440007634100de
:10c0d000076341004d8b4200076341000763410045
:10c0e00007634100076341000763410007634100a4
:10c0f0009d624300076341000763410007634100fd
:10c10000076341000763410035e3430007634100d3
:10c1100007634100076341000000000000000000c9
:10c120000763410007634100076341000763410063
:10c1300007634100076341000000000007634100fe
:10c140000763410007634100076341000763410043
:10c150000763410007634100076341000763410033
:08c16000076341000763410081
:020000040000fa
:020000040040ba
:10c16800f8b500bff8bc08bc9e467047d9e143004b
:10c17800f8b500bff8bc08bc9e467047b5e143005f
:020000040000fa
:020000040040ba
:08c1880068f70000010000004f
:020000040000fa
:020000040040ba
:10c19000556c746973000000646576005072696eb6
:10c1a00074206c697374206f6620646576656c6fab
:10c1b00070657220636f6d6d616e647300000000c6
:10c1c00068656c70000000005072696e74206c69c4
:10c1d0007374206f6620636f6d6d616e6473205b96
:10c1e0004669726d776172653a20315d000000002a
:10c1f000636c7300436c65617273207468652063bf
:10c200006f6e736f6c65000054696d65000000000f
:10c210007274635f736574005365742052544320d5
:10c2200074696d653a207274635f736574203c684d
:10c230003e203c6d3e203c733e203c44443e203c2e
:10c240004d4d3e203c59593e000000007274635f22
:10c2500067657400476574205254432e20557361fe
:10c2600067653a207274635f676574203c68617229
:10c27000647c736f66747c776f726b7c65706f63c0
:10c28000687c616c6c3e000065706f63685f73650d
:10c2900074000000536574205254432074696d6526
:10c2a0002062792065706f63683a207274635f73ef
:10c2b000657465706f6368203c65706f63683e00ed
:10c2c00053797374656d00006f735f7374617400ec
:10c2d000436865636b204672656552544f53207402
:10c2e00061736b733a206f735f7374617400000045
:10c2f000646d6573670000005072696e7420646d30
:10c30000657367206c6f67733a20646d657367208f
:10c310005b4e5d004652414d000000006672616d4b
:10c320005f69640052656164204652414d20494472
:10c330003a206672616d5f69640000006672616d2b
:10c340005f7772697465000057726974652062795d
:10c3500074653a206672616d5f7772697465203c1e
:10c36000616464723e203c76616c313e205b766194
:10c370006c325d202e2e2e006672616d5f726561db
:10c3800064000000526561642062797465733a202c
:10c390006672616d5f72656164203c616464723ec7
:10c3a000203c6c656e3e00006672616d5f77737451
:10c3b00072000000577269746520737472696e6749
:10c3c0003a206672616d5f77737472203c616464b9
:10c3d000723e203c737472696e673e006672616dd6
:10c3e0005f7273747200000052656164207374722e
:10c3f000696e673a206672616d5f72737472203c79
:10c40000616464723e203c6d61786c656e3e000034
:10c410006672616d5f7465737400000052756e2002
:10c420004652414d20746573743a206672616d5fa7
:10c43000746573740000000043414e0063616e5fd9
:10c4400073656e64000000005261772043414e3aec
:10c450002063616e5f73656e64203c69643e205b9f
:10c460006578745d205b62302062312e2e2e5d0077
:10c47000435350006373705f70696e670000000083
:10c480004353502070696e673a206373705f706920
:10c490006e67203c646573745f616464723e205b08
:10c4a00074696d656f75745f6d735d006373705f44
:10c4b00073656e64000000004353502073656e6422
:10c4c0003a206373705f73656e64203c61646472cc
:10c4d0003e203c706f72743e203c646174612e2e6d
:10c4e0002e3e00006373705f696e666f000000008f
:10c4f000435350207374617475733a206373705f93
:10c50000696e666f00000000506172616d0000008e
:10c51000706172616d5f73686f77000053686f7749
:10c5200020616c6c206669656c6473206f662061a5
:10c53000207461626c653a20706172616d5f73682e
:10c540006f77203c7461626c655f696420302d34c4
:10c550003e000000706172616d5f736574000000e1
:10c560005365742061206669656c6420696e206182
:10c57000207461626c653a20706172616d5f7365f1
:10c5800074203c7461626c655f69643e203c616448
:10c5900064723e203c747970653e203c76616c7517
:10c5a000653e00004c4544006c65645f7365740033
:10c5b000436f6d6d656e7420666f6c6c6f77696e1e
:10c5c000673a206c65645f73657400006c65645f36
:10c5d0007265736574000000436f6d6d656e742045
:10c5e000666f6c6c6f77696e673a206c65645f721a
:10c5f0006573657400000000534f4c00736f6c5fef
:10c6000073696e676c655f6f6e0000005475726ec3
:10c61000206f6e2073696e676c6520736f6c656e3a
:10c620006f69643a20736f6c5f73696e676c655fe6
:10c630006f6e203c696e6465783e0000736f6c5fbe
:10c6400073696e676c655f6f666600005475726e25
:10c65000206f66662073696e676c6520736f6c650a
:10c660006e6f69643a20736f6c5f73696e676c6597
:10c670005f6f6666203c696e6465783e000000006e
:10c68000736f6c5f73696e676c655f6765740000dc
:10c69000476574207374617475732073696e676c79
:10c6a0006520736f6c656e6f69643a20736f6c5fa1
:10c6b00073696e676c655f676574203c696e64655d
:10c6c000783e000072657365740000005265736502
:10c6d00074204d43553a2072657365740000000064
:10c6e000485452006865617465725f736574000038
:10c6f000436f6d6d656e7420666f6c6c6f77696edd
:10c70000673a206865617465725f736574203c6385
:10c7100068616e6e656c3e203c647574793e2000e5
:10c72000504f574552000000706f7765725f736f0e
:10c730006d5f6f6e00000000706f7765725f736fe2
:10c740006d5f6f6e3a20656e61626c65206566751f
:10c75000736520666f72207475726e206f6e207321
:10c760006f6d0000706f7765725f736f6d5f6f66de
:10c7700066000000706f7765725f736f6d5f6f6644
:10c78000663a2064697361626c65206566757365dd
:10c7900020666f72207475726e206f666620736fec
:10c7a0006d000000706f7765725f736f6d5f676516
:10c7b00074000000706f7765725f736f6d5f6765ff
:10c7c000743a2067657420706f77657220737461a6
:10c7d000747573206f6620736f6d0000706f7765de
:10c7e000725f6275636b5f706572695f6f6e000088
:10c7f000706f7765725f6275636b5f706572695f9a
:10c800006f6e3a20656e61626c6520656675736552
:10c8100020666f72207475726e206f6e2062756371
:10c820006b20706572690000706f7765725f62756a
:10c83000636b5f706572695f6f666600706f7765c6
:10c84000725f6275636b5f706572695f6f66663a8f
:10c850002064697361626c65206566757365206626
:10c860006f72207475726e206f6666206275636bde
:10c870002070657269000000706f7765725f627585
:10c88000636b5f706572695f67657400706f776571
:10c89000725f6275636b5f706572695f6765743a3a
:10c8a0002067657420706f7765722073746174758a
:10c8b00073206f66206275636b207065726900007b
:10c8c000706f7765725f7465635f6f6e0000000064
:10c8d000706f7765725f7465635f6f6e3a20656e27
:10c8e00061626c6520656675736520666f72207481
:10c8f00075726e206f6e207465630000706f7765cf
:10c90000725f7465635f6f6666000000706f7765c5
:10c91000725f7465635f6f66663a20646973616213
:10c920006c6520656675736520666f72207475721c
:10c930006e206f666620746563000000706f776517
:10c94000725f7465635f676574000000706f776580
:10c95000725f7465635f6765743a20676574207001
:10c960006f77657220737461747573206f662074bd
:10c9700065630000706f7765725f6864345f6f6e27
:10c9800000000000706f7765725f6864345f6f6edf
:10c990003a20656e61626c65206566757365206618
:10c9a0006f72207475726e206f6e206864340000a0
:10c9b000706f7765725f6864345f6f666600000051
:10c9c000706f7765725f6864345f6f66663a206483
:10c9d000697361626c6520656675736520666f7248
:10c9e000207475726e206f666620686434000000e3
:10c9f000706f7765725f6864345f6765740000000c
:10ca0000706f7765725f6864345f6765743a20673a
:10ca1000657420706f77657220737461747573200c
:10ca20006f66206864340000706f7765725f736fa3
:10ca30006c656e6f69645f6f6e000000706f776584
:10ca4000725f736f6c656e6f69645f6f6e3a2065bd
:10ca50006e61626c6520656675736520666f722015
:10ca60007475726e206f6e20736f6c656e6f696483
:10ca700000000000706f7765725f736f6c656e6f9a
:10ca800069645f6f66660000706f7765725f736fd1
:10ca90006c656e6f69645f6f66663a206469736186
:10caa000626c6520656675736520666f72207475ab
:10cab000726e206f666620736f6c656e6f696400be
:10cac000706f7765725f736f6c656e6f69645f67b7
:10cad00065740000706f7765725f736f6c656e6f61
:10cae00069645f6765743a2067657420706f776565
:10caf0007220737461747573206f6620736f6c6538
:10cb00006e6f696400000000706f7765725f6c7013
:10cb10005f6f6e00706f7765725f6c705f6f6e3afb
:10cb200020656e61626c6520656675736520666f51
:10cb300072207475726e206f6e206c7000000000a1
:10cb4000706f7765725f6c705f6f666600000000e3
:10cb5000706f7765725f6c705f6f66663a206469ac
:10cb60007361626c6520656675736520666f7220ff
:10cb70007475726e206f6666206c7000706f7765da
:10cb8000725f6c705f67657400000000706f77659e
:10cb9000725f6c705f6765743a2067657420706fb0
:10cba00077657220737461747573206f66206c7082
:10cbb00000000000706f7765725f68656174657270
:10cbc0005f6f6e00706f7765725f68656174657224
:10cbd0005f6f6e3a20656e61626c65206566757385
:10cbe0006520666f72207475726e206f6e206865a6
:10cbf0006174657200000000706f7765725f686530
:10cc0000617465725f6f666600000000706f776523
:10cc1000725f6865617465725f6f66663a20646909
:10cc20007361626c6520656675736520666f72203e
:10cc30007475726e206f6666206865617465720037
:10cc4000706f7765725f6865617465725f67657440
:10cc500000000000706f7765725f686561746572cf
:10cc60005f6765743a2067657420706f776572201e
:10cc7000737461747573206f662068656174657282
:10cc800000000000706f7765725f616c6c5f6f6ea3
:10cc900000000000706f7765725f616c6c5f6f6e93
:10cca0003a20656e61626c65206566757365206605
:10ccb0006f72207475726e206f6e20616c6c2072c2
:10ccc00061696c7300000000706f7765725f616c62
:10ccd0006c5f6f6666000000706f7765725f616cf5
:10cce0006c5f6f66663a2064697361626c6520658b
:10ccf0006675736520666f72207475726e206f663c
:10cd00006620616c6c207261696c7300706f77656e
:10cd1000725f616c6c5f676574000000706f7765af
:10cd2000725f616c6c5f6765743a20676574207030
:10cd30006f77657220737461747573206f662061fc
:10cd40006c6c207261696c7300000000424d5033be
:10cd500039300000626d703339305f696e745f7214
:10cd600065616400626d703339305f636f6e6e654c
:10cd700063746f725f726561643a207265616420ea
:10cd800076616c756520424d5033393020636f6e8b
:10cd90006e6563746f720000626d703339305f6569
:10cda00078745f7265616400626d703339305f65fd
:10cdb00078745f656e610000626d703339305f6357
:10cdc0006f6e6e6563746f725f656e61626c653afb
:10cdd00020656e61626c6520737769746368206991
:10cde000326320666f7220626d7033393020636f5a
:10cdf0006e6e6563746f7200626d703339305f659b
:10ce000078745f6469730000626d703339305f63fa
:10ce10006f6e6e6563746f725f64697361626c6577
:10ce20003a2064697361626c652073776974636822
:10ce30002069326320666f7220626d703339302052
:10ce4000636f6e6e6563746f7200000054455354d7
:10ce5000000000006563686f000000006563686f94
:10ce6000203c746578743e00657870616e6465720c
:10ce70005f77726974650000657870616e646572d1
:10ce80005f7772697465203c76616c3e000000003b
:10ce9000657870616e6465725f7265616400000040
:10cea000544543007465635f696e69740000000057
:10ceb0007465635f766f6c007465635f656e000018
:10cec0007465635f7377656e000000007465635f6f
:10ced000726561645f726567000000004c415345f4
:10cee000520000006c617365725f696e745f7365f8
:10cef000745f6461630000006c617365725f696eea
:10cf0000745f73775f6f6e006c617365725f696edb
:10cf1000745f73775f6f6666000000001b5b324ac8
:10cf20000000000055736167653a207274635f7397
:10cf30006574203c686f75723e203c6d696e757437
:10cf4000653e203c7365636f6e643e203c6461798e
:10cf50003e203c6d6f6e74683e203c796561723e88
:10cf600000000000496e76616c696420686f75721c
:10cf700020286d75737420626520302d3233292e80
:10cf800020506c6561736520656e74657220616701
:10cf900061696e2e00000000496e76616c69642044
:10cfa0006d696e75746520286d75737420626520d7
:10cfb000302d3539292e20506c6561736520656ee2
:10cfc00074657220616761696e2e0000496e76613a
:10cfd0006c6964207365636f6e6420286d7573746b
:10cfe00020626520302d3539292e20506c65617303
:10cff0006520656e74657220616761696e2e000040
:10d00000496e76616c69642064617920286d75735e
:10d010007420626520312d3331292e20506c6561da
:10d02000736520656e74657220616761696e2e009c
:10d03000496e76616c6964206d6f6e746820286d2e
:10d0400075737420626520312d3132292e20506c89
:10d050006561736520656e74657220616761696ed4
:10d060002e000000496e76616c69642079656172fa
:10d0700020286d75737420626520322064696769a9
:10d0800074732c20652e672e2c20323520666f722b
:10d090002032303235292e20506c65617365206551
:10d0a0006e74657220616761696e2e002d2d3e20c1
:10d0b0005254432073657420746f20253032643ad3
:10d0c000253032643a253032642c20253032642fea
:10d0d000253032642f3230253032640000000000e9
:10d0e00055736167653a207274635f676574203cad
:10d0f000686172647c736f66747c776f726b7c6539
:10d10000706f63687c616c6c3e00000068617264e3
:10d11000000000004661696c656420746f206765db
:10d12000742068617264205254430d0a00000000ac
:10d13000736f6674000000002d2d3e20536f6674df
:10d14000205254433a2054696d653a2025303264a8
:10d150003a253032643a253032642c2044617465bb
:10d160003a20253032642f253032642f323025307a
:10d1700032640000776f726b000000002d2d3e209e
:10d18000576f726b696e6720557074696d653a20d0
:10d1900054696d653a20253032643a253032643a5c
:10d1a000253032642c20446179733a2025640000d4
:10d1b00065706f63680000002d2d3e2045706f6321
:10d1c000683a20256c750000616c6c00556e6b6ec2
:10d1d0006f776e206d6f64652e205573653a2072ef
:10d1e00074635f676574203c686172647c736f660a
:10d1f000747c776f726b7c65706f63687c616c6c3c
:10d200003e00000055736167653a207274635f7376
:10d21000657465706f6368203c65706f63683e007d
:10d22000496e76616c69642065706f63682e204d6d
:10d23000757374206265203e3d20256c75000000ea
:10d240004e756d626572206f66207461736b73201a
:10d2500072756e6e696e673a20256c75000000006d
:10d260004e6f207461736b7320666f756e64206ff0
:10d2700072206572726f72206f636375727265647b
:10d280002e000000546f74616c205461736b733a0c
:10d2900020256c75000000005461736b204e616d99
:10d2a00065202020202020202020205374617465d8
:10d2b00020202020205072696f2020537461636bfe
:10d2c000204c6566740000002d2d2d2d2d2d2d2d4b
:10d2d0002d2d2d2d2d2d2d2d2d2d2d2d2d2d2d2d7e
:10d2e0002d2d2d2d2d2d2d2d2d2d2d2d2d2d2d2d6e
:10d2f0000000000052756e6e696e670052656164d1
:10d3000079000000426c6f636b6564005375737045
:10d31000656e640044656c6574656400556e6b6e83
:10d320006f776e00252d31387320252d3130732015
:10d33000252d346c75202531306c7500446d657376
:10d3400067202d204c6f67676572204d6573736190
:10d3500067653a002d2d3e204f6c64657374203e46
:10d360003e0000002d2d3e204c6174657374203cfe
:10d370003c0000004c617465737420256c75204c72
:10d380006f67733a000000002d2d3e204652414d3c
:10d39000204465766963652049443a0020202020b6
:10d3a0004d616e7566616374757265723a2030788e
:10d3b000253032582025303258202530325820254b
:10d3c000303258002020202050726f647563742022
:10d3d00049443a20202030782530325820253032f8
:10d3e000580000002020202044656e736974793a4b
:10d3f000202020202020307825303258202530323f
:10d4000058202530325800002d2d3e204661696c91
:10d41000656420746f20726561642049443a202558
:10d420006400000055736167653a206672616d5f44
:10d430007772697465203c616464723e203c766159
:10d440006c313e205b76616c325d202e2e2e00000a
:10d450004578616d706c653a206672616d5f7772b8
:10d460006974652030783130302030784141203087
:10d470007842422030784343000000004572726fca
:10d48000723a204e6f206461746120746f2077724d
:10d49000697465002d2d3e205772697474656e2085
:10d4a000257520627974657320746f2061646472dd
:10d4b0006573732030782530366c58002d2d3e2052
:10d4c0005772697465206661696c65643a202564e9
:10d4d0000000000055736167653a206672616d5ff8
:10d4e00072656164203c616464723e203c6c656ed0
:10d4f0003e0000004578616d706c653a206672618f
:10d500006d5f7265616420307831303020313600d3
:10d510004572726f723a204c656e677468206d7543
:10d52000737420626520312d323536002d2d3e205a
:10d530005265616420257520627974657320667276
:10d540006f6d2061646472657373203078253036a6
:10d550006c583a0020202020253034583a20000012
:10d5600025303258200000002d2d3e205265616488
:10d57000206661696c65643a2025640055736167b3
:10d58000653a206672616d5f77737472203c6164e6
:10d5900064723e203c737472696e673e0000000046
:10d5a0004578616d706c653a206672616d5f777366
:10d5b0007472203078323030202248656c6c6f20d5
:10d5c0004652414d212200004572726f723a20533b
:10d5d0007472696e6720746f6f206c6f6e6720289d
:10d5e0006d617820323535206368617273290000df
:10d5f0002d2d3e205772697474656e2073747269a4
:10d600006e67202825752062797465732920746ff0
:10d610002030782530366c58000000002020202073
:10d62000222573220000000055736167653a206669
:10d6300072616d5f72737472203c616464723e202b
:10d640003c6d61786c656e3e000000004578616d50
:10d65000706c653a206672616d5f7273747220300f
:10d6600078323030203634004572726f723a204d75
:10d670006178206c656e677468206d7573742062c4
:10d680006520312d323536002d2d3e2052656164e6
:10d6900020737472696e672066726f6d20616464b6
:10d6a000726573732030782530366c583a0000006c
:10d6b0003d3d3d204652414d20436f6d707265687f
:10d6c000656e736976652054657374203d3d3d0039
:10d6d0005b315d2052656164696e672044657669df
:10d6e00063652049442e2e2e0000000020202020bb
:10d6f00049443a20253032582025303258202530f0
:10d7000032582025303258202530325820253032ea
:10d7100058202530325820253032582025303258b4
:10d720000000000020202020504153530000000042
:10d73000202020204641494c000000005b325d2043
:10d7400057726974696e67207465737420706174b0
:10d750007465726e20746f2030782530366c582ec8
:10d760002e2e00005b335d2052656164696e672078
:10d770006261636b20616e642076657269667969a7
:10d780006e672e2e2e000000202020204461746140
:10d790002076657269666965643a2050415353008a
:10d7a0002020202044617461206d69736d61746371
:10d7b000683a204641494c00202020204578706579
:10d7c000637465643a000000202020202530325820
:10d7d000202530325820253032582025303258202c
:10d7e0002530325820253032582025303258202517
:10d7f00030325820253032582025303258202530fc
:10d8000032582025303258202530325820253032e9
:10d810005820253032582025303258002020202032
:10d8200052656365697665643a0000002020202017
:10d8300052656164206661696c65643a20464149bd
:10d840004c0000005b345d2054657374696e672082
:10d85000737472696e67206f7065726174696f6e40
:10d86000732e2e2e000000004652414d2054657349
:10d8700074204f4b21000000202020205374726937
:10d880006e672076657269666965643a2022257341
:10d890002200000020202020537472696e67206de2
:10d8a00069736d617463683a204641494c00000019
:10d8b00020202020537472696e6720777269746526
:10d8c000206661696c65643a204641494c0000005d
:10d8d0003d3d3d205465737420436f6d706c6574dd
:10d8e00065203d3d3d000000001122334455667720
:10d8f0008899aabbccddeeff55736167653a20635a
:10d90000616e5f73656e64203c69643e205b657880
:10d91000745d205b6230206231202e2e2e20623713
:10d920005d000000202063616e5f73656e642030cf
:10d930007831303020307841412030784242202008
:10d940002020202020287374616e64617264290095
:10d95000202063616e5f73656e64203078313233ee
:10d960003435206578742030784141203078424247
:10d970002028657874656e64656429006578740094
:10d9800048696e743a204944203e20307837464634
:10d990002c2061646420276578742720666f7220cc
:10d9a000657874656e646564206672616d650000fb
:10d9b000202063616e5f73656e642030783132338e
:10d9c0003435206578742030784141004558540042
:10d9d000535444002d2d3e205458204f4b205b259e
:10d9e000735d3a2049443d3078256c5820444c43bf
:10d9f0003d2575002d2d3e205458204641494c456b
:10da00004400000055736167653a206373705f706e
:10da1000696e67203c646573745f616464723e2064
:10da20005b74696d656f75745f6d735d00000000f8
:10da30002d2d3e2050696e67696e6720435350203c
:10da40006e6f6465202575202874696d656f757427
:10da500020256c756d73292e2e2e00002d2d3e2055
:10da60005265706c792066726f6d2025753a20744e
:10da7000696d653d2564206d730000002d2d3e20ed
:10da80004e6f207265706c792066726f6d202575ff
:10da9000202874696d656f7574290000557361677e
:10daa000653a206373705f73656e64203c616464e3
:10dab000723e203c706f72743e203c646174613e23
:10dac000000000004578616d706c653a20637370ea
:10dad0005f73656e6420322031302048656c6c6f56
:10dae000000000002d2d3e20436f6e6e656374694b
:10daf0006f6e206661696c65640000002d2d3e200c
:10db000042756666657220616c6c6f632066616940
:10db10006c6564002d2d3e2053656e64206661693e
:10db20006c6564002d2d3e2053656e742025752094
:10db3000627974657320746f2025753a257500002d
:10db40003d3d3d2043535020496e666f203d3d3d95
:10db50000000000020204d792041646472657373d9
:10db60003a2025750000000020204672656520627d
:10db70007566666572733a20257500002020496e2f
:10db800074657266616365733a0000002020526f0d
:10db9000757465207461626c653a00003d3d3d3de1
:10dba0003d3d3d3d3d3d3d3d3d3d3d3d0000000099
:10dbb0005b25755d000000002020252d3133732585
:10dbc0002d3673203d202575000000002020252dd6
:10dbd000313373252d3673203d20256c75000000f0
:10dbe0002020252d313373252d3673203d202564cb
:10dbf000000000002020252d313373252d367320a1
:10dc00003d20256c640000002020252d3133732534
:10dc10002d3673203d20252e346600007472756504
:10dc20000000000066616c73650000002020252d57
:10dc3000313373252d3673203d20257300000000fd
:10dc40002020252d313373252d3673203d202225ac
:10dc5000732200002020252d313373252d367320ab
:10dc60003d20287479706520257520402030782566
:10dc7000303458290000000055736167653a207000
:10dc80006172616d5f73686f77203c7461626c656f
:10dc90005f69643e000000002020303d426f6172e9
:10dca000642020313d5379734366672020323d4d17
:10dcb000616e4374726c2020333d457870202034af
:10dcc0003d54656c656d6574727900004572726fc4
:10dcd000723a207461626c655f6964206d7573745b
:10dce00020626520302d34003d3d3d205461626c42
:10dcf000652025753a202573203d3d3d000000003c
:10dd000020202020526f77733a202575207c204deb
:10dd1000656d3a202575206279746573207c2043f7
:10dd200052433a2030782530345800002d2d2d00f4
:10dd30003d3d3d3d3d3d3d3d3d3d3d3d3d3d3d3d13
:10dd40003d3d3d0055736167653a20706172616dbc
:10dd50005f736574203c7461626c655f69643e202a
:10dd60003c616464723e203c747970653e203c7670
:10dd7000616c75653e0000002020747970653a2062
:10dd80007538207531362075333220693820693175
:10dd900036206933322066333220626f6f6c207315
:10dda0007472000020204578616d706c653a2070b7
:10ddb0006172616d5f73657420342038206931367b
:10ddc0002032353000000000753800007531360013
:10ddd000753332006938000069313600693332002a
:10dde00066333200626f6f6c000000007374720063
:10ddf000556e6b6e6f776e20747970652027257372
:10de0000272e205573653a207538207531362075d8
:10de10003332206938206931362069333220663345
:10de20003220626f6f6c2073747200002d2d3e20c3
:10de30004f4b3a205425755b3078253034585d209f
:10de40003d20257320282573290000002d2d3e201c
:10de50004641494c3a206572723d25642028616430
:10de60006472206f7574206f662072616e67653f03
:10de700029000000434d445f506f776572534f4d4a
:10de80005f4f4e00434d445f506f776572534f4d67
:10de90005f4f464600000000506f77657220534f79
:10dea0004d206973204f4e00506f77657220534f9d
:10deb0004d206973204f464600000000434d445feb
:10dec000506f7765724275636b506572695f4f4e34
:10ded00000000000434d445f506f776572427563e8
:10dee0006b506572695f4f4646000000506f776562
:10def00072204275636b205065726970686572614b
:10df00006c73206973204f4e00000000506f7765de
:10df100072204275636b205065726970686572612a
:10df20006c73206973204f4646000000434d445fe8
:10df3000506f7765725465635f4f4e00434d445f89
:10df4000506f7765725465635f4f4646000000006e
:10df5000506f77657220546563206973204f4e00bf
:10df6000506f77657220546563206973204f464671
:10df700000000000434d445f506f776572484434a1
:10df80005f4f4e00434d445f506f77657248443495
:10df90005f4f464600000000506f7765722048448e
:10dfa00034206973204f4e00506f776572204844cb
:10dfb00034206973204f464600000000434d445f03
:10dfc000506f776572536f6c656e6f69645f4f4e0b
:10dfd00000000000434d445f506f776572536f6cd3
:10dfe000656e6f69645f4f4646000000506f77654d
:10dff0007220536f6c656e6f6964206973204f4e99
:10e0000000000000506f77657220536f6c656e6f73
:10e010006964206973204f4646000000434d445f09
:10e02000506f7765724c505f4f4e0000434d445f18
:10e03000506f7765724c505f4f464600506f776562
:10e0400072204c50206973204f4e0000506f77654e
:10e0500072204c50206973204f464600434d445f68
:10e06000506f7765724865617465725f4f4e00004e
:10e07000434d445f506f7765724865617465725fa8
:10e080004f464600506f776572204865617465722f
:10e09000206973204f4e0000506f776572204865ed
:10e0a00061746572206973204f464600434d445f9a
:10e0b000506f776572416c6c5f4f4e00434d445f0b
:10e0c000506f776572416c6c5f4f464600000000f0
:10e0d0004c45445f4f4e00004c45445f4f46460060
:10e0e000557361676520203a206865617465725fc9
:10e0f000736574203c6368616e6e656c20312d38e9
:10e100003e203c6475747920302d3130303e000063
:10e110004578616d706c653a206865617465725f01
:10e120007365742031203830000000004572726f32
:10e13000723a204368616e6e656c206d7573742051
:10e1400062652061206e756d6265722028312d3800
:10e15000290000004572726f723a2044757479206c
:10e160006d7573742062652061206e756d626572d5
:10e170002028302d31303029000000004572726fa8
:10e18000723a204368616e6e656c206f7574206f03
:10e19000662072616e67652028312d3829000000e5
:10e1a0004572726f723a2044757479206f757420cd
:10e1b0006f662072616e67652028302d3130302502
:10e1c000290000002d2d3e204f4b3a2048656174f8
:10e1d00065725b256c755d2044757479203d202542
:10e1e0006c75252500000000424d50333930206900
:10e1f0006e6974206661696c00000000424d503306
:10e2000039302072656164206661696c000000002d
:10e21000496e7465726e616c20424d503339303aec
:10e220000000000054656d703a20252e32662043b0
:10e23000202050726573737572653a20252e326600
:10e2400020506100424d5033393020737769746338
:10e250006820697320646973626c6500456e616251
:10e260006c6520424d503339302073776974636890
:10e27000207573696e67203c626d703339305f655d
:10e2800078745f656e613e0045787465726e616c8e
:10e2900020424d503339303a000000005357206976
:10e2a0007320656e61626c6564000000446973618f
:10e2b000626c6520737769746368206932632062d9
:10e2c0006d7033393020636f6e6e6563746f7200ea
:10e2d00055736167653a20736f6c5f73696e676c25
:10e2e000655f6f6e203c696e6465783e00000000db
:10e2f000496e646578203120746f2031360000004b
:10e3000053696e676c6520736f6c656e6f6964200e
:10e310006f6e20696e6465783a20257500000000f4
:10e3200055736167653a20736f6c5f73696e676cd4
:10e33000655f6f6666203c696e6465783e0000002c
:10e3400053696e676c6520736f6c656e6f696420ce
:10e350006f666620696e6465783a20257500000056
:10e3600055736167653a20736f6c5f73696e676c94
:10e37000655f676574203c696e6465783e000000e7
:10e38000537461747573206f662073696e676c6572
:10e3900020736f6c656e6f69642025753a204f4e4f
:10e3a00000000000537461747573206f66207369f8
:10e3b0006e676c6520736f6c656e6f696420257580
:10e3c0003a204f464600000055736167653a207455
:10e3d00065635f696e6974203c696e6465783e00b0
:10e3e000496e76616c696420696e6465780000002e
:10e3f000496e646578206f7574206f662072616e57
:10e4000067652028312d256429000000696e697434
:10e41000207375636365737300000000696e69742f
:10e42000206661696c0000005445435b256c755d96
:10e430002025730055736167653a207465635f76c4
:10e440006f6c203c696e6465783e203c6d566f6c45
:10e450003e000000496e76616c696420766f6c74d2
:10e46000616765005445435b256c755d206f75746d
:10e4700070757420766f6c74616765203d20256c23
:10e4800075206d560000000055736167653a207471
:10e4900065635f656e203c696e6465783e000000d0
:10e4a0005445435b256c755d20656e61626c65202b
:10e4b000726571756573742073656e740000000079
:10e4c00055736167653a207465635f7377656e2085
:10e4d0003c696e6465783e005445435b256c755d10
:10e4e00020535720656e61626c6520726571756599
:10e4f00073742073656e740055736167653a207498
:10e5000065635f72656164203c696e6465783e2076
:10e510003c616464723e0000496e76616c696420ff
:10e5200061646472657373005445435b256c755d6b
:10e5300020524547204144443a2030782530326cff
:10e5400058202056414c3a2030782530386c5800fd
:020000040000fa
:020000040040ba
:10e55000dc6845201c00000000000000cc6645205f
:10e560003800000000000000a3df4420010000008c
:10e5700000000000ec6a45200800000000000000d8
:10e58000c47045206000000004000000000414a2d4
:10e590000800011600030100070b0003020003ff3f
:10e5a000010002090003030007090003040006ff3d
:10e5b0002000030500030f00030400030600070406
:10e5c0000003070007070003a46a452010000000ad
:10e5d00000000000e8694520100000000000000075
:10e5e000b46a45200800000000000000f8684520db
:10e5f0001c00000000000000086a45200c0000001c
:10e6000000000000bc6a4520080000000000000077
:10e61000706745203000000000000000d0674520f2
:10e620005800000000000000f46a452008000000c7
:10e6300000000000046245205c00000000000000b3
:10e64000e4514520a4010000000000002868452096
:10e650002800000000000000a067452030000000f6
:10e6600000000000b874452006000000040000000f
:10e670000202846a96000100fc6a45200400000042
:10e6800000000000606245205c0000000000000007
:10e690009f354520010000000000000078684520fb
:10e6a0002400000000000000006b45200c0000006a
:10e6b000000000006c724520040000000100000012
:10e6c000640000004c1f452000080000000000000e
:10e6d000bc6245205c000000000000003c59452061
:10e6e0000001000000000000f3544520010000007c
:10e6f00000000000e4394520000400000000000094
:10e70000186345205c000000000000000c6b4520f1
:10e7100004000000000000003c5a452000010000f9
:10e7200000000000106b45200c00000000000000fd
:10e730002f56452001000000000000001c6b452002
:10e740000c00000000000000c87445200400000018
:10e7500001000000efbeadde0a66452002000000a9
:10e76000000000004c0745200018000000000000d9
:10e770004c2745200008000000000000286b4520c1
:10e780000c00000000000000375845200100000088
:10e7900000000000346b4520040000000000000071
:10e7a0003b5945200100000000000000386b452067
:10e7b0000c00000000000000146945201c0000004f
:10e7c00000000000cc7445201c0000000100000087
:10e7d000fc5e4200005f4200045f4200085f4200ae
:10e7e0000c5f4200105f4200145f4200446b452002
:10e7f0000800000000000000e44d45200002000079
:10e8000000000000a0354520410400000000000089
:10e81000b06f45209200000004000000434d2d45dc
:10e820005850000a4300070100020b372c382c31e6
:10e8300032006ae803000400e07145204a0000004d
:10e84000040000000004736f6d000170657269744c
:10e85000656300016864340001736c6e00016c73c1
:10e860007064687465720101000573656e317365cb
:10e870006e3273656e3373656e3473656e356864be
:10e88000340007010001010002000000f46d452082
:10e89000ec000000040000000001736f6c31736f26
:10e8a0006c32736f6c33736f6c340005736c3100b2
:10e8b00001736c320001736c330001736c3400011e
:10e8c000736c350001736c360001736c3700017393
:10e8d0006c380001736c390001736c3130736c312a
:10e8e00031736c3132736c3133736c3134736c311e
:10e8f00035736c31360011636831316368313263ce
:10e90000683231636832326368333163683332634b
:10e9100068343163683432000b7465633174656345
:10e9200032746563337465633400096874310001bf
:10e93000687432000168743300016874340001683f
:10e94000743500016874360001687437000168741a
:10e950003800124f4b000e00e06e4520cf00000043
:10e9600004000000000e6c643100016c6432000190
:10e970006c643300016c643400016c643500016c1c
:10e98000643600016c643700016c643800016c640b
:10e990003900016c6431306c6431316c6431326c3b
:10e9a0006431336c6431346c6431356c6431366c91
:10e9b0006431376c6431386c6431396c6432306c7a
:10e9c0006432316c6432326c6432336c64323400e1
:10e9d00061000000cc6c452027010000040000000d
:10e9e000000f4f4b00066e7463316e7463326e74a9
:10e9f00063336e7463346e7463356e7463366e7431
:10ea000063376e746338fffffffffffffffffffff9
:10ea1000ffffffffffff73656e3173656e32736535
:10ea20006e3373656e3473656e35ffffffffffff56
:10ea3000ffffffff707273000174656d70ffffffd1
:10ea4000ff6178000261790002617a000267780054
:10ea50000267790002677a000274656d70ffffff3c
:10ea6000ffffffffffffffffffffff696600026878
:10ea70007465726c737064736f6d00016864340048
:10ea800001736c6e00017465633174656332746583
:10ea90006333746563340c00010c00010c00010544
:10eaa0000001050001050001350001ffffffffff28
:10eab000ffffff69660002687465726c73706473af
:10eac0006f6d00016864340001736c6e0001746541
:10ead0006331746563327465633374656334ffff57
:10eae000ffffffffffffffffffffffffffffffff36
:10eaf000ffff49444c45000e4cf744200010000035
:10eb000000000000506845202800000000000000c0
:10eb10004c6b452008000000000000007874452080
:10eb200010000000010000009874452076000000ed
:10eb3000c46a452077000000887445200800000062
:10eb40000400000001000700907445200800000048
:10eb50000400000001000700707345200c00000055
:10eb6000040000000100031f000700007c73452023
:10eb70000c00000004000000030003100007000068
:10eb8000887345200c000000040000000300030708
:10eb900000070000947345200c00000004000000f2
:10eba0000100031000070000a07345200c000000c6
:10ebb000040000000400030500070000ac734520ba
:10ebc0000c00000004000000050003040007000022
:10ebd000b87345200c00000004000000040003048a
:10ebe00000070000c47345200c0000000400000072
:10ebf0000400030300070000d07345200c00000050
:10ec0000040000000400030200070000dc7345203c
:10ec10000c000000040000000400030600070000d0
:10ec2000e87345200c000000040000000500030309
:10ec300000070000f47345200c00000004000000f1
:10ec40000200030c00070000c46a45200800000011
:10ec500000000000007445200c00000004000000cb
:10ec60000300030b00070000987445200800000013
:10ec70000400000001000700a07445200800000007
:10ec80000400000002000700a874452008000000ee
:10ec900004000000020007000c7445200c00000076
:10eca000010000000300000012000000010000004d
:10ecb000187445200c000000040000000100031e31
:10ecc00000070000247445200c0000000100000033
:10ecd0000300000014000000010000003074452013
:10ece0000c000000040000000400030d00070000f9
:10ecf0003c7445200c0000000100000003000000ef
:10ed00001600000001000000487445200c000000bf
:10ed100004000000030003010007000054744520b4
:10ed20000c00000001000000040000000b000000c7
:10ed300001000000607445200c0000000400000089
:10ed4000030003020007000028734520380000007c
:10ed500001000000907445208873452003000000e6
:10ed600000000000000000009074452094734520ce
:10ed70000100000000000000000000009074452029
:10ed8000707345207c734520000000006c744520a2
:10ed90000c00000001000000a074452020000000cd
:10eda000000000007072452080000000010000009b
:10edb000a87445200c7445200000000018744520fc
:10edc0000000000000000000000000000000000043
:10edd000a8744520247445200000000030744520ac
:10ede0000000000000000000000000000000000023
:10edf000a87445203c74452000000000487445205c
:10ee00000000000000000000000000000000000002
:10ee1000a87445205474452000000000607445200b
:10ee200000000000000000000000000000000000e2
:10ee30006073452010000000010000007072452042
:10ee400090724520b0724520d0724520e43d4520a7
:10ee50000008000000000000447045208000000011
:10ee600001000000001a0e40000000000000000039
:10ee70000000000000000000000000000000000092
:10ee80000000000000000000000000000000000082
:10ee90000000000000000000000000000000000072
:10eea0000000000000000000000000000000000062
:10eeb0000000000000000000000000000000000052
:10eec0000000000000000000e43d4520e441452032
:10eed000000400000004000000000000000000002a
:10eee00000000000c86c4520030000000000000086
:10eef000546b4520040000000000000030564520ff
:10ef00000401000000000000586b452004000000d0
:10ef100000000000976a4520010000000100000089
:10ef20009f00000010734520180000000100000041
:10ef3000a82f4400f09f430000a043000000000001
:10ef400014a0430000000000c865452042000000f6
:10ef500000000000e87445200400000001000000eb
:10ef6000aaaaaaaa875e45200100000000000000ae
:10ef70005c6b4520040000000000000020004020e1
:10ef80000020030000000000cc6a452008000000bb
:10ef900000000000606b452014000000000000002d
:10efa0000c6645204000000000000000746b452006
:10efb0000400000000000000a06145206400000083
:10efc0000000000048694520280000000000000003
:10efd000786b4520080000000000000070694520a3
:10efe0002800000000000000806b452004000000a5
:10eff0000000000098694520140000000000000097
:10f00000846b45202c000000000000007463452044
:10f010005c00000000000000e44f452000020000fa
:10f0200000000000d06345205c00000000000000ec
:10f03000e44545200004000000000000ac694520c4
:10f040002800000000000000b06b45201400000004
:10f050000000000088644520a000000000000000bf
:10f06000c46b45200c00000000000000e44945206e
:10f0700000040000000000002c6445205c0000003b
:10f0800000000000d06b45200c00000000000000d4
:10f09000b460452078000000000000002c7245207c
:10f0a0004000000001000000902f4400000000001c
:10f0b00000000000fddc4300000000000000000034
:10f0c0000000000000000000000000000000000040
:10f0d0000000000000000000000000000000000030
:10f0e0000000000000000000dc6b45200400000070
:10f0f00000000000ec7445201c000000010000002e
:10f100000400000010270000e803000001000000d8
:10f11000fa0000000200000001000000e06b452042
:10f120001000000000000000ab5f4520010000005f
:10f1300000000000f06b452004000000000000000b
:10f140002f6045200100000000000000f46b452006
:10f150000400000000000000b0744520070000001b
:10f16000010000000101000000000000f86b4520d4
:10f1700004000000000000009c6845202000000002
:10f1800000000000fc6b45200800000000000000ab
:10f190000875452004000000010000000d26440011
:10f1a000202043200000010000000000d46a452018
:10f1b0000800000000000000046c45200c00000066
:10f1c00000000000106c452004000000000000005a
:10f1d000345c4520f000000000000000b3604520d2
:10f1e00001000000000000001e6a4520020000002f
:10f1f00000000000146c4520040000000000000026
:10f200002a6a452002000000000000003069452005
:10f2100018000000000000004c2f4520530600009d
:10f2200000000000186c45201000000000000000e5
:10f230002c6145207300000000000000146a452086
:10f240000a00000000000000286c452004000000b7
:10f2500000000000285f452083000000000000003f
:10f26000206a45200a000000000000002c6c4520a8
:10f270000400000000000000f45445203b010000a1
:10f28000000000002c6a45200a0000000000000079
:10f29000306c45200400000000000000bc684520e0
:10f2a0001f00000000000000386a45200a0000002e
:10f2b00000000000346c4520040000000000000045
:10f2c000345745200301000000000000446a452037
:10f2d0000a00000000000000386c45200400000017
:10f2e00000000000e45d4520a300000000000000d5
:10f2f000506a45200a000000000000003c6c4520d8
:10f300000400000000000000885345206b0100004d
:10f31000000000005c6a45200a00000000000000b8
:10f32000406c45200400000000000000ac5f452058
:10f330008300000000000000686a45200a00000009
:10f3400000000000446c45200400000000000000a4
:10f35000306045208300000000000000746a4520f2
:10f360000a00000000000000486c45200400000076
:10f37000000000003c674520330000000000000052
:10f38000806a45200a000000000000004c6c452007
:10f390000400000000000000385845200301000070
:10f3a000000000008c6a45200a00000000000000f8
:10f3b000506c452004000000000000002020442084
:10f3c00083bf000000000000986a45200a0000008a
:10f3d00000000000546c4520080000000000000000
:10f3e0009f6145200100000000000000cb66452021
:10f3f00001000000000000005c6c452004000000db
:10f40000000000003c5b4520f80000000000000008
:10f41000a26a452002000000040000000001c000b4
:10f42000606c452014000000000000006f6745205c
:10f430000100000000000000db6845200100000022
:10f4400000000000726a452001000000000000007a
:10f450000c75452004000000010000006e1900003a
:10f46000f86945201000000000000000746c452081
:10f470000400000000000000366a45200200000081
:10f4800000000000426a4520020000000000000069
:10f49000786c452004000000000000004e6a452002
:10f4a00002000000000000007c6c45200800000005
:10f4b000000000005a6a4520020000000000000021
:10f4c000666a45200200000000000000736a4520c3
:10f4d00001000000000000007e6a452001000000dd
:10f4e00000000000846c45201400000000000000b3
:10f4f000986c4520040000000000000004674520cf
:10f500003800000000000000a4df4420a81700001d
:10f51000000000008c6645203f0000000000000055
:10f520007f6a452001000000000000009c6c45201f
:10f5300004000000000000008a6a4520010000006d
:10f5400000000000cb6c452001000000010000001d
:10f55000ff000000a06c4520040000000000000037
:10f56000245d4520c000000000000000847145209b
:10f570005c0000000100000010000c00245d45202c
:10f58000cc2e44000000000000000000000000003d
:10f59000000000000000000000000000000000006b
:10f5a000000000000000000000000000000000005b
:10f5b000000000000000000000000000000000004b
:10f5c000000000000000000000000000000000003b
:10f5d00000000000a46c45200400000000000000b2
:10f5e000286545205000000000000000a86c452060
:10f5f0000400000000000000d46945201400000051
:10f60000000000004c6645204000000000000000a3
:10f61000885e4520a0000000000000008b6a4520a5
:10f620000100000000000000c46c45200200000042
:10f6300000000000c074452006000000010000002a
:10f640000101000000000000dc6a45200800000005
:10f6500000000000ac6c4520080000000000000025
:10f66000966a45200100000000000000b46c4520af
:10f6700004000000000000007865452050000000f4
:10f6800000000000b86c45200c00000000000000e5
:10f69000f072452020000000010000000100000081
:10f6a0000300000000000000000000000000000057
:10f6b0000000000000000000e46a4520e46a4520e4
:10f6c00008000000000000002471452060000000d8
:10f6d0000100000001000000030000000000000025
:10f6e000000000000000000000000000000000001a
:10f6f00031ae4300000000000000000000000000e8
:10f70000832f4400f5e943000000000000000000e2
:10f7100000000000000000000000000000000000e9
:10f7200000000000000000000000000000000000d9
:10f730000000000000000000000000006666666631
:10f740006666666666666666666666666666666659
:020000040000fa
:020000040040ba
:10f7500090b595b000af78600023bb649d4b1b78db
:10f7600003f01003002b00f05c827b68b3f860307c
:10f770001a467b689b6d13443b637b685a6d964bbe
:10f780001b68d31a002b1bdb7b685a6d924b1b68de
:10f790009a4206d17b689a6d904b1b68d31a002b56
:10f7a0000edb7b689a6d8d4b1b689a4225d18c4b82
:10f7b0001b68db899ab27b68b3f860309a421cd927
:10f7c000874b1b68db899ab27b68a3f860207b6853
:10f7d000b3f862207b68b3f860309a4205d27b6848
:10f7e000b3f860207b68a3f862207b4b1a687b68c3
:10f7f0005a657a4b1a687b689a65784b1a687b68f9
:10f800005b6cd31a002b58dc764b1b88002b4bd13a
:10f810007b689b6d7a68b2f8602013443a6b9a4219
:10f8200042d17b68b3f93030002b3ddb7b685a6cea
:10f830006a4b1b689a4237d10123bb647b6893f8fb
:10f840004330ff2b07d07b6893f843300133dab2a3
:10f850007b6883f843207b6893f84330032b1bd9e4
:10f860007b68b3f848207b685b8e13449ab27b6850
:10f87000b3f848309a420ad37b68b3f848207b68d3
:10f880005b8e13449ab27b68a3f8482004e07b683f
:10f890004ff6ff72a3f848207b6893f84330022ba1
:10f8a00002d9786824f0fef8bb6c002b40f0598137
:10f8b0007b68002283f8432053e1484b1a687b6839
:10f8c0005b6cd31a013b002bc0f24681434b1a6894
:10f8d0007b681b6dd31a002b00f33e817b685b8b2a
:10f8e00003f00403002b10d07b685b8b23f0040330
:10f8f0009ab27b685a837b68b3f84a207b68a3f886
:10f9000048207b680022a3f86a207b68002283f8e5
:10f9100042207b68b3f93c30db101bb29ab27b68a3
:10f92000b3f93e309bb213449bb21ab27b68a3f882
:10f9300040202a4b1b689ab27b685b6c9bb2d31a3f
:10f94000fb857b68002283f84320244b1a687b6880
:10f950005a647b681b7d032b40f28f807b68b3f871
:10f9600048207b68b3f84a309a423dd27b685b8b73
:10f9700003f40063002b01d0012300e0022387f889
:10f980002d3097f82d309ab27b685b8e12fb03f313
:10f990009bb2fa8d934228bf13467b857b68b3f8f0
:10f9a00048207b8d13449ab27b68b3f848309a4262
:10f9b00009d37b68b3f848207b8d13449ab27b68e7
:10f9c000a3f8482059e07b684ff6ff72a3f848205f
:10f9d00053e000bf736a45207c6c4520806c452055
:10f9e000746c4520666a45207b68b3f86a20fb8dfd
:10f9f00013449ab27b68b3f86a309a4209d37b68a1
:10fa0000b3f86a20fb8d13449ab27b68a3f86a208e
:10fa100004e07b684ff6ff72a3f86a207b68b3f8b6
:10fa20006a207b68b3f848309a4226d37b68b3f8e3
:10fa30006a207b68b3f84830d31a9ab27b68a3f87f
:10fa40006a207b68b3f848207b685b8e13449ab2c7
:10fa50007b68b3f848309a420ad37b68b3f84820f1
:10fa60007b685b8e13449ab27b68a3f8482004e05d
:10fa70007b684ff6ff72a3f848207b68196f7b689c
:10fa8000db6e984a786823f0c9fc02467b681a67e7
:10fa90007b68d96e7b681b6f934a786823f0befc45
:10faa00002467b68da667b681b6f002b04d17b689b
:10fab0004ff6ff721a8602e07b6800221a867b6886
:10fac00000221a777b68db6e002b03d17b68002253
:10fad000a3f868207b68b3f86420844b1b88134428
:10fae0009ab27b68a3f864207b685b8b03f40063a5
:10faf000002b35d07b681b6f002b18d17b68db6e29
:10fb0000002b0cd07b68dc6c7b68db6edb685b6891
:10fb1000184630f022f80346e31a002b20dc7b68fd
:10fb20005b8b23f400639ab27b685a8318e07b688e
:10fb3000dc6c7b681b6fdb685b68184630f00df887
:10fb40000346e31a002b0bdc7b685b8b23f400631a
:10fb50009ab27b685a8303e0786824f098f800e052
:10fb600000bf7b685b6b002b5bd07b689a6b604b44
:10fb70001b68d31a002b54da5e4b1b689ab27b6861
:10fb80005b6b9bb2d31a9bb2a7f84e30b7f84e20ee
:10fb90007b68b3f93c30db101bb29bb2d31a9bb22b
:10fba000a7f84e307b68b3f93c309ab2b7f84e30c4
:10fbb00013449bb21ab27b689a87b7f94e30002b78
:10fbc00005dab7f84e305b429bb2a7f84e30b7f873
:10fbd0004e207b68b3f93e309b101bb29bb2d31a08
:10fbe0009bb2a7f84e307b68b3f93e309ab2b7f8b3
:10fbf0004e3013449bb21ab27b68da877b68b3f944
:10fc00003c30db101bb29ab27b68b3f93e309bb23a
:10fc100013449bb21ab27b68a3f840207b68002291
:10fc20005a63354b1b88002b00f041847b681b7d99
:10fc3000062b00f23c847b685a6a304b1b68d31a4f
:10fc4000013b002b5edb7b685a6a2b4b1b881946f5
:10fc50002a4b1b680b44d31a0133002b52dc284b70
:10fc60005b687b647b685a6a244b1b68d31a7b628f
:10fc70007b6aa7f84230224b1a89b7f84230d31a70
:10fc80009ab21f4b1a811e4b5b681a89b7f8423033
:10fc9000d31a7b840fe07b6c5b89b7f84220d31ac0
:10fca000a7f842307b6c7a8c1a817b6c00225a81d7
:10fcb0007b6c1b687b647b6c5b89b7f842209a4243
:10fcc000e9d8b7f842301946786c28f055fc7b68c3
:10fcd0005b6a0a4a13600a4bdb68084a12685a607a
:10fce0001ee000bf202d4400282d44005a6a452004
:10fcf000806c4520606c4520666a45207c6c452000
:10fd0000f8694520824b1a687b685b6ad31a002b1e
:10fd100006da7b685b8b43f002039ab27b685a83f6
:10fd20007b4b1a687b685b6ad31a002bc0f2ba83dc
:10fd3000774b1a687b685b6a7968098d0b44d31a24
:10fd40000133002b00f3ae837b685a6a704b1b684b
:10fd50009a4240f040826f4b1c896e4bdb689b8956
:10fd60009bb2184630f0ecfd0346dbb203f0030310
:10fd7000002b01d0012300e0002323449ab2664bfc
:10fd80001a807b681a8d644b1b889a4260d2614b43
:10fd9000db689b899bb2184630f0d2fd0346dbb28c
:10fda00003f00103002b1ed05a4bdb689b899bb2ea
:10fdb0001bb223f47c531cb2564bdb689b899bb26d
:10fdc000184630f0bdfd0346dbb203f03e039bb2a4
:10fdd000184630f0b5fd03461bb223431ab24d4b13
:10fde000db6892b29a817b681a8d4a4b1a81494b23
:10fdf000db689b899bb2184630f0a2fd0346dbb25c
:10fe000003f00203002b05d0424b1b89013b9ab241
:10fe1000404b1a813f4b5b683e4a12891146184697
:10fe200021f0ccf83b4b1c893a4bdb689b899bb299
:10fe3000184630f085fd0346dbb203f00303002bc8
:10fe400001d0012300e0002323449ab2324b1a80f0
:10fe50007b685b6f002b00f0ce802e4bdb689b89ac
:10fe60009bb2184630f06cfd0346dbb203f0010391
:10fe7000002b10d00ae07b685b6ffb607b685b6fd8
:10fe80001a687b685a67f86830f02cfa7b685b6ff9
:10fe9000002bf0d1afe07b685b6ffb634be0fb6b4b
:10fea000db689b899bb2184630f04afd0346dbb203
:10feb00003f00103002b36d0164bdb689b899bb205
:10fec000184630f03dfd0346dbb203f00203002b81
:10fed00029d1104bdb689b899cb2012030f030fdaa
:10fee00003461a460b4bdb68224392b29a81094bb8
:10fef0001c89084bdb689b899bb2184630f020fdbb
:10ff00000346dbb203f00303002b07d0012306e016
:10ff10007c6c4520f8694520666a4520002323440f
:10ff20009ab27e4b1a80fb6b3b61fb6b1b68fb63d9
:10ff3000386930f0d7f9fb6b002b0ed0774b1b885c
:10ff40001a46774b1b681a44fb6bdb685b68f96bde
:10ff500009890b44d31a002ba1dafb6b002b47d085
:10ff60006e4b1b881a466e4b1b681a44fb6bdb6892
:10ff70005b68d31a002b3bddfb6bdb685b689ab2d6
:10ff8000674b1b689bb2d31a9ab2664b1a81654bba
:10ff9000db689b899bb2184630f0d2fc0346dbb28b
:10ffa00003f00203002b05d05e4b1b89013b9ab284
:10ffb0005c4b1a815b4b5b685a4a128911461846a2
:10ffc00020f0fcff574b1c89564bdb689b899bb28a
:10ffd000184630f0b5fc0346dbb203f00303002bf8
:10ffe00001d0012300e0002323449ab24b4b1a8036
:10fff0007b68fa6b5a67494b1b881a46484b1b684b
:020000040041b9
:100000001a447b685a627b681a8d444b1b88d31a4a
:100010009ab27b681a85786827f030fb414b5b68a1
:100020001b89002b06d03f4b5b683f4a13603d4b5a
:1000300000225a603b4bdb689b899bb2184630f02c
:100040007ffc0346dbb203f00103002b00f0998034
:10005000364b1b7843f02003dab2344b1a7090e031
:100060007b685b6fbb607b685b6fdb685b682c4a9f
:100070001360bb681b891c46bb68db689b899bb20d
:10008000184630f05dfc0346dbb203f00303002b9f
:1000900001d0012300e000231a197b685b6a1a442f
:1000a0007b685a62bb68db689b899bb2184630f05c
:1000b00047fc0346dbb203f00303002bbb681b893c
:1000c0001c46bb68db689b899bb2184630f038fc45
:1000d0000346dbb203f00303002b01d0012300e051
:1000e000002319197b681a8d8bb2d31a9ab27b68d8
:1000f0001a85786827f0c2fabb685b681b89002bf9
:100100001dd0094b1b68002b12d0074b1a68bb6827
:100110005b68194610462af040ff0de0666a4520ec
:100120007c6c4520f8694520846c45207e6a45201a
:10013000bb685b68704a1360bb6800225a60bb688a
:10014000db689b899bb2184630f0fafb0346dbb2b2
:1001500003f00103002b0dd0684b1b7843f0200304
:10016000dab2664b1a707b681b7d042b02d17b6868
:1001700007221a75bb681a687b685a67b86830f03e
:10018000b1f87b685b6f002b08d07b685b6fdb6826
:100190005a687b685b6a9a423ff462af7b685b8b0c
:1001a00003f00103002b0ed07b685b8b23f001036f
:1001b0009ab27b685a837b685b8b43f002039ab2e6
:1001c0007b685a8372e17b685b8b43f001039ab2d0
:1001d0007b685a836ae17b685b6f002b06d14848d5
:1001e0002ff0a6f902467b685a6757e100237b632c
:1001f0007b685b6fbb6341e1bb6bdb685a68414b5b
:100200001b689a421dd13e4b1a89bb6b1b899a42cf
:1002100040f239813a482ff08bf978617b69002be5
:1002200000f033817b6b002b03d07b6b7a691a6003
:1002300002e07b687a695a67b96b78691df06efcd9
:1002400023e17b6b002b17d12e4b1a68bb6bdb684d
:100250005b68d31a002b57da29482ff069f9b86187
:10026000bb69002b00f013817b68ba695a67b96bd0
:10027000b8691df053fc0ae1224b1a687b6bdb68fe
:100280005b68d31a013b002b3edb1e4b1a68bb6b2d
:10029000db685b68d31a0133002b35dc18482ff07c
:1002a00047f9f861fb69002b00f0f3807b6bdb689a
:1002b0005b687a6b12891a44124b1b68d31a002ba5
:1002c00012dd104b1b689ab27b6bdb685b689bb2dc
:1002d000d31a9ab27b6b1a817b6b5a687b6b1b8932
:1002e0001946104620f06afe7b6bfa691a60b96bfa
:1002f000f8691df013fccce0846c45207e6a452033
:10030000f86945207c6c4520bb6b7b63bb6b1b682d
:10031000002b40f0b080754b1a68bb6bdb685b68e4
:10032000d31a002b40f3a780bb6bdb689b899bb281
:10033000184630f005fb0346dbb203f00103002b47
:1003400040f0a9806a482ff0f3f80246bb6b1a60b0
:10035000bb6b1b68002b00f0a080bb6bdb685b688d
:10036000ba6b12891a44614b1b68d31a002b12dd39
:100370005e4b1b689ab2bb6bdb685b689bb2d31a9f
:100380009ab2bb6b1a81bb6b5a68bb6b1b8919464f
:10039000104620f013fe574b1b881a46534b1b6820
:1003a0001a447b685b6a7968098d0b44d31a002b69
:1003b00073ddbb6b1b68db689b899bb2184630f012
:1003c000bffa0346dbb203f00103002b21d0bb6b65
:1003d0001b68db689b899bb21bb223f47c531cb265
:1003e000bb6b1b68db689b899bb2184630f0a8fa90
:1003f0000346dbb203f03e039bb2184630f0a0fa8e
:1004000003461bb223431ab2bb6b1b68db6892b274
:100410009a817b685b6a9ab27b681b8d134499b2a0
:10042000324b1b689ab2bb6b1b688a1a92b21a8154
:10043000bb6b1b685a68bb6b1b681b89194610464f
:1004400020f0bcfdbb6b1b681c89bb6b1b68db68a9
:100450009b899bb2184630f073fa0346dbb203f077
:100460000303002b01d0012300e0002323449ab2b0
:10047000204b1a8011e0bb6b1b68bb63bb6b002b6e
:100480007ff4baae0ae000bf08e000bf06e000bf9c
:1004900004e000bf02e000bf00e000bf786823f086
:1004a000f6fb03e0786823f0f2fb1ae019e00f4b4b
:1004b0001a687b685b6ad31a002b0adb0b4b1a683d
:1004c0007b685b6a7968098d0b44d31a0133002b72
:1004d00007dd7b685b8b43f002039ab27b685a832b
:1004e000ffe700bf5437bd4690bd00bf7c6c452080
:0804f000f8694520666a452009
:020000040000fa
:020000040041b9
:1004f8005244502025703a204e6f20737061636516
:1005080020666f72205244502068656164657220cd
:1005180028636d70290000005244502025703a204d
:1005280053656e6420434d5020532025753a20733f
:10053800796e2025752c2061636b2025752c20652c
:1005480061636b2025752c207273742025752c200f
:100558007365715f6e72202535752c2061636b5f42
:100568006e72202535752c207061636b65745f6c25
:10057800656e2025752028257529000052445020d5
:1005880025703a20494e544552464143452045522c
:10059800524f523a206e6f7420706f737369626c99
:1005a8006520746f2073656e64000000524450200b
:1005b80025703a2043616e6e6f74206465717565ad
:1005c80075652066726f6d2072785f7175657565e7
:1005d80020696e2071756575652064656c6976653e
:1005e800720000005244502025703a20416464652e
:1005f80064204541434b206e7220257500000000a1
:100608005244502025703a20436f6e6e2052582075
:100618006275666665722066756c6c00524450207f
:1006280025703a2052582051756575652064656caf
:1006380069766572206d61746368696e6720456cc0
:10064800656d656e742c207365712025750000003a
:100658005244502025703a2044656c6976657220b2
:1006680073657120257500005244502025703a208a
:1006780043616e6e6f74206465717565756520667b
:10068800726f6d2072785f717565756520696e206f
:10069800717565756520657869737473000000006d
:1006a8005244502025703a2052582051756575657e
:1006b80020657869737473206d61746368696e6707
:1006c80020456c656d656e742c20736571202575e9
:1006d800000000005244502025703a2057652068d9
:1006e8006176652061206d61746368005244502012
:1006f80025703a2043616e6e6f742064657175656c
:1007080075652066726f6d2074785f7175657565a3
:1007180020696e20666c757368204541434b000064
:100728005244502025703a204541434b20636f6d59
:100738007061726520656c656d656e742c207469d6
:100748006d6520256c752c2073657120257500005a
:100758005244502025703a20545820456c656d65e8
:100768006e742025752066726565640052445020b9
:1007780025703a204e756c6c20706f696e746572c6
:100788002070617373656420746f207264702066d2
:100798006c75736820616c6c000000005244502036
:1007a80025703a20466c75736820545820456c654e
:1007b8006d656e742c2074696d6520256c752c2010
:1007c80073657120257500005244502025703a2029
:1007d800466c75736820525820456c656d656e745b
:1007e8002c2074696d6520256c752c20736571202b
:1007f800257500005244502025703a20466f756eca
:10080800642061206c6f737420636f6e6e6563740f
:10081800696f6e20286e6f773a20256c752c2074ce
:10082800733a20256c752c20746f3a20256c752935
:100838002c20636c6f73696e67000000524450206f
:1008480025703a2043616e6e6f742064657175651a
:1008580075652066726f6d2074785f717565756552
:1008680020696e20636865636b2074696d656f75b8
:10087800740000005244502025703a2054582045f6
:100888006c656d656e7420467265652c2074696da3
:100898006520256c752c207365712025752c2075b5
:1008a8006e612025750000005244502025703a20c2
:1008b800545820456c656d656e742074696d656467
:1008c800206f75742c2072657472616e736d697413
:1008d80074696e6720736571202575005244502035
:1008e80025703a2052657472616e736d697373690d
:1008f8006f6e206661696c65640000005244502088
:1009080025703a2057616b65205478207461736ba9
:100918002028636865636b2074696d656f757473ef
:10092800290000005244502025703a205265636522
:100938006976656420696e20532025753a2073799d
:100948006e2025752c2061636b2025752c20656130
:10095800636b2025752c207273742025752c2073e9
:1009680065715f6e72202535752c2061636b5f6e33
:1009780072202535752c207061636b65745f6c651a
:100988006e20257520282575290000005244502026
:1009980025703a2052535420726563656976656400
:1009a80020696e20434c4f534544202d2069676ec3
:1009b8006f726564000000005244502025703a2090
:1009c80052535420726563656976656420696e20a8
:1009d800434c4f53455f574149542c2061636b3a50
:1009e800202564202d20636c6f73696e67000000fa
:1009f8005244502025703a205265636569766564d3
:100a08002052535420696e2073657175656e636555
:100a18002c206e6f206d6f7265206461746120698f
:100a28006e636f6d696e672c207265706c792077c4
:100a380069746820525354005244502025703a205b
:100a4800525354206f7574206f66207365717565f5
:100a58006e63652c206b65657020636f6e6e6563d1
:100a680074696f6e206f70656e00000052445020ec
:100a780025703a204e6f742053594e207265636575
:100a88006976656420696e20434c4f534544207352
:100a9800746174652e2044697363617264696e675a
:100aa800207061636b6574005244502025703a20b1
:100ab80053594e2d526563656976656400000000e0
:100ac8005244502025703a2077696e646f772073fe
:100ad800697a6520256c752c20636f6e6e207469a9
:100ae8006d656f757420256c752c207061636b655e
:100af800742074696d656f757420256c752c20647d
:100b0800656c617965642061636b733a20256c7547
:100b18002c2061636b2074696d656f757420256c7a
:100b2800752c2061636b206561636820256c7520d6
:100b38007061636b657400005244502025703a2040
:100b48004e503a20436f6e6e656374696f6e204f26
:100b580050454e005244502025703a2057616b652d
:100b6800205478207461736b202861636b2900001e
:100b78005244502025703a2048616c662d6f70658c
:100b88006e20636f6e6e656374696f6e20666f7535
:100b98006e642c2073656e642052535420616e6419
:100ba8002077616b65205478207461736b000000b6
:100bb8005244502025703a20496e76616c69642051
:100bc8007265706c7920746f2053594e207265716c
:100bd80075657374000000005244502025703a2057
:100be800496e76616c69642053594e206f72206e8d
:100bf8006f2041434b2c20726573657474696e676e
:100c0800210000005244502025703a2049676e6f39
:100c180072696e67206475706c69636174652053ce
:100c2800594e207061636b65742100005244502056
:100c380025703a20496e76616c6964207365717518
:100c4800656e6365206e756d62657221202575205d
:100c58006e6f74206265747765656e2025752061f6
:100c68006e6420256c7500005244502025703a208f
:100c7800496e76616c69642041434b206e756d62e4
:100c8800657221202575206e6f7420626574776502
:100c9800656e20256c7520616e6420257500000046
:100ca8005244502025703a2053594e2d52435644f1
:100cb8003a2057726f6e672041434b206e756d6204
:100cc800657200005244502025703a204e433a2065
:100cd800436f6e6e656374696f6e204f50454e00aa
:100ce8005244502025703a204552524f5220736f7b
:100cf800636b65742063616e6e6f742061636365f6
:100d08007074206d6f726520636f6e6e65637469b1
:100d18006f6e73005244502025703a204475706cf1
:100d280069636174652073657175656e6365206eae
:100d3800756d6265720000005244502025703a209b
:100d4800496e76616c69642053594e206f72206e2b
:100d58006f2041434b20696e20434c4f53452d571c
:100d6800414954005244502025703a204552524f70
:100d7800522064656661756c7420737461746521b2
:100d8800000000005244502025703a2041637469e5
:100d9800766520636f6e6e6563742c20636f6e6e6c
:100da800207374617465202575000000524450203a
:100db80025703a20436f6e6e656374696f6e2061ab
:100dc8006c7265616479206f70656e0052445020c2
:100dd80025703a2041433a2053656e64696e672056
:100de80053594e005244502025703a2041433a202e
:100df80057616974696e6720666f722053594e2f68
:100e080041434b207265706c792e2e2e0000000035
:100e18005244502025703a2041433a20436f6e6e69
:100e2800656374696f6e204f50454e0052445020e0
:100e380025703a2048616c662d6f70656e20636f6f
:100e48006e6e656374696f6e20646574656374653e
:100e5800642c205253542073656e742c206e6f7767
:100e6800207265747279696e6700000052445020e0
:100e780025703a20436f6e6e656374696f6e2073d8
:100e880074617965642068616c662d6f70656e2c7d
:100e9800206576656e206166746572205253542011
:100ea800616e64207265747279210000524450208a
:100eb80025703a2041433a20436f6e6e656374692a
:100ec8006f6e204661696c656400000052445020d2
:100ed80025703a204552524f522063616e6e6f74ee
:100ee8002073656e642c20636f6e6e656374696f22
:100ef8006e206e6f74206f70656e2028256429003f
:100f08005244502025703a2057616974696e6720f1
:100f1800666f722077696e646f772075706461748c
:100f280065206265666f72652073656e64696e67b9
:100f380020736571202575005244502025703a2091
:100f480054696d656f757420647572696e67207376
:100f5800656e64005244502025703a204552524f25
:100f6800522063616e6e6f742073656e642c20630b
:100f78006f6e6e656374696f6e206e6f74206f702c
:100f8800656e2028256429202d3e207265736574be
:100f9800000000005244502025703a204e6f207304
:100fa8007061636520666f722052445020686561e5
:100fb800646572202873656e6429000052445020cd
:100fc80025703a204661696c656420746f20616cf5
:100fd8006c6f63617465207061636b657420627502
:100fe80066666572000000005244502025703a2061
:100ff8004e6f206d6f726520737061636520696e36
:10100800205244502072657472616e736d69742049
:1010180071756575650000005244502025703a20ae
:1010280053656e64696e672020696e2053202575ac
:101038003a2073796e2025752c2061636b20257505
:101048002c206561636b2025752c20727374202514
:10105800752c207365715f6e72202535752c2061a3
:10106800636b5f6e72202535752c207061636b652c
:10107800745f6c656e202575202825752900000091
:101088005244502025703a204372656174696e6736
:101098002052445020717565756573005244502084
:1010a80025703a204661696c656420746f20696e0a
:1010b800697469616c697a652073656d6170686fc0
:1010c800726500005244502025703a204661696cd0
:1010d800656420746f2063726561746520545820bc
:1010e800717565756520666f7220636f6e6e00009e
:1010f8005244502025703a204661696c656420741a
:101108006f2063726561746520525820717565752a
:101118006520666f7220636f6e6e00002c20736509
:101128006e742052535400000000000052445020b6
:1011380025703a206373705f7264705f636c6f73bd
:10114800652830782578292573202d3e20434c4f7b
:1011580053455f5741495400207573657273706138
:10116800636500002070726f746f636f6c0000001d
:101178002074696d656f757400000000524450203a
:1011880025703a206373705f7264705f636c6f736d
:10119800652830782578292c2077616974696e670d
:1011a80020666f723a2573257325730052445020c8
:1011b80025703a206373705f7264705f636c6f733d
:1011c80065283078257829202d3e20434c4f5345fb
:1011d80044000000095244503a20533a256420281c
:1011e800636c6f7365642062792030782578292cc8
:1011f800207263762025752c20736e642025752c4b
:0b1208002077696e20256c750d0a0030
:020000040000fa
:020000040041b9
:10121400f0b591b008aff860b9600023fb77b86807
:1012240030f07ef8b861bb69b3f803309bb218465e
:1012340030f09cfe03461a46bb69a3f80320bb6941
:10124400b3f801309bb2184630f090fe03461a46bc
:10125400bb69a3f801200223fb75724b5b79002b59
:101264003ad0fa68fb681b7f9c46bb691b78c3f3c2
:10127400c003dbb21946bb691b78c3f38003dbb23e
:101284001846bb691b78c3f34003dbb21c46bb6939
:101294001b78c3f30003dbb21d46bb69b3f801300e
:1012a4009bb21e46bb69b3f803309bb27b60bb683c
:1012b4005b893b60bb685b89053b07933b6806938e
:1012c4007b6805930496039502940190009163460c
:1012d400554905201df02cffbb691b7803f0010361
:1012e400dbb2002b6dd0bb691b7803f00403dbb2c7
:1012f400002b07d0bb69b3f803309ab2fb68013204
:1013040092b21a84fb681b7f002b11d1454b5b7989
:10131400002b05d0fb681a46444905201df008ff40
:10132400fb681b69002b14bf01230023fb77bae37e
:10133400fb681b7f042b0fd13a4b5b79002b00f029
:101344007c83fa68bb691b78c3f38003dbb238493a
:1013540005201df0edfe70e3bb69b3f801309bb2cc
:101364001a46fb689b8c01339a421ed12d4b5b7944
:10137400002b05d0fb681a462e4905201df0d8fe27
:10138400fb6804221a77fc6831f008fd03466361a8
:10139400f868fb68db8b1a46fb689b8c009313464a
:1013a4000a2200210cf05efa52e31e4b5b79002bfb
:1013b40000f06883fb681a461f4905201df0b8fe3b
:1013c40060e3fb681b7f042b00f22c8301a252f81c
:1013d40023f000bfed134100551541006316410091
:1013e400631641003d194100bb691b7803f00803f3
:1013f400dbb2002b24d10b4b5b79002b05d0fb68af
:101404001a460e4905201df093fef868fb68db8b35
:101414001a46fb689b8c00931346082200210cf0ab
:1014240021fa15e3b07445202c09410094094100c8
:10143400c0094100f8094100400a4100740a410012
:101444009e4b5b79002b05d0fb681a469c4905200e
:101454001df06efe31f0f0f80246fb6892b25a8439
:10146400fb685a8cfb68013292b2da83fa68fb6833
:10147400528c1a84fb68ba69b2f8012092b29a8439
:10148400fb68ba69b2f8012092b2da84fb68ba69df
:10149400b2f8012092b21a85bb681b69fc68184631
:1014a40031f016f80346e362bb685b69fc681846d2
:1014b40031f00ef803462363bb689b69fc68184649
:1014c40031f006f803466363bb68db69fc681846c1
:1014d40030f0feff0346a363bb681b6afc68184632
:1014e40030f0f6ff0346e363bb685b6afc681846aa
:1014f40030f0eeff03462364704b5b79002b17d06a
:10150400fd68fb68de6afb681b6bfa68526bf9685e
:10151400896bf868c06bfc68246c04940390029196
:101524000192009333462a46664905201df000fec9
:10153400fb6802221a77f868fb685b8c1a46fb6822
:10154400db8c00931346032200210cf08bf9aae2f2
:10155400bb691b7803f00803dbb2002b50d0bb69d6
:101564001b7803f00403dbb2002b49d0fb68ba6993
:10157400b2f8012092b29a84fb68ba69b2f80120e9
:1015840092b2da84bb69b3f801309ab2fb68013acb
:1015940092b21a85bb69b3f803309ab2fb68013280
:1015a40092b21a84fc6831f0f9fb03466364fb6869
:1015b40003221a77414b5b79002b05d0fb681a464e
:1015c400414905201df0b4fdf868fb68db8b1a4621
:1015d400fb689b8c00931346022200210cf042f915
:1015e400364b5b79002b05d0fb681a46374905203a
:1015f4001df09efdfb68483318462cf05bfb52e25d
:10160400bb691b7803f00403dbb2002b1bd02b4b0c
:101614001b78002b05d0fb681a462d4900201df0cd
:1016240087fdf868fb68db8b1a46fb689b8c00938c
:101634001346082200210cf015f9fb6848331846bc
:101644002cf038fb2fe21d4b1b78002b00f0f781a8
:10165400fb681a461f4900201df06afdefe1bb69d3
:101664001b7803f00803dbb2002b06d1bb691b789f
:1016740003f00403dbb2002b32d1bb69b3f80130b1
:101684009ab2fb68db8c9a420bd00c4b1b78002b74
:1016940000f0d781fb681a460f4900201df048fd71
:1016a400cfe1064b5b79002b00f0ee81fb681a4614
:1016b4000a4905201df03cfde6e100bfb074452059
:1016c400b00a4100c80a4100400b41005c0b4100d4
:1016d400780b4100b80b4100e00b41000c0c4100b9
:1016e400bb69b3f8013098b2fb689b8c013399b2a3
:1016f400fb689a8cfb68db6a9bb25b009bb2134469
:101704009bb21a462df0a2fe0346002b35d1974b0f
:101714005b79002b17d0f968bb69b3f801309bb231
:101724001c46fb689b8c0133fa68928c1046fa685d
:10173400d26a520002440192009323460a468c491d
:1017440005201df0f5fcfb681b7f022b0bd1f8680c
:10175400fb685b8c1a46fb68db8c00931346032200
:1017640000210cf07ff8fb681b7f032b40f08e8177
:10177400fb6818461af008fb88e1bb69b3f803302c
:1017840098b2fb681a8cfb68db6a9bb25b009bb265
:10179400d31a9bb2013b99b2fb68db8b013b9bb232
:1017a4001a462df053fe0346002b1ed16f4b1b78b7
:1017b400002b00f06d81f968bb69b3f803309bb26c
:1017c4001846fb681b8c1a46fb68db6a5b00d31a5d
:1017d400013bfa68d28b013a0192009303460a4610
:1017e400644900201df0a4fc52e1fb681b7f022b1e
:1017f4003ed1bb69b3f803309ab2fb685b8c9a4262
:101804000bd05a4b1b78002b00f01d81fb681a4645
:10181400594900201df08cfc15e1544b5b79002bd9
:1018240005d0fb681a46554905201df081fcfb686c
:1018340003221a77fb681b69002b19d0fb681b690c
:1018440007f10c01002218462ff034fb0346002b4d
:101854000bd1464b1b78002b00f0f780fb681a462f
:10186400474900201df064fcefe0fb6800221a6188
:10187400bb69b3f803309ab2fb68013292b21a849e
:10188400bb691b7803f00203dbb2002b0ad0bb68f0
:101894005b89052b40f2fe80fb68b968184612f09c
:1018a40059fef7e0bb685b89052b40f2f580bb6904
:1018b400b3f801309ab2fb689b8c01339bb29a4215
:1018c4001fd0f868bb69b3f801309bb21a46b968f7
:1018d4002cf02eff0346012b0ed0244b5b79002bfa
:1018e40005d0fb681a46274905201df021fcfb683a
:1018f400184625f0c3f8d6e0fb6818461af044faf7
:10190400d4e0bb695a789b781b021343bb82fb6803
:10191400b96818462bf032fd0346002b40f0be8018
:10192400fb68ba8a9a84fb68184625f0a7f8fb6816
:1019340018461cf0cbfab9e0bb691b7803f0080326
:10194400dbb2002b06d1bb691b7803f00403dbb2c6
:10195400002b1bd1054b5b79002b00f0a180fb68a9
:101964001a46094905201df0e3fb99e0b0744520af
:10197400340c4100700c4100a80c4100cc0c410017
:10198400e80c41001c0d4100400d4100bb69b3f857
:10199400033098b2fb681a8cfb68db6a9bb25b006d
:1019a4009bb2d31a9bb2013b99b2fb68db8b013b20
:1019b4009bb21a462df04afd0346002b1dd13e4b27
:1019c4001b78002b6ed0f968bb69b3f803309bb267
:1019d4001846fb681b8c1a46fb68db6a5b00d31a4b
:1019e400013bfa68d28b013a0192009303460a46fe
:1019f400324900201df09cfb54e0bb69b3f803306e
:101a04009ab2fb68013292b21a84f868fb68db8be5
:101a14001a46fb689b8c009313460a2200210bf0a4
:101a240021ff40e0244b1b78002b10d0fb681a46a2
:101a3400234900201df07cfb09e000bf08e000bf43
:101a440006e000bf04e000bf02e000bf00e000bf0a
:101a5400fb681b69002b0bd1fb68fa7d1146184605
:101a64001bf0e2fffb680021184622f061fd1ae03a
