:020000040000fa
:020000040040ba
:10c00000f8ff452089c1400017ca400075c94000ab
:10c010002fca400031ca400033ca4000000000006f
:10c02000000000000000000000000000efc9400018
:10c030002dca400000000000efc94000efc94000d9
:10c04000efc94000efc94000efc94000efc9400010
:10c05000efc94000efc94000efc94000efc9400000
:10c06000efc9400000000000efc94000efc94000e8
:10c07000efc94000efc94000efc94000efc94000e0
:10c08000efc94000efc94000efc94000efc94000d0
:10c09000efc94000efc94000efc94000efc94000c0
:10c0a000efc94000efc94000efc94000efc94000b0
:10c0b000efc94000efc94000efc94000efc94000a0
:10c0c000efc94000efc94000efc94000efc9400090
:10c0d000efc94000efc94000efc94000efc9400080
:10c0e000efc94000efc94000efc94000efc9400070
:10c0f00041c74000f1c64000efc94000efc9400011
:10c10000efc94000efc94000efc94000efc940004f
:10c11000efc94000efc9400000000000000000002f
:10c12000efc94000efc94000efc94000efc940002f
:10c13000efc94000efc9400000000000efc9400017
:10c14000efc94000efc94000efc94000efc940000f
:10c15000efc94000efc94000efc94000efc94000ff
:08c16000efc94000efc94000e7
:020000040000fa
:020000040040ba
:10c16800f8b500bff8bc08bc9e46704701c840003f
:10c17800f8b500bff8bc08bc9e467047ddc7400054
:020000040000fa
:020000040040ba
:10c1880008b5514b9847514b9847eff3108172b659
:10c198004f4ad2f8883043f47003c2f88830bff3ae
:10c1a8004f8fbff36f8f01b962b64a4b4a4a5a6044
:10c1b8001a46936813f0010ffbd0464bdb6813f463
:10c1c800c07f15d0454b0c221a60424b444a5a6036
:10c1d8001a46936813f0010ffbd03e4b414a5a6050
:10c1e8001a46936813f0010ffbd03f4b3f4a1a6081
:10c1f800bff34f8fbff36f8f354cd4f8903223f0d5
:10c208000103c4f89032d4f8943223f00103c4f83f
:10c218009432bff34f8fbff36f8f00f075fb344b31
:10c2280023f07f03a360334b9847636913f4003fff
:10c2380012d1bff34f8fbff36f8f0022c4f8502283
:10c24800bff34f8fbff36f8f626942f400326261b0
:10c25800bff34f8fbff36f8f1d4b5b6913f4803fa4
:10c268002bd11b4b0022c3f88420bff34f8fd3f888
:10c278008030c3f3c904c3f34e334fea431c43f67b
:10c28800e07e13480cea0e01234641ea8372c0f8a7
:10c298006022013bb3f1ff3ff7d1acf1200c1cf158
:10c2a800200fefd1bff34f8f094a536943f480330e
:10c2b8005361bff34f8fbff36f8f0f4b98470f4bef
:10c2c800984700f0a7fafee735ca400035ca400093
:10c2d80000ed00e0000c0e400d00005a0c0140205b
:10c2e8000c08005a0c07005a00180e40010000a55f
:10c2f80000c0400095c6400035ca400035ca40001d
:020000040000fa
:020000040040ba
:10c3080000222c4bc3f814212b494ff0ff330b604c
:10c318004b650b66c1f89030c1f8a0304ff40000af
:10c3280008616ff4000048618a63c1f8182101f5bb
:10c3380000710b604b650b66c1f89030c1f8a030f6
:10c348000a614b618a63c1f8182101f500710b601d
:10c358004b650b66c1f89030c1f8a0300a614b619b
:10c368008a63c1f8182101f500710a674ff0c060af
:10c3780048674ff0ac4048606ff0ac4008604b65d0
:10c388000b66c1f89030c1f8a0300a614b618a632e
:10c39800c1f8182101f500710b604b650b66c1f8f7
:10c3a8009030c1f8a0300a614b618a63c1f8182146
:0cc3b800704700bf00800840000e0e40df
:020000040000fa
:020000040040ba
:10c3c400f00040201c00000000000000700040202d
:10c3d40030000000000000000c01402004000000b8
:10c3e40000000000d00040202000000000000000f9
:10c3f400a000402030000000000000001001402098
:10c404000400000000000000200040205000000054
:10c41400000000001401402004000000000000009f
:10c4240000000000000000006666666666666666d8
:020000040000fa
:020000040040ba
:10c43400174b184a9a621a46936e13f0020ffbd0f8
:10c44400134a136b23f070031363936e13f0080ff6
:10c45400fbd00f4a136b23f4407343f480731363cc
:10c46400936e13f0080ffbd0094a136b23f00303f8
:10c4740043f002031363936e13f0080ffbd0044bd5
:10c484004ff447321a614ff44052c3f80021704709
:08c4940000060e40013f1820d4
:020000040000fa
:020000040040ba
:10c49c0038b5174b1b7d4bb3154b5c689b68154a25
:10c4ac00526912f0020f0fd09c420dd9104d114958
:10c4bc002a68c869d25c0243ca6101334a6912f026
:10c4cc00020f01d09c42f3d8094a93609368a342af
:10c4dc000cd3134600221a75064a4ff40071d16032
:10c4ec00db681bb1024b1869db68984738bd00bf8d
:08c4fc0070004020001c0e40fe
:020000040000fa
:020000040040ba
:10c5040038b5174b1b7d4bb3154b5c689b68154abc
:10c51400526912f0020f0fd09c420dd9104d1149ef
:10c524002a68c869d25c0243ca6101334a6912f0bd
:10c53400020f01d09c42f3d8094a93609368a34246
:10c544000cd3134600221a75064a4ff40071d160c9
:10c55400db681bb1024b1869db68984738bd00bf24
:08c56400a0004020001a0e4067
:020000040000fa
:020000040040ba
:10c56c0038b5164b93f82c303bb3144bdc691b6a73
:10c57c00134a526912f0010f0dd09c420bd9104a8c
:10c58c000e4d9069a969c8540133516911f0010f1e
:10c59c0001d09c42f5d8094a1362136aa3420cd30a
:10c5ac001346002283f82c20054ae121d1605b6af6
:10c5bc001bb1024b986a5b6a984738bd70004020eb
:04c5cc00001c0e4001
:020000040000fa
:020000040040ba
:10c5d00038b5164b93f82c303bb3144bdc691b6a0f
:10c5e000134a526912f0010f0dd09c420bd9104a28
:10c5f0000e4d9069a969c8540133516911f0010fba
:10c6000001d09c42f5d8094a1362136aa3420cd3a5
:10c610001346002283f82c20054ae121d1605b6a91
:10c620001bb1024b986a5b6a984738bda000402056
:04c63000001a0e409e
:020000040000fa
:020000040040ba
:10c63400144bd96821f4e0610904090c124a0a4335
:10c64400da60bff35f8f62b6104ae02182f82c13e0
:10c654004ff48050506082f82d134ff40051516014
:10c664005a6a42f480225a625a6942f010025a61ac
:10c674005a6a42f400325a625a6a42f480325a6266
:10c68400704700bf00ed00e00000fa0500e100e0a3
:020000040000fa
:020000040040ba
:10c694000e4a38b5002313600d4a0e4c13600e4a3f
:10c6a4000e4d13600e4a13600e4a13600e4a536215
:10c6b40013610123936000f0bdf900f0bbf9ac42b3
:10c6c40000d338bd54f8043b9847f8e714014020e0
:10c6d4002c00402074c140002800402078c1400054
:0cc6e400200040202400402030004020b6
:020000040000fa
:020000040040ba
:10c6f00008b5114b5b6913f0e00f0cd00e4be12233
:10c70000da600e4b002283f82c205b6a1bb10b4bc6
:10c71000986a5b6a9847084b5b6913f0010f05d173
:10c72000054b5b6913f0020f03d108bdfff71eff35
:10c73000f6e7fff7b3fef8e7001c0e40700040205c
:020000040000fa
:020000040040ba
:10c7400008b5114b5b6913f0e00f0cd00e4be122e2
:10c75000da600e4b002283f82c205b6a1bb10b4b76
:10c76000986a5b6a9847084b5b6913f0010f05d123
:10c77000054b5b6913f0020f03d108bdfff728ffdb
:10c78000f6e7fff7bffef8e7001a0e40a0004020d2
:020000040000fa
:020000040040ba
:10c79000d8b1104b1b7dd3b90e4b186059600021e6
:10c7a0009960012119750c4b5b6913f0020f06d0db
:10c7b0000278094bda61074a93680b449360064b91
:10c7c0004ff400729a6001207047002070470020eb
:0cc7d000704700bfa0004020001a0e407f
:020000040000fa
:020000040040ba
:10c7dc0010b5054c237833b9044b13b10448aff3af
:10c7ec0000800123237010bdf000402000000000e9
:10c7fc000000000008b5034b1bb103490348aff31d
:10c80c00008008bd00000000f40040200000000083
:020000040000fa
:020000040040ba
:10c81c0070b5002000f090f80a4e0b4d202407e074
:10c82c002146284600f050f821462846fff7aaff7b
:10c83c00b36b83f40003b363044b00bf013bfcd127
:10c84c00eee700bf000e0e40d00040200120a107f3
:020000040000fa
:020000040040ba
:10c85c000c4b4ff486721a6050221a604ff400622f
:10c86c005a6051221a62084b00229a61da611a62ec
:10c87c0083f82c205a621a605a609a601a75da6032
:0cc88c00704700bf001c0e4070004020f0
:020000040000fa
:020000040040ba
:10c898000c4b4ff486721a6050221a604ff40062f3
:10c8a8005a6051221a62084b00229a61da611a62b0
:10c8b80083f82c205a621a605a609a601a75da60f6
:0cc8c800704700bf001a0e40a000402086
:020000040000fa
:020000040040ba
:10c8d400a0b138b50c46054600f062f8094b93f850
:10c8e4002c306bb9074b9d61dc6100221a62012078
:10c8f40083f82c00044be1229a6002e00020704788
:0cc90400002038bda0004020001a0e40aa
:020000040000fa
:020000040040ba
:10c9100038b50a480a4d016821b9436813b900f0d7
:10c920008af838bd0389426855f8233000f10c04b9
:10c930002046984704eb8000ede700bfc4c34000e9
:04c94000f0c94000fa
:020000040000fa
:020000040040ba
:10c9440008b500f067f8fff773fdfff7dbfcfff7ae
:10c9540083fffff79fff4ff40043044a5360a2f59f
:10c9640080725365fff764fe08bd00bf00190e40d6
:020000040000fa
:020000040040ba
:10c9740082b009490020094a8b6b83f400038b635e
:10c984000190019b9342f7da00bf019b01330193ad
:10c99400019b9342f8dbefe7000e0e400048e801ec
:020000040000fa
:020000040040ba
:10c9a400094b586910f0e00000d170474ff48072d1
:10c9b4001a605b6913f0010ff7d0034b9a695a6947
:0cc9c40012f0010ffad1f0e7001a0e404b
:020000040000fa
:020000040040ba
:10c9d00010b50023934206d113f0030018bf0120c5
:0ec9e00000eb930010bdc45ccc540133f2e7b1
:020000040000fa
:020000040040ba
:02c9ee00fee762
:020000040000fa
:020000040040ba
:10c9f00005ca4000d1c9400029ca400029ca4000e8
:04ca000029ca4000ff
:020000040000fa
:020000040040ba
:10ca04000a440023914201d10020704701f8013b00
:02ca1400f8e741
:020000040000fa
:020000040040ba
:02ca1600fee739
:020000040000fa
:020000040040ba
:10ca1800014b024a1a607047000c0e4000060004e1
:020000040000fa
:020000040040ba
:04ca28000020704733
:020000040000fa
:020000040040ba
:02ca2c00fee723
:020000040000fa
:020000040040ba
:02ca2e00fee721
:020000040000fa
:020000040040ba
:02ca3000fee71f
:020000040000fa
:020000040040ba
:02ca3200fee71d
:020000040000fa
:020000040040ba
:02ca3400704749
:020000040000fa
:020000040040ba
:02ca3600704747
:020000040000fa
:020000040040ba
:02ca3800704745
:020000040000fa
:02000004005f9b
:10ff000002000000010000000000000000004000ae
:10ff100000c0000000c0400000401f0000000000c2
:10ff200000000000000000000000000000000000d1
:10ff300000000000000000000000000000000000c1
:10ff400000000000000000000000000000000000b1
:10ff500000000000000000000000000000000000a1
:10ff60000000000000000000000000000000000091
:10ff70000000000000000000000000000000000081
:10ff80000000000000000000000000000000000071
:10ff90000000000000000000000000000000000061
:10ffa0000000000000000000000000000000000051
:10ffb0000000000000000000000000000000000041
:10ffc0000000000000000000000000000000000031
:10ffd0000000000000000000000000000000000021
:10ffe0000000000000000000000000000000000011
:10fff0000000000000000000000000000000000001
:020000040000fa
:02000004d0002a
:0400000002000000fa
:00000001FF
