:020000040000fa
:020000040040ba
:10c00000f8ff452089c140001bc6400065c54000bf
:10c0100033c6400035c6400037c64000000000006f
:10c02000000000000000000000000000dbc5400030
:10c0300031c6400000000000dbc54000dbc5400009
:10c04000dbc54000dbc54000dbc54000dbc5400070
:10c05000dbc54000dbc54000dbc54000dbc5400060
:10c06000dbc5400000000000dbc54000dbc5400030
:10c07000dbc54000dbc54000dbc54000dbc5400040
:10c08000dbc54000dbc54000dbc54000dbc5400030
:10c09000dbc54000dbc54000dbc54000dbc5400020
:10c0a000dbc54000dbc54000dbc54000dbc5400010
:10c0b000dbc54000dbc54000dbc54000dbc5400000
:10c0c000dbc54000dbc54000dbc54000dbc54000f0
:10c0d000dbc54000dbc54000dbc54000dbc54000e0
:10c0e000dbc54000dbc54000dbc54000dbc54000d0
:10c0f000dbc54000dbc54000dbc54000dbc54000c0
:10c10000dbc54000dbc54000dbc54000dbc54000af
:10c11000dbc54000dbc5400000000000000000005f
:10c12000dbc54000dbc54000dbc54000dbc540008f
:10c13000dbc54000dbc5400000000000dbc540005f
:10c14000dbc54000dbc54000dbc54000dbc540006f
:10c15000dbc54000dbc54000dbc54000dbc540005f
:08c16000dbc54000dbc5400017
:020000040000fa
:020000040040ba
:10c16800f8b500bff8bc08bc9e467047d5c440006f
:10c17800f8b500bff8bc08bc9e467047b1c4400083
:020000040000fa
:020000040040ba
:10c1880008b5514b9847514b9847eff3108172b659
:10c198004f4ad2f8883043f47003c2f88830bff3ae
:10c1a8004f8fbff36f8f01b962b64a4b4a4a5a6044
:10c1b8001a46936813f0010ffbd0464bdb6813f463
:10c1c800c07f15d0454b0c221a60424b444a5a6036
:10c1d8001a46936813f0010ffbd03e4b414a5a6050
:10c1e8001a46936813f0010ffbd03f4b3f4a1a6081
:10c1f800bff34f8fbff36f8f354cd4f8903223f0d5
:10c208000103c4f89032d4f8943223f00103c4f83f
:10c218009432bff34f8fbff36f8f00f085f9344b23
:10c2280023f07f03a360334b9847636913f4003fff
:10c2380012d1bff34f8fbff36f8f0022c4f8502283
:10c24800bff34f8fbff36f8f626942f400326261b0
:10c25800bff34f8fbff36f8f1d4b5b6913f4803fa4
:10c268002bd11b4b0022c3f88420bff34f8fd3f888
:10c278008030c3f3c904c3f34e334fea431c43f67b
:10c28800e07e13480cea0e01234641ea8372c0f8a7
:10c298006022013bb3f1ff3ff7d1acf1200c1cf158
:10c2a800200fefd1bff34f8f094a536943f480330e
:10c2b8005361bff34f8fbff36f8f0f4b98470f4bef
:10c2c800984700f087f9fee739c6400039c64000b4
:10c2d80000ed00e0000c0e400d00005a8c004020dc
:10c2e8000c08005a0c07005a00180e40010000a55f
:10c2f80000c0400011c4400039c6400039c64000a3
:020000040000fa
:020000040040ba
:10c308000022274bc3f8142126494ff0ff330b6056
:10c318004b650b66c1f89030c1f8a0304ff40000af
:10c3280008616ff4000048618a63c1f8182101f5bb
:10c3380000710b604b650b66c1f89030c1f8a030f6
:10c348000a614b618a63c1f8182101f500710b601d
:10c358004b650b66c1f89030c1f8a0300a614b619b
:10c368008a63c1f8182101f500710b604b650b66f3
:10c37800c1f89030c1f8a0300a614b618a63c1f8f6
:10c38800182101f500710b604b650b66c1f8903000
:10c39800c1f8a0300a614b618a63c1f8182170475f
:08c3a80000800840000e0e4069
:020000040000fa
:020000040040ba
:10c3b000154b164a9a621a46936e13f0020ffbd081
:10c3c000114a136b23f070031363936e13f0080f7d
:10c3d000fbd00d4a136b23f4407343f48073136353
:10c3e000936e13f0080ffbd0074a136b23f003037f
:10c3f00043f002031363936e13f0080ffbd0024b5c
:10c400004ff447321a61704700060e40013f182072
:020000040000fa
:020000040040ba
:10c410000e4a38b5002313600d4a0e4c13600e4ac5
:10c420000e4d13600e4a13600e4a13600e4a53629b
:10c4300013610123936000f001f900f0fff8ac42b2
:10c4400000d338bd54f8043b9847f8e794004020e7
:10c450002c00402074c140002800402078c14000da
:0cc460002000402024004020300040203c
:020000040000fa
:020000040040ba
:10c46c000e4bd96821f4e0610904090c0c4a0a430b
:10c47c00da60bff35f8f62b65a6a42f480225a6266
:10c48c005a6942f010025a615a6a42f400325a62f6
:10c49c005a6a42f480325a62704700bf00ed00e0e5
:04c4ac000000fa058d
:020000040000fa
:020000040040ba
:10c4b00010b5054c237833b9044b13b10448aff3de
:10c4c00000800123237010bd700040200000000098
:10c4d0000000000008b5034b1bb103490348aff34c
:10c4e000008008bd00000000740040200000000033
:020000040000fa
:020000040040ba
:10c4f000700040201c000000000000008c00402064
:10c500000800000000000000200040205000000053
:10c510000000000094004020040000000000000023
:10c5200000000000000000006666666666666666db
:020000040000fa
:020000040040ba
:10c5300038b50a480a4d016821b9436813b900f0bb
:10c540007cf838bd0389426855f8233000f10c04ab
:10c550002046984704eb8000ede700bff0c44000a0
:04c56000f4c54000de
:020000040000fa
:020000040040ba
:10c5640082b009490020094a8b6b83f400038b6372
:10c574000190019b9342f7da00bf019b01330193c1
:10c58400019b9342f8dbefe7000e0e400048e80100
:020000040000fa
:020000040040ba
:10c5940008b500f041f8fff709fffff7b3fe4ff4c9
:10c5a4000043044a5360a2f580725365fff75cffb1
:08c5b40008bd00bf00190e4094
:020000040000fa
:020000040040ba
:10c5bc0010b50023934206d113f0030018bf0120dd
:0ec5cc0000eb930010bdc45ccc540133f2e7c9
:020000040000fa
:020000040040ba
:02c5da00fee77a
:020000040000fa
:020000040040ba
:10c5dc0008b50020fff7d8ff024a4ff4000313639d
:08c5ec00fde700bf000e0e4048
:020000040000fa
:020000040040ba
:10c5f40009c64000bdc540002dc640002dc6400000
:04c604002dc64000ff
:020000040000fa
:020000040040ba
:10c608000a440023914201d10020704701f8013b00
:02c61800f8e741
:020000040000fa
:020000040040ba
:02c61a00fee739
:020000040000fa
:020000040040ba
:10c61c00014b024a1a607047000c0e4000060004e1
:020000040000fa
:020000040040ba
:04c62c000020704733
:020000040000fa
:020000040040ba
:02c63000fee723
:020000040000fa
:020000040040ba
:02c63200fee721
:020000040000fa
:020000040040ba
:02c63400fee71f
:020000040000fa
:020000040040ba
:02c63600fee71d
:020000040000fa
:020000040040ba
:02c63800704749
:020000040000fa
:020000040040ba
:02c63a00704747
:020000040000fa
:020000040040ba
:02c63c00704745
:020000040000fa
:02000004005f9b
:10ff000002000000010000000000000000004000ae
:10ff100000c0000000c0400000401f0000000000c2
:10ff200000000000000000000000000000000000d1
:10ff300000000000000000000000000000000000c1
:10ff400000000000000000000000000000000000b1
:10ff500000000000000000000000000000000000a1
:10ff60000000000000000000000000000000000091
:10ff70000000000000000000000000000000000081
:020000040000fa
:02000004d0002a
:0400000002000000fa
:00000001FF
